Component: ARM Compiler 5.06 update 6 (build 750) Tool: armlink [4d35ed]

==============================================================================

Section Cross References

    system_stm32f10x.o(i.SetSysClock) refers to system_stm32f10x.o(i.SetSysClockTo72) for SetSysClockTo72
    system_stm32f10x.o(i.SystemCoreClockUpdate) refers to system_stm32f10x.o(.data) for SystemCoreClock
    system_stm32f10x.o(i.SystemInit) refers to system_stm32f10x.o(i.SetSysClock) for SetSysClock
    startup_stm32f10x_md.o(RESET) refers to startup_stm32f10x_md.o(STACK) for __initial_sp
    startup_stm32f10x_md.o(RESET) refers to startup_stm32f10x_md.o(.text) for Reset_Handler
    startup_stm32f10x_md.o(RESET) refers to stm32f10x_it.o(i.NMI_Handler) for NMI_Handler
    startup_stm32f10x_md.o(RESET) refers to stm32f10x_it.o(i.HardFault_Handler) for HardFault_Handler
    startup_stm32f10x_md.o(RESET) refers to stm32f10x_it.o(i.MemManage_Handler) for MemManage_Handler
    startup_stm32f10x_md.o(RESET) refers to stm32f10x_it.o(i.BusFault_Handler) for BusFault_Handler
    startup_stm32f10x_md.o(RESET) refers to stm32f10x_it.o(i.UsageFault_Handler) for UsageFault_Handler
    startup_stm32f10x_md.o(RESET) refers to stm32f10x_it.o(i.SVC_Handler) for SVC_Handler
    startup_stm32f10x_md.o(RESET) refers to stm32f10x_it.o(i.DebugMon_Handler) for DebugMon_Handler
    startup_stm32f10x_md.o(RESET) refers to timer.o(i.TIM2_IRQHandler) for TIM2_IRQHandler
    startup_stm32f10x_md.o(RESET) refers to timer.o(i.TIM3_IRQHandler) for TIM3_IRQHandler
    startup_stm32f10x_md.o(RESET) refers to timer.o(i.TIM4_IRQHandler) for TIM4_IRQHandler
    startup_stm32f10x_md.o(RESET) refers to usart1.o(i.USART1_IRQHandler) for USART1_IRQHandler
    startup_stm32f10x_md.o(RESET) refers to usart2.o(i.USART2_IRQHandler) for USART2_IRQHandler
    startup_stm32f10x_md.o(RESET) refers to usart3.o(i.USART3_IRQHandler) for USART3_IRQHandler
==============================================================================

Removing Unused input sections from the image.

    Removing core_cm3.o(.emb_text), (32 bytes).
    Removing system_stm32f10x.o(i.SystemCoreClockUpdate), (164 bytes).
    Removing startup_stm32f10x_md.o(HEAP), (512 bytes).
    Removing stm32f10x_adc.o(i.ADC_AnalogWatchdogCmd), (20 bytes).
    Removing stm32f10x_adc.o(i.ADC_AnalogWatchdogSingleChannelConfig), (16 bytes).
    Removing stm32f10x_adc.o(i.ADC_AnalogWatchdogThresholdsConfig), (6 bytes).
    Removing stm32f10x_adc.o(i.ADC_AutoInjectedConvCmd), (22 bytes).
    Removing stm32f10x_adc.o(i.ADC_ClearFlag), (6 bytes).
    Removing stm32f10x_adc.o(i.ADC_ClearITPendingBit), (10 bytes).
    Removing stm32f10x_adc.o(i.ADC_Cmd), (22 bytes).
    Removing stm32f10x_adc.o(i.ADC_DMACmd), (22 bytes).
    Removing stm32f10x_adc.o(i.ADC_DeInit), (92 bytes).
    Removing stm32f10x_adc.o(i.ADC_DiscModeChannelCountConfig), (24 bytes).
    Removing stm32f10x_adc.o(i.ADC_DiscModeCmd), (22 bytes).
    Removing stm32f10x_adc.o(i.ADC_ExternalTrigConvCmd), (22 bytes).
    Removing stm32f10x_adc.o(i.ADC_ExternalTrigInjectedConvCmd), (22 bytes).
    Removing stm32f10x_adc.o(i.ADC_ExternalTrigInjectedConvConfig), (16 bytes).
    Removing stm32f10x_adc.o(i.ADC_GetCalibrationStatus), (20 bytes).
==============================================================================

Image Symbol Table

    Local Symbols

    Symbol Name                              Value     Ov Type        Size  Object(Section)

    ../clib/microlib/division.c              0x00000000   Number         0  uldiv.o ABSOLUTE
    ../clib/microlib/division.c              0x00000000   Number         0  uidiv.o ABSOLUTE
    ../clib/microlib/errno.c                 0x00000000   Number         0  errno.o ABSOLUTE
    ../clib/microlib/init/entry.s            0x00000000   Number         0  entry5.o ABSOLUTE
    ../clib/microlib/init/entry.s            0x00000000   Number         0  entry.o ABSOLUTE
    ../clib/microlib/init/entry.s            0x00000000   Number         0  entry7a.o ABSOLUTE
    ../clib/microlib/init/entry.s            0x00000000   Number         0  entry9a.o ABSOLUTE
    ../clib/microlib/init/entry.s            0x00000000   Number         0  entry2.o ABSOLUTE
    ../clib/microlib/init/entry.s            0x00000000   Number         0  entry8b.o ABSOLUTE
    ../clib/microlib/init/entry.s            0x00000000   Number         0  entry11a.o ABSOLUTE
    ../clib/microlib/init/entry.s            0x00000000   Number         0  entry11b.o ABSOLUTE
    ../clib/microlib/init/entry.s            0x00000000   Number         0  entry7b.o ABSOLUTE
    ../clib/microlib/init/entry.s            0x00000000   Number         0  entry8a.o ABSOLUTE
    ../clib/microlib/init/entry.s            0x00000000   Number         0  entry9b.o ABSOLUTE
    ../clib/microlib/init/entry.s            0x00000000   Number         0  entry10a.o ABSOLUTE
    ../clib/microlib/init/entry.s            0x00000000   Number         0  entry10b.o ABSOLUTE
    ../clib/microlib/longlong.c              0x00000000   Number         0  llsshr.o ABSOLUTE
    ../clib/microlib/longlong.c              0x00000000   Number         0  llushr.o ABSOLUTE
    ../clib/microlib/longlong.c              0x00000000   Number         0  llshl.o ABSOLUTE
    ../clib/microlib/printf/printf.c         0x00000000   Number         0  printfa.o ABSOLUTE
    ../clib/microlib/string/memset.c         0x00000000   Number         0  memseta.o ABSOLUTE
    ../clib/microlib/string/strlen.c         0x00000000   Number         0  strlen.o ABSOLUTE
    ../clib/microlib/stubs.s                 0x00000000   Number         0  useno.o ABSOLUTE
    ../clib/microlib/stubs.s                 0x00000000   Number         0  iusefp.o ABSOLUTE
    ../fplib/microlib/d2f.c                  0x00000000   Number         0  d2f.o ABSOLUTE
    ../fplib/microlib/f2d.c                  0x00000000   Number         0  f2d.o ABSOLUTE
    ../fplib/microlib/fpadd.c                0x00000000   Number         0  fadd.o ABSOLUTE
    ../fplib/microlib/fpadd.c                0x00000000   Number         0  dadd.o ABSOLUTE
    ../fplib/microlib/fpdiv.c                0x00000000   Number         0  ddiv.o ABSOLUTE
    ../fplib/microlib/fpdiv.c                0x00000000   Number         0  fdiv.o ABSOLUTE
    ../fplib/microlib/fpepilogue.c           0x00000000   Number         0  depilogue.o ABSOLUTE
    ../fplib/microlib/fpepilogue.c           0x00000000   Number         0  fepilogue.o ABSOLUTE
    ../fplib/microlib/fpfix.c                0x00000000   Number         0  ffixui.o ABSOLUTE
    ../fplib/microlib/fpfix.c                0x00000000   Number         0  ffixi.o ABSOLUTE
    ../fplib/microlib/fpfix.c                0x00000000   Number         0  dfixui.o ABSOLUTE
    ../fplib/microlib/fpfix.c                0x00000000   Number         0  dfixul.o ABSOLUTE
    ../fplib/microlib/fpflt.c                0x00000000   Number         0  ffltui.o ABSOLUTE
    ../fplib/microlib/fpflt.c                0x00000000   Number         0  dfltui.o ABSOLUTE
    ../fplib/microlib/fpflt.c                0x00000000   Number         0  dflti.o ABSOLUTE
    ../fplib/microlib/fpflt.c                0x00000000   Number         0  fflti.o ABSOLUTE
    ../fplib/microlib/fpmul.c                0x00000000   Number         0  fmul.o ABSOLUTE
    ../fplib/microlib/fpmul.c                0x00000000   Number         0  dmul.o ABSOLUTE
    ../fplib/microlib/fpscalb.c              0x00000000   Number         0  dscalb.o ABSOLUTE
    ../fplib/microlib/fpsqrt.c               0x00000000   Number         0  dsqrt.o ABSOLUTE
    ../mathlib/asin.c                        0x00000000   Number         0  asin_x.o ABSOLUTE
    ../mathlib/asin.c                        0x00000000   Number         0  asin.o ABSOLUTE
    ../mathlib/atan.c                        0x00000000   Number         0  atan_x.o ABSOLUTE
    ../mathlib/atan.c                        0x00000000   Number         0  atan.o ABSOLUTE
    ../mathlib/atan2.c                       0x00000000   Number         0  atan2.o ABSOLUTE
    ../mathlib/atan2.c                       0x00000000   Number         0  atan2_x.o ABSOLUTE
    ../mathlib/dunder.c                      0x00000000   Number         0  dunder.o ABSOLUTE
    ../mathlib/fpclassify.c                  0x00000000   Number         0  fpclassify.o ABSOLUTE
    ../mathlib/poly.c                        0x00000000   Number         0  poly.o ABSOLUTE
    ../mathlib/qnan.c                        0x00000000   Number         0  qnan.o ABSOLUTE
    ../mathlib/sqrt.c                        0x00000000   Number         0  sqrt_x.o ABSOLUTE
    ../mathlib/sqrt.c                        0x00000000   Number         0  sqrt.o ABSOLUTE
    ..\CM3\core_cm3.c                        0x00000000   Number         0  core_cm3.o ABSOLUTE
    ..\CM3\startup_stm32f10x_md.s            0x00000000   Number         0  startup_stm32f10x_md.o ABSOLUTE
    ..\CM3\system_stm32f10x.c                0x00000000   Number         0  system_stm32f10x.o ABSOLUTE
    ..\Libraries\misc.c                      0x00000000   Number         0  misc.o ABSOLUTE
    ..\Libraries\stm32f10x_adc.c             0x00000000   Number         0  stm32f10x_adc.o ABSOLUTE
    ..\Libraries\stm32f10x_bkp.c             0x00000000   Number         0  stm32f10x_bkp.o ABSOLUTE
    ..\Libraries\stm32f10x_can.c             0x00000000   Number         0  stm32f10x_can.o ABSOLUTE
    ..\Libraries\stm32f10x_cec.c             0x00000000   Number         0  stm32f10x_cec.o ABSOLUTE
    ..\Libraries\stm32f10x_crc.c             0x00000000   Number         0  stm32f10x_crc.o ABSOLUTE
    ..\Libraries\stm32f10x_dac.c             0x00000000   Number         0  stm32f10x_dac.o ABSOLUTE
    ..\Libraries\stm32f10x_dbgmcu.c          0x00000000   Number         0  stm32f10x_dbgmcu.o ABSOLUTE
    ..\Libraries\stm32f10x_dma.c             0x00000000   Number         0  stm32f10x_dma.o ABSOLUTE
    ..\Libraries\stm32f10x_exti.c            0x00000000   Number         0  stm32f10x_exti.o ABSOLUTE
    ..\Libraries\stm32f10x_flash.c           0x00000000   Number         0  stm32f10x_flash.o ABSOLUTE
    ..\Libraries\stm32f10x_fsmc.c            0x00000000   Number         0  stm32f10x_fsmc.o ABSOLUTE
    ..\Libraries\stm32f10x_gpio.c            0x00000000   Number         0  stm32f10x_gpio.o ABSOLUTE
    ..\Libraries\stm32f10x_i2c.c             0x00000000   Number         0  stm32f10x_i2c.o ABSOLUTE
    ..\Libraries\stm32f10x_iwdg.c            0x00000000   Number         0  stm32f10x_iwdg.o ABSOLUTE
    ..\Libraries\stm32f10x_pwr.c             0x00000000   Number         0  stm32f10x_pwr.o ABSOLUTE
    ..\Libraries\stm32f10x_rcc.c             0x00000000   Number         0  stm32f10x_rcc.o ABSOLUTE
    ..\Libraries\stm32f10x_rtc.c             0x00000000   Number         0  stm32f10x_rtc.o ABSOLUTE
    ..\Libraries\stm32f10x_sdio.c            0x00000000   Number         0  stm32f10x_sdio.o ABSOLUTE
    ..\Libraries\stm32f10x_spi.c             0x00000000   Number         0  stm32f10x_spi.o ABSOLUTE
    ..\Libraries\stm32f10x_tim.c             0x00000000   Number         0  stm32f10x_tim.o ABSOLUTE
    ..\Libraries\stm32f10x_usart.c           0x00000000   Number         0  stm32f10x_usart.o ABSOLUTE
    ..\Libraries\stm32f10x_wwdg.c            0x00000000   Number         0  stm32f10x_wwdg.o ABSOLUTE
    ..\MYLIB\BMP280.c                        0x00000000   Number         0  bmp280.o ABSOLUTE
    ..\MYLIB\BMPiic.c                        0x00000000   Number         0  bmpiic.o ABSOLUTE
    ..\MYLIB\Serial_oscilloscope.c           0x00000000   Number         0  serial_oscilloscope.o ABSOLUTE
    ..\MYLIB\beep.c                          0x00000000   Number         0  beep.o ABSOLUTE
    ..\MYLIB\control.c                       0x00000000   Number         0  control.o ABSOLUTE
    ..\MYLIB\delay.c                         0x00000000   Number         0  delay.o ABSOLUTE
    ..\MYLIB\exti.c                          0x00000000   Number         0  exti.o ABSOLUTE
    ..\MYLIB\filter.c                        0x00000000   Number         0  filter.o ABSOLUTE
    ..\MYLIB\flash.c                         0x00000000   Number         0  flash.o ABSOLUTE
    ..\MYLIB\imu.c                           0x00000000   Number         0  imu.o ABSOLUTE
    ..\MYLIB\key.c                           0x00000000   Number         0  key.o ABSOLUTE
    ..\MYLIB\led.c                           0x00000000   Number         0  led.o ABSOLUTE
    ..\MYLIB\mpu9250.c                       0x00000000   Number         0  mpu9250.o ABSOLUTE
    ..\MYLIB\mpuiic.c                        0x00000000   Number         0  mpuiic.o ABSOLUTE
    ..\MYLIB\oled.c                          0x00000000   Number         0  oled.o ABSOLUTE
    ..\MYLIB\paramsave.c                     0x00000000   Number         0  paramsave.o ABSOLUTE
    ..\MYLIB\qudong.c                        0x00000000   Number         0  qudong.o ABSOLUTE
    ..\MYLIB\spi.c                           0x00000000   Number         0  spi.o ABSOLUTE
    ..\MYLIB\sys.c                           0x00000000   Number         0  sys.o ABSOLUTE
    ..\MYLIB\timer.c                         0x00000000   Number         0  timer.o ABSOLUTE
    ..\MYLIB\usart1.c                        0x00000000   Number         0  usart1.o ABSOLUTE
    ..\MYLIB\usart2.C                        0x00000000   Number         0  usart2.o ABSOLUTE
    ..\MYLIB\usart3.C                        0x00000000   Number         0  usart3.o ABSOLUTE
    ..\User\main.c                           0x00000000   Number         0  main.o ABSOLUTE
    ..\User\stm32f10x_it.c                   0x00000000   Number         0  stm32f10x_it.o ABSOLUTE
    ..\\CM3\\core_cm3.c                      0x00000000   Number         0  core_cm3.o ABSOLUTE
    ..\\MYLIB\\sys.c                         0x00000000   Number         0  sys.o ABSOLUTE
    cdcmple.s                                0x00000000   Number         0  cdcmple.o ABSOLUTE
    cdrcmple.s                               0x00000000   Number         0  cdrcmple.o ABSOLUTE
    cfcmple.s                                0x00000000   Number         0  cfcmple.o ABSOLUTE
    cfrcmple.s                               0x00000000   Number         0  cfrcmple.o ABSOLUTE
    dc.s                                     0x00000000   Number         0  dc.o ABSOLUTE
    handlers.s                               0x00000000   Number         0  handlers.o ABSOLUTE
    init.s                                   0x00000000   Number         0  init.o ABSOLUTE
    RESET                                    0x08000000   Section      236  startup_stm32f10x_md.o(RESET)
    .ARM.Collect$$$$00000000                 0x080000ec   Section        0  entry.o(.ARM.Collect$$$$00000000)
    .ARM.Collect$$$$00000001                 0x080000ec   Section        4  entry2.o(.ARM.Collect$$$$00000001)
    .ARM.Collect$$$$00000004                 0x080000f0   Section        4  entry5.o(.ARM.Collect$$$$00000004)
    .ARM.Collect$$$$00000008                 0x080000f4   Section        0  entry7b.o(.ARM.Collect$$$$00000008)
    .ARM.Collect$$$$0000000A                 0x080000f4   Section        0  entry8b.o(.ARM.Collect$$$$0000000A)
    .ARM.Collect$$$$0000000B                 0x080000f4   Section        8  entry9a.o(.ARM.Collect$$$$0000000B)
    .ARM.Collect$$$$0000000D                 0x080000fc   Section        0  entry10a.o(.ARM.Collect$$$$0000000D)
    .ARM.Collect$$$$0000000F                 0x080000fc   Section        0  entry11a.o(.ARM.Collect$$$$0000000F)
    .ARM.Collect$$$$00002712                 0x080000fc   Section        4  entry2.o(.ARM.Collect$$$$00002712)
    __lit__00000000                          0x080000fc   Data           4  entry2.o(.ARM.Collect$$$$00002712)
    .text                                    0x08000100   Section       36  startup_stm32f10x_md.o(.text)
    .text                                    0x08000124   Section        0  memseta.o(.text)
    .text                                    0x08000148   Section        0  strlen.o(.text)
    .text                                    0x08000156   Section        0  fadd.o(.text)
    .text                                    0x08000206   Section        0  fmul.o(.text)
    .text                                    0x0800026a   Section        0  fdiv.o(.text)
    .text                                    0x080002e6   Section        0  dadd.o(.text)
    .text                                    0x08000434   Section        0  dmul.o(.text)
    .text                                    0x08000518   Section        0  fflti.o(.text)
    .text                                    0x0800052a   Section        0  ffltui.o(.text)
    .text                                    0x08000534   Section        0  dflti.o(.text)
    .text                                    0x08000556   Section        0  dfltui.o(.text)
    .text                                    0x08000570   Section        0  ffixi.o(.text)
    .text                                    0x080005a2   Section        0  ffixui.o(.text)
    .text                                    0x080005ca   Section        0  dfixui.o(.text)
    .text                                    0x080005fc   Section        0  f2d.o(.text)
    .text                                    0x08000624   Section       48  cdcmple.o(.text)
    .text                                    0x08000654   Section       48  cdrcmple.o(.text)
    .text                                    0x08000684   Section        0  d2f.o(.text)
    .text                                    0x080006bc   Section       20  cfcmple.o(.text)
    .text                                    0x080006d0   Section       20  cfrcmple.o(.text)
    .text                                    0x080006e4   Section        0  uidiv.o(.text)
    .text                                    0x08000710   Section        0  uldiv.o(.text)
    .text                                    0x08000772   Section        0  llshl.o(.text)
    .text                                    0x08000790   Section        0  llushr.o(.text)
    .text                                    0x080007b0   Section        0  llsshr.o(.text)
    .text                                    0x080007d4   Section        0  fepilogue.o(.text)
    .text                                    0x080007d4   Section        0  iusefp.o(.text)
    .text                                    0x08000842   Section        0  depilogue.o(.text)
    .text                                    0x080008fc   Section        0  ddiv.o(.text)
    .text                                    0x080009da   Section        0  dscalb.o(.text)
    .text                                    0x08000a08   Section        0  dfixul.o(.text)
    .text                                    0x08000a38   Section       36  init.o(.text)
    .text                                    0x08000a5c   Section        0  dsqrt.o(.text)
    i.ANO_DT_Data_Exchange                   0x08000b00   Section        0  serial_oscilloscope.o(i.ANO_DT_Data_Exchange)
    i.ANO_DT_Data_Receive_Anl                0x08000f40   Section        0  serial_oscilloscope.o(i.ANO_DT_Data_Receive_Anl)
    i.ANO_DT_Data_Receive_Prepare            0x08001480   Section        0  serial_oscilloscope.o(i.ANO_DT_Data_Receive_Prepare)
    i.ANO_DT_Send_Check                      0x0800156c   Section        0  serial_oscilloscope.o(i.ANO_DT_Send_Check)
    ANO_DT_Send_Check                        0x0800156d   Thumb Code    66  serial_oscilloscope.o(i.ANO_DT_Send_Check)
    i.ANO_DT_Send_Data                       0x080015b4   Section        0  serial_oscilloscope.o(i.ANO_DT_Send_Data)
    i.ANO_DT_Send_MotoPWM                    0x080015f8   Section        0  serial_oscilloscope.o(i.ANO_DT_Send_MotoPWM)
    i.ANO_DT_Send_PID                        0x08001724   Section        0  serial_oscilloscope.o(i.ANO_DT_Send_PID)
    i.ANO_DT_Send_RCData                     0x08001930   Section        0  serial_oscilloscope.o(i.ANO_DT_Send_RCData)
    i.ANO_DT_Send_Senser                     0x08001a94   Section        0  serial_oscilloscope.o(i.ANO_DT_Send_Senser)
    i.ANO_DT_Send_Status                     0x08001c10   Section        0  serial_oscilloscope.o(i.ANO_DT_Send_Status)
    i.BMP280_CalibParam                      0x08001d58   Section        0  bmp280.o(i.BMP280_CalibParam)
    i.BMP280_Chack                           0x08001e54   Section        0  bmp280.o(i.BMP280_Chack)
    i.BMP280_CompensatePressureInt32         0x08001e9c   Section        0  bmp280.o(i.BMP280_CompensatePressureInt32)
    i.BMP280_CompensateTemperatureInt32      0x08001f68   Section        0  bmp280.o(i.BMP280_CompensateTemperatureInt32)
    i.BMP280_Init                            0x08001fb4   Section        0  bmp280.o(i.BMP280_Init)
    i.BMP280_ReadPressureTemperature         0x08001ff6   Section        0  bmp280.o(i.BMP280_ReadPressureTemperature)
    i.BMP280_ReadUncompPressureTemperature   0x0800202a   Section        0  bmp280.o(i.BMP280_ReadUncompPressureTemperature)
    i.BMP280_Read_Byte                       0x0800207a   Section        0  bmp280.o(i.BMP280_Read_Byte)
    i.BMP280_Read_Len                        0x080020c2   Section        0  bmp280.o(i.BMP280_Read_Len)
    i.BMP280_SetPowerMode                    0x08002138   Section        0  bmp280.o(i.BMP280_SetPowerMode)
    i.BMP280_SetStandbyDurn                  0x08002170   Section        0  bmp280.o(i.BMP280_SetStandbyDurn)
    i.BMP280_SetWorkMode                     0x08002194   Section        0  bmp280.o(i.BMP280_SetWorkMode)
    i.BMP280_Write_Byte                      0x08002224   Section        0  bmp280.o(i.BMP280_Write_Byte)
    i.BMPIIC_Ack                             0x08002270   Section        0  bmpiic.o(i.BMPIIC_Ack)
    i.BMPIIC_Init                            0x080022c0   Section        0  bmpiic.o(i.BMPIIC_Init)
    i.BMPIIC_NAck                            0x08002300   Section        0  bmpiic.o(i.BMPIIC_NAck)
    i.BMPIIC_Read_Byte                       0x08002350   Section        0  bmpiic.o(i.BMPIIC_Read_Byte)
    i.BMPIIC_Send_Byte                       0x080023c0   Section        0  bmpiic.o(i.BMPIIC_Send_Byte)
    i.BMPIIC_Start                           0x08002428   Section        0  bmpiic.o(i.BMPIIC_Start)
    i.BMPIIC_Stop                            0x08002474   Section        0  bmpiic.o(i.BMPIIC_Stop)
    i.BMPIIC_Wait_Ack                        0x080024c0   Section        0  bmpiic.o(i.BMPIIC_Wait_Ack)
    i.BusFault_Handler                       0x08002524   Section        0  stm32f10x_it.o(i.BusFault_Handler)
    i.Control                                0x08002528   Section        0  control.o(i.Control)
    i.Deal_Remote_date                       0x08002774   Section        0  control.o(i.Deal_Remote_date)
    i.DebugMon_Handler                       0x0800283c   Section        0  stm32f10x_it.o(i.DebugMon_Handler)
    i.DefaultParams                          0x08002840   Section        0  paramsave.o(i.DefaultParams)
    i.DefaultParams_WriteFlash               0x080028b4   Section        0  paramsave.o(i.DefaultParams_WriteFlash)
    i.FLASH_ErasePage                        0x080028f0   Section        0  stm32f10x_flash.o(i.FLASH_ErasePage)
    i.FLASH_GetBank1Status                   0x0800293c   Section        0  stm32f10x_flash.o(i.FLASH_GetBank1Status)
    i.FLASH_Lock                             0x08002970   Section        0  stm32f10x_flash.o(i.FLASH_Lock)
    i.FLASH_ProgramWord                      0x08002984   Section        0  stm32f10x_flash.o(i.FLASH_ProgramWord)
    i.FLASH_Unlock                           0x080029f0   Section        0  stm32f10x_flash.o(i.FLASH_Unlock)
    i.FLASH_WaitForLastOperation             0x08002a08   Section        0  stm32f10x_flash.o(i.FLASH_WaitForLastOperation)
    i.FLY_Start                              0x08002a30   Section        0  control.o(i.FLY_Start)
    i.FindPos                                0x08002a8c   Section        0  filter.o(i.FindPos)
    i.GPIO_Init                              0x08002ae6   Section        0  stm32f10x_gpio.o(i.GPIO_Init)
    i.GPIO_ResetBits                         0x08002bfc   Section        0  stm32f10x_gpio.o(i.GPIO_ResetBits)
    i.GPIO_SetBits                           0x08002c00   Section        0  stm32f10x_gpio.o(i.GPIO_SetBits)
    i.Get_Press_temp                         0x08002c04   Section        0  control.o(i.Get_Press_temp)
    i.Get_Receive_PWM                        0x08002c14   Section        0  control.o(i.Get_Receive_PWM)
    i.HardFault_Handler                      0x08002d3c   Section        0  stm32f10x_it.o(i.HardFault_Handler)
    i.High_Control                           0x08002d40   Section        0  control.o(i.High_Control)
    i.IIC_Start                              0x08002d9c   Section        0  oled.o(i.IIC_Start)
    i.IIC_Stop                               0x08002dc4   Section        0  oled.o(i.IIC_Stop)
    i.IIC_Wait_Ack                           0x08002de4   Section        0  oled.o(i.IIC_Wait_Ack)
    i.IMUupdate                              0x08002dfc   Section        0  imu.o(i.IMUupdate)
    i.LED_Init                               0x080033c8   Section        0  led.o(i.LED_Init)
    i.Led_Scan                               0x08003404   Section        0  control.o(i.Led_Scan)
    i.MOTO1_SetPulse                         0x080034e8   Section        0  qudong.o(i.MOTO1_SetPulse)
    i.MOTO2_SetPulse                         0x08003500   Section        0  qudong.o(i.MOTO2_SetPulse)
    i.MOTO3_SetPulse                         0x08003518   Section        0  qudong.o(i.MOTO3_SetPulse)
    i.MOTO4_SetPulse                         0x08003530   Section        0  qudong.o(i.MOTO4_SetPulse)
    i.MPU9250_Check                          0x08003548   Section        0  mpu9250.o(i.MPU9250_Check)
    i.MPU9250_Init                           0x080035a0   Section        0  mpu9250.o(i.MPU9250_Init)
    i.MPU9250_OffSet                         0x080035fc   Section        0  mpu9250.o(i.MPU9250_OffSet)
    i.MPU9250_Offset                         0x080036bc   Section        0  mpu9250.o(i.MPU9250_Offset)
    i.MPU9250_Read                           0x080037e0   Section        0  mpu9250.o(i.MPU9250_Read)
    i.MPU9250_ReadByte                       0x080037f4   Section        0  mpu9250.o(i.MPU9250_ReadByte)
    i.MPU9250_ReadMultBytes                  0x0800380e   Section        0  mpu9250.o(i.MPU9250_ReadMultBytes)
    i.MPU9250_WriteByte                      0x0800382c   Section        0  mpu9250.o(i.MPU9250_WriteByte)
    i.MPU9250_getDeviceID                    0x08003846   Section        0  mpu9250.o(i.MPU9250_getDeviceID)
    i.MPU9250_testConnection                 0x08003856   Section        0  mpu9250.o(i.MPU9250_testConnection)
    i.MPU_IIC_Ack                            0x08003868   Section        0  mpuiic.o(i.MPU_IIC_Ack)
    i.MPU_IIC_Init                           0x080038b8   Section        0  mpuiic.o(i.MPU_IIC_Init)
    i.MPU_IIC_NAck                           0x080038f8   Section        0  mpuiic.o(i.MPU_IIC_NAck)
    i.MPU_IIC_ReadByte                       0x08003944   Section        0  mpuiic.o(i.MPU_IIC_ReadByte)
    i.MPU_IIC_ReadByteFromSlave              0x080039b4   Section        0  mpuiic.o(i.MPU_IIC_ReadByteFromSlave)
    i.MPU_IIC_ReadMultByteFromSlave          0x080039fe   Section        0  mpuiic.o(i.MPU_IIC_ReadMultByteFromSlave)
    i.MPU_IIC_SendByte                       0x08003a70   Section        0  mpuiic.o(i.MPU_IIC_SendByte)
    i.MPU_IIC_Start                          0x08003ad4   Section        0  mpuiic.o(i.MPU_IIC_Start)
    i.MPU_IIC_Stop                           0x08003b20   Section        0  mpuiic.o(i.MPU_IIC_Stop)
    i.MPU_IIC_WaitAck                        0x08003b6c   Section        0  mpuiic.o(i.MPU_IIC_WaitAck)
    i.MPU_IIC_WriteByteToSlave               0x08003bd0   Section        0  mpuiic.o(i.MPU_IIC_WriteByteToSlave)
    i.MemManage_Handler                      0x08003c16   Section        0  stm32f10x_it.o(i.MemManage_Handler)
    i.NMI_Handler                            0x08003c1a   Section        0  stm32f10x_it.o(i.NMI_Handler)
    i.NVIC_Init                              0x08003c1c   Section        0  misc.o(i.NVIC_Init)
    i.NVIC_PriorityGroupConfig               0x08003c8c   Section        0  misc.o(i.NVIC_PriorityGroupConfig)
    i.OLED_Clear                             0x08003ca0   Section        0  oled.o(i.OLED_Clear)
    i.OLED_Clear_data                        0x08003ce0   Section        0  oled.o(i.OLED_Clear_data)
    i.OLED_Init                              0x08003d48   Section        0  oled.o(i.OLED_Init)
    i.OLED_SHOW                              0x08003e5c   Section        0  oled.o(i.OLED_SHOW)
    i.OLED_Set_Pos                           0x08004088   Section        0  oled.o(i.OLED_Set_Pos)
    i.OLED_ShowChar                          0x080040b0   Section        0  oled.o(i.OLED_ShowChar)
    i.OLED_ShowNum                           0x08004154   Section        0  oled.o(i.OLED_ShowNum)
    i.OLED_ShowString                        0x080041d0   Section        0  oled.o(i.OLED_ShowString)
    i.OLED_Showsign                          0x0800420a   Section        0  oled.o(i.OLED_Showsign)
    i.OLED_WR_Byte                           0x08004260   Section        0  oled.o(i.OLED_WR_Byte)
    i.PID_Postion_Cal                        0x08004278   Section        0  control.o(i.PID_Postion_Cal)
    i.PID_ReadFlash                          0x08004378   Section        0  paramsave.o(i.PID_ReadFlash)
    i.PID_WriteFlash                         0x080049b8   Section        0  paramsave.o(i.PID_WriteFlash)
    i.ParamsToTable                          0x080049f8   Section        0  paramsave.o(i.ParamsToTable)
    i.PidParameter_init                      0x08004c2c   Section        0  control.o(i.PidParameter_init)
    i.Pose_Control                           0x08004d60   Section        0  control.o(i.Pose_Control)
    i.Prepare_Data                           0x08004e30   Section        0  imu.o(i.Prepare_Data)
    i.QuiteSort                              0x08004f84   Section        0  filter.o(i.QuiteSort)
    i.RCC_APB1PeriphClockCmd                 0x08004fbc   Section        0  stm32f10x_rcc.o(i.RCC_APB1PeriphClockCmd)
    i.RCC_APB1PeriphResetCmd                 0x08004fdc   Section        0  stm32f10x_rcc.o(i.RCC_APB1PeriphResetCmd)
    i.RCC_APB2PeriphClockCmd                 0x08004ffc   Section        0  stm32f10x_rcc.o(i.RCC_APB2PeriphClockCmd)
    i.RCC_APB2PeriphResetCmd                 0x0800501c   Section        0  stm32f10x_rcc.o(i.RCC_APB2PeriphResetCmd)
    i.RCC_GetClocksFreq                      0x0800503c   Section        0  stm32f10x_rcc.o(i.RCC_GetClocksFreq)
    i.STMFLASH_Read                          0x08005110   Section        0  flash.o(i.STMFLASH_Read)
    i.STMFLASH_ReadWord                      0x08005130   Section        0  flash.o(i.STMFLASH_ReadWord)
    i.STMFLASH_Write                         0x08005138   Section        0  flash.o(i.STMFLASH_Write)
    i.SVC_Handler                            0x080051c0   Section        0  stm32f10x_it.o(i.SVC_Handler)
    i.Safety_Check                           0x080051c4   Section        0  control.o(i.Safety_Check)
    i.SetSysClock                            0x08005210   Section        0  system_stm32f10x.o(i.SetSysClock)
    SetSysClock                              0x08005211   Thumb Code     8  system_stm32f10x.o(i.SetSysClock)
    i.SetSysClockTo72                        0x08005218   Section        0  system_stm32f10x.o(i.SetSysClockTo72)
    SetSysClockTo72                          0x08005219   Thumb Code   214  system_stm32f10x.o(i.SetSysClockTo72)
    i.Set_Pwm                                0x080052f8   Section        0  control.o(i.Set_Pwm)
    i.SortAver_FilterXYZ                     0x08005370   Section        0  filter.o(i.SortAver_FilterXYZ)
    i.SysTick_CLKSourceConfig                0x0800548c   Section        0  misc.o(i.SysTick_CLKSourceConfig)
    i.SystemInit                             0x080054b4   Section        0  system_stm32f10x.o(i.SystemInit)
    i.TI1_Config                             0x08005514   Section        0  stm32f10x_tim.o(i.TI1_Config)
    TI1_Config                               0x08005515   Thumb Code   108  stm32f10x_tim.o(i.TI1_Config)
    i.TI2_Config                             0x08005594   Section        0  stm32f10x_tim.o(i.TI2_Config)
    TI2_Config                               0x08005595   Thumb Code   130  stm32f10x_tim.o(i.TI2_Config)
    i.TI3_Config                             0x0800562c   Section        0  stm32f10x_tim.o(i.TI3_Config)
    TI3_Config                               0x0800562d   Thumb Code   122  stm32f10x_tim.o(i.TI3_Config)
    i.TI4_Config                             0x080056bc   Section        0  stm32f10x_tim.o(i.TI4_Config)
    TI4_Config                               0x080056bd   Thumb Code   130  stm32f10x_tim.o(i.TI4_Config)
    i.TIM1_Int_Init                          0x08005754   Section        0  timer.o(i.TIM1_Int_Init)
    i.TIM2_IRQHandler                        0x08005838   Section        0  timer.o(i.TIM2_IRQHandler)
    i.TIM2_Int_Init                          0x08005b14   Section        0  timer.o(i.TIM2_Int_Init)
    i.TIM3_IRQHandler                        0x08005c34   Section        0  timer.o(i.TIM3_IRQHandler)
    i.TIM3_Int_Init                          0x08005c44   Section        0  timer.o(i.TIM3_Int_Init)
    i.TIM4_IRQHandler                        0x08005d08   Section        0  timer.o(i.TIM4_IRQHandler)
    i.TIM4_Int_Init                          0x08005dd0   Section        0  timer.o(i.TIM4_Int_Init)
    i.TIMX_Int_Init                          0x08005e2c   Section        0  timer.o(i.TIMX_Int_Init)
    i.TIM_ARRPreloadConfig                   0x08005e72   Section        0  stm32f10x_tim.o(i.TIM_ARRPreloadConfig)
    i.TIM_ClearITPendingBit                  0x08005e8a   Section        0  stm32f10x_tim.o(i.TIM_ClearITPendingBit)
    i.TIM_Cmd                                0x08005e90   Section        0  stm32f10x_tim.o(i.TIM_Cmd)
    i.TIM_CtrlPWMOutputs                     0x08005ea8   Section        0  stm32f10x_tim.o(i.TIM_CtrlPWMOutputs)
    i.TIM_GetCapture1                        0x08005ec6   Section        0  stm32f10x_tim.o(i.TIM_GetCapture1)
    i.TIM_GetCapture2                        0x08005ecc   Section        0  stm32f10x_tim.o(i.TIM_GetCapture2)
    i.TIM_GetCapture3                        0x08005ed2   Section        0  stm32f10x_tim.o(i.TIM_GetCapture3)
    i.TIM_GetCapture4                        0x08005ed8   Section        0  stm32f10x_tim.o(i.TIM_GetCapture4)
    i.TIM_GetITStatus                        0x08005ee0   Section        0  stm32f10x_tim.o(i.TIM_GetITStatus)
    i.TIM_ICInit                             0x08005f04   Section        0  stm32f10x_tim.o(i.TIM_ICInit)
    i.TIM_ITConfig                           0x08005fb0   Section        0  stm32f10x_tim.o(i.TIM_ITConfig)
    i.TIM_OC1Init                            0x08005fc4   Section        0  stm32f10x_tim.o(i.TIM_OC1Init)
    i.TIM_OC1PolarityConfig                  0x0800605c   Section        0  stm32f10x_tim.o(i.TIM_OC1PolarityConfig)
    i.TIM_OC1PreloadConfig                   0x0800606e   Section        0  stm32f10x_tim.o(i.TIM_OC1PreloadConfig)
    i.TIM_OC2Init                            0x08006080   Section        0  stm32f10x_tim.o(i.TIM_OC2Init)
    i.TIM_OC2PolarityConfig                  0x08006124   Section        0  stm32f10x_tim.o(i.TIM_OC2PolarityConfig)
    i.TIM_OC2PreloadConfig                   0x0800613e   Section        0  stm32f10x_tim.o(i.TIM_OC2PreloadConfig)
    i.TIM_OC3Init                            0x08006158   Section        0  stm32f10x_tim.o(i.TIM_OC3Init)
    i.TIM_OC3PolarityConfig                  0x080061f8   Section        0  stm32f10x_tim.o(i.TIM_OC3PolarityConfig)
    i.TIM_OC3PreloadConfig                   0x08006212   Section        0  stm32f10x_tim.o(i.TIM_OC3PreloadConfig)
    i.TIM_OC4Init                            0x08006224   Section        0  stm32f10x_tim.o(i.TIM_OC4Init)
    i.TIM_OC4PolarityConfig                  0x080062a0   Section        0  stm32f10x_tim.o(i.TIM_OC4PolarityConfig)
    i.TIM_OC4PreloadConfig                   0x080062ba   Section        0  stm32f10x_tim.o(i.TIM_OC4PreloadConfig)
    i.TIM_SetCompare1                        0x080062d4   Section        0  stm32f10x_tim.o(i.TIM_SetCompare1)
    i.TIM_SetCompare2                        0x080062d8   Section        0  stm32f10x_tim.o(i.TIM_SetCompare2)
    i.TIM_SetCompare3                        0x080062dc   Section        0  stm32f10x_tim.o(i.TIM_SetCompare3)
    i.TIM_SetCompare4                        0x080062e0   Section        0  stm32f10x_tim.o(i.TIM_SetCompare4)
    i.TIM_SetCounter                         0x080062e6   Section        0  stm32f10x_tim.o(i.TIM_SetCounter)
    i.TIM_SetIC1Prescaler                    0x080062ea   Section        0  stm32f10x_tim.o(i.TIM_SetIC1Prescaler)
    i.TIM_SetIC2Prescaler                    0x080062fc   Section        0  stm32f10x_tim.o(i.TIM_SetIC2Prescaler)
    i.TIM_SetIC3Prescaler                    0x08006316   Section        0  stm32f10x_tim.o(i.TIM_SetIC3Prescaler)
    i.TIM_SetIC4Prescaler                    0x08006328   Section        0  stm32f10x_tim.o(i.TIM_SetIC4Prescaler)
    i.TIM_TimeBaseInit                       0x08006344   Section        0  stm32f10x_tim.o(i.TIM_TimeBaseInit)
    i.TableToParams                          0x080063e8   Section        0  paramsave.o(i.TableToParams)
    i.USART1_IRQHandler                      0x08006628   Section        0  usart1.o(i.USART1_IRQHandler)
    i.USART1_Init                            0x080066b0   Section        0  usart1.o(i.USART1_Init)
    i.USART2_IRQHandler                      0x08006750   Section        0  usart2.o(i.USART2_IRQHandler)
    i.USART2_Init                            0x080067d8   Section        0  usart2.o(i.USART2_Init)
    i.USART3_IRQHandler                      0x08006894   Section        0  usart3.o(i.USART3_IRQHandler)
    i.USART3_Init                            0x080068f0   Section        0  usart3.o(i.USART3_Init)
    i.USARTX_Init                            0x080069a8   Section        0  usart1.o(i.USARTX_Init)
    i.USART_ClearFlag                        0x080069da   Section        0  stm32f10x_usart.o(i.USART_ClearFlag)
    i.USART_ClearITPendingBit                0x080069ec   Section        0  stm32f10x_usart.o(i.USART_ClearITPendingBit)
    i.USART_Cmd                              0x08006a0a   Section        0  stm32f10x_usart.o(i.USART_Cmd)
    i.USART_DeInit                           0x08006a24   Section        0  stm32f10x_usart.o(i.USART_DeInit)
    i.USART_GetFlagStatus                    0x08006ac0   Section        0  stm32f10x_usart.o(i.USART_GetFlagStatus)
    i.USART_GetITStatus                      0x08006ada   Section        0  stm32f10x_usart.o(i.USART_GetITStatus)
    i.USART_ITConfig                         0x08006b2e   Section        0  stm32f10x_usart.o(i.USART_ITConfig)
    i.USART_Init                             0x08006b78   Section        0  stm32f10x_usart.o(i.USART_Init)
    i.USART_ReceiveData                      0x08006c50   Section        0  stm32f10x_usart.o(i.USART_ReceiveData)
    i.USART_SendData                         0x08006c5a   Section        0  stm32f10x_usart.o(i.USART_SendData)
    i.UsageFault_Handler                     0x08006c62   Section        0  stm32f10x_it.o(i.UsageFault_Handler)
    i.Write_IIC_Byte                         0x08006c68   Section        0  oled.o(i.Write_IIC_Byte)
    i.Write_IIC_Command                      0x08006cbc   Section        0  oled.o(i.Write_IIC_Command)
    i.Write_IIC_Data                         0x08006ce8   Section        0  oled.o(i.Write_IIC_Data)
    i.__0vsprintf                            0x08006d14   Section        0  printfa.o(i.__0vsprintf)
    i.__ARM_fpclassify                       0x08006d38   Section        0  fpclassify.o(i.__ARM_fpclassify)
    i.__kernel_poly                          0x08006d60   Section        0  poly.o(i.__kernel_poly)
    i.__mathlib_dbl_infnan                   0x08006e0a   Section        0  dunder.o(i.__mathlib_dbl_infnan)
    i.__mathlib_dbl_infnan2                  0x08006e10   Section        0  dunder.o(i.__mathlib_dbl_infnan2)
    i.__mathlib_dbl_invalid                  0x08006e14   Section        0  dunder.o(i.__mathlib_dbl_invalid)
    i.__mathlib_dbl_underflow                0x08006e20   Section        0  dunder.o(i.__mathlib_dbl_underflow)
    i.__scatterload_copy                     0x08006e30   Section       14  handlers.o(i.__scatterload_copy)
    i.__scatterload_null                     0x08006e3e   Section        2  handlers.o(i.__scatterload_null)
    i.__scatterload_zeroinit                 0x08006e40   Section       14  handlers.o(i.__scatterload_zeroinit)
    i.__set_errno                            0x08006e50   Section        0  errno.o(i.__set_errno)
    i._fp_digits                             0x08006e5c   Section        0  printfa.o(i._fp_digits)
    _fp_digits                               0x08006e5d   Thumb Code   366  printfa.o(i._fp_digits)
    i._printf_core                           0x08006fe0   Section        0  printfa.o(i._printf_core)
    _printf_core                             0x08006fe1   Thumb Code  1744  printfa.o(i._printf_core)
    i._printf_post_padding                   0x080076bc   Section        0  printfa.o(i._printf_post_padding)
    _printf_post_padding                     0x080076bd   Thumb Code    36  printfa.o(i._printf_post_padding)
    i._printf_pre_padding                    0x080076e0   Section        0  printfa.o(i._printf_pre_padding)
    _printf_pre_padding                      0x080076e1   Thumb Code    46  printfa.o(i._printf_pre_padding)
    i._sputc                                 0x0800770e   Section        0  printfa.o(i._sputc)
    _sputc                                   0x0800770f   Thumb Code    10  printfa.o(i._sputc)
    i.abs_limit                              0x08007718   Section        0  control.o(i.abs_limit)
    i.asin                                   0x08007740   Section        0  asin.o(i.asin)
    i.atan                                   0x080079b0   Section        0  atan.o(i.atan)
    i.atan2                                  0x08007bd0   Section        0  atan2.o(i.atan2)
    i.data_fittle                            0x08007d50   Section        0  bmp280.o(i.data_fittle)
    i.delay_init                             0x08007db0   Section        0  delay.o(i.delay_init)
    i.delay_ms                               0x08007df4   Section        0  delay.o(i.delay_ms)
    i.delay_us                               0x08007e40   Section        0  delay.o(i.delay_us)
    i.invSqrt                                0x08007e8c   Section        0  imu.o(i.invSqrt)
    invSqrt                                  0x08007e8d   Thumb Code    72  imu.o(i.invSqrt)
    i.main                                   0x08007ed8   Section        0  main.o(i.main)
    i.oled_pow                               0x080080f8   Section        0  oled.o(i.oled_pow)
    i.sqrt                                   0x0800810e   Section        0  sqrt.o(i.sqrt)
    i.u3_printf                              0x0800815c   Section        0  usart3.o(i.u3_printf)
    .constdata                               0x080081ac   Section    12504  oled.o(.constdata)
    .constdata                               0x0800b288   Section       80  asin.o(.constdata)
    pS                                       0x0800b288   Data          48  asin.o(.constdata)
    qS                                       0x0800b2b8   Data          32  asin.o(.constdata)
    .constdata                               0x0800b2d8   Section      152  atan.o(.constdata)
    atanhi                                   0x0800b2d8   Data          32  atan.o(.constdata)
    atanlo                                   0x0800b2f8   Data          32  atan.o(.constdata)
    aTodd                                    0x0800b318   Data          40  atan.o(.constdata)
    aTeven                                   0x0800b340   Data          48  atan.o(.constdata)
    .constdata                               0x0800b370   Section        8  qnan.o(.constdata)
    .data                                    0x20000000   Section       20  system_stm32f10x.o(.data)
    .data                                    0x20000014   Section       20  stm32f10x_rcc.o(.data)
    APBAHBPrescTable                         0x20000014   Data          16  stm32f10x_rcc.o(.data)
    ADCPrescTable                            0x20000024   Data           4  stm32f10x_rcc.o(.data)
    .data                                    0x20000028   Section       14  filter.o(.data)
    cnt                                      0x20000028   Data           1  filter.o(.data)
    flag                                     0x20000029   Data           1  filter.o(.data)
    cnt                                      0x2000002a   Data           1  filter.o(.data)
    flag                                     0x2000002b   Data           1  filter.o(.data)
    cnt                                      0x2000002c   Data           1  filter.o(.data)
    flag                                     0x2000002d   Data           1  filter.o(.data)
    cnt                                      0x2000002e   Data           1  filter.o(.data)
    flag                                     0x2000002f   Data           1  filter.o(.data)
    cnt                                      0x20000030   Data           1  filter.o(.data)
    flag                                     0x20000031   Data           1  filter.o(.data)
    cnt                                      0x20000032   Data           1  filter.o(.data)
    flag                                     0x20000033   Data           1  filter.o(.data)
    cnt                                      0x20000034   Data           1  filter.o(.data)
    flag                                     0x20000035   Data           1  filter.o(.data)
    .data                                    0x20000036   Section        4  delay.o(.data)
    fac_us                                   0x20000036   Data           1  delay.o(.data)
    fac_ms                                   0x20000038   Data           2  delay.o(.data)
    .data                                    0x2000003c   Section       24  control.o(.data)
    timer                                    0x2000003c   Data           1  control.o(.data)
    data_buffer                              0x2000003e   Data           8  control.o(.data)
    i                                        0x20000046   Data           1  control.o(.data)
    Power                                    0x20000048   Data           4  control.o(.data)
    i                                        0x2000004c   Data           1  control.o(.data)
    led0_time0                               0x2000004e   Data           2  control.o(.data)
    led0_time1                               0x20000050   Data           2  control.o(.data)
    led_flage                                0x20000052   Data           2  control.o(.data)
    .data                                    0x20000054   Section        4  bmp280.o(.data)
    last_data                                0x20000054   Data           4  bmp280.o(.data)
    .data                                    0x20000058   Section       46  mpu9250.o(.data)
    tempgx                                   0x20000078   Data           4  mpu9250.o(.data)
    tempgy                                   0x2000007c   Data           4  mpu9250.o(.data)
    tempgz                                   0x20000080   Data           4  mpu9250.o(.data)
    cnt_a                                    0x20000084   Data           2  mpu9250.o(.data)
    .data                                    0x20000086   Section       16  timer.o(.data)
    time_2ms                                 0x20000092   Data           1  timer.o(.data)
    time_5ms                                 0x20000093   Data           1  timer.o(.data)
    time_10ms                                0x20000094   Data           1  timer.o(.data)
    time_100ms                               0x20000095   Data           1  timer.o(.data)
    .data                                    0x20000098   Section        6  usart1.o(.data)
    .data                                    0x2000009e   Section        2  usart2.o(.data)
    .data                                    0x200000a0   Section        8  usart3.o(.data)
    .data                                    0x200000a8   Section        9  serial_oscilloscope.o(.data)
    status_cnt                               0x200000a8   Data           1  serial_oscilloscope.o(.data)
    senser_cnt                               0x200000a9   Data           1  serial_oscilloscope.o(.data)
    rcdata_cnt                               0x200000aa   Data           1  serial_oscilloscope.o(.data)
    motopwm_cnt                              0x200000ab   Data           1  serial_oscilloscope.o(.data)
    power_cnt                                0x200000ac   Data           1  serial_oscilloscope.o(.data)
    i                                        0x200000ad   Data           1  serial_oscilloscope.o(.data)
    _data_len                                0x200000ae   Data           1  serial_oscilloscope.o(.data)
    _data_cnt                                0x200000af   Data           1  serial_oscilloscope.o(.data)
    state                                    0x200000b0   Data           1  serial_oscilloscope.o(.data)
    .data                                    0x200000b4   Section       33  imu.o(.data)
    IIR_mode                                 0x200000d4   Data           1  imu.o(.data)
    .data                                    0x200000d8   Section        4  errno.o(.data)
    _errno                                   0x200000d8   Data           4  errno.o(.data)
    .bss                                     0x200000dc   Section     1280  filter.o(.bss)
    buf                                      0x200000dc   Data          80  filter.o(.bss)
    buf                                      0x2000012c   Data          80  filter.o(.bss)
    bufx                                     0x2000017c   Data          80  filter.o(.bss)
    bufy                                     0x200001cc   Data          80  filter.o(.bss)
    bufz                                     0x2000021c   Data          80  filter.o(.bss)
    bufax                                    0x2000026c   Data          80  filter.o(.bss)
    bufay                                    0x200002bc   Data          80  filter.o(.bss)
    bufaz                                    0x2000030c   Data          80  filter.o(.bss)
    bufgx                                    0x2000035c   Data          80  filter.o(.bss)
    bufgy                                    0x200003ac   Data          80  filter.o(.bss)
    bufgz                                    0x200003fc   Data          80  filter.o(.bss)
    bufax                                    0x2000044c   Data          80  filter.o(.bss)
    bufay                                    0x2000049c   Data          80  filter.o(.bss)
    bufaz                                    0x200004ec   Data          80  filter.o(.bss)
    buf                                      0x2000053c   Data          80  filter.o(.bss)
    buf                                      0x2000058c   Data          80  filter.o(.bss)
    .bss                                     0x200005dc   Section      868  control.o(.bss)
    temp                                     0x20000930   Data          16  control.o(.bss)
    .bss                                     0x20000940   Section       32  bmp280.o(.bss)
    p_bmp280                                 0x20000940   Data          32  bmp280.o(.bss)
    .bss                                     0x20000960   Section       14  mpu9250.o(.bss)
    MPU9250_buff                             0x20000960   Data          14  mpu9250.o(.bss)
    .bss                                     0x2000096e   Section      200  usart1.o(.bss)
    .bss                                     0x20000a36   Section      400  usart2.o(.bss)
    .bss                                     0x20000bc6   Section      256  usart3.o(.bss)
    .bss                                     0x20000cc6   Section      113  serial_oscilloscope.o(.bss)
    RxBuffer                                 0x20000d05   Data          50  serial_oscilloscope.o(.bss)
    .bss                                     0x20000d38   Section       60  paramsave.o(.bss)
    .bss                                     0x20000d74   Section       12  imu.o(.bss)
    STACK                                    0x20000d80   Section     1024  startup_stm32f10x_md.o(STACK)

    Global Symbols

    Symbol Name                              Value     Ov Type        Size  Object(Section)

    BuildAttributes$$THM_ISAv4$P$D$K$B$S$PE$A:L22UL41UL21$X:L11$S22US41US21$IEEE1$IW$USESV6$~STKCKD$USESV7$~SHL$OTIME$ROPI$IEEEX$EBA8$MICROLIB$REQ8$PRES8$EABIv2 0x00000000   Number         0  anon$$obj.o ABSOLUTE
    __ARM_use_no_argv                        0x00000000   Number         0  main.o ABSOLUTE
    __use_no_errno                           0x00000000   Number         0  useno.o ABSOLUTE
    __use_no_exception_handling              0x00000000   Number         0  useno.o ABSOLUTE
    __use_no_fp                              0x00000000   Number         0  useno.o ABSOLUTE
    __use_no_heap                            0x00000000   Number         0  useno.o ABSOLUTE
    __use_no_heap_region                     0x00000000   Number         0  useno.o ABSOLUTE
    __use_no_semihosting                     0x00000000   Number         0  useno.o ABSOLUTE
    __use_no_semihosting_swi                 0x00000000   Number         0  useno.o ABSOLUTE
    __use_no_signal_handling                 0x00000000   Number         0  useno.o ABSOLUTE
    __cpp_initialize__aeabi_                  - Undefined Weak Reference
    __cxa_finalize                            - Undefined Weak Reference
    __decompress                              - Undefined Weak Reference
    _clock_init                               - Undefined Weak Reference
    _microlib_exit                            - Undefined Weak Reference
    __Vectors_Size                           0x000000ec   Number         0  startup_stm32f10x_md.o ABSOLUTE
    __Vectors                                0x08000000   Data           4  startup_stm32f10x_md.o(RESET)
    __Vectors_End                            0x080000ec   Data           0  startup_stm32f10x_md.o(RESET)
    __main                                   0x080000ed   Thumb Code     0  entry.o(.ARM.Collect$$$$00000000)
    _main_stk                                0x080000ed   Thumb Code     0  entry2.o(.ARM.Collect$$$$00000001)
    _main_scatterload                        0x080000f1   Thumb Code     0  entry5.o(.ARM.Collect$$$$00000004)
    __main_after_scatterload                 0x080000f5   Thumb Code     0  entry5.o(.ARM.Collect$$$$00000004)
    _main_clock                              0x080000f5   Thumb Code     0  entry7b.o(.ARM.Collect$$$$00000008)
    _main_cpp_init                           0x080000f5   Thumb Code     0  entry8b.o(.ARM.Collect$$$$0000000A)
    _main_init                               0x080000f5   Thumb Code     0  entry9a.o(.ARM.Collect$$$$0000000B)
    __rt_final_cpp                           0x080000fd   Thumb Code     0  entry10a.o(.ARM.Collect$$$$0000000D)
    __rt_final_exit                          0x080000fd   Thumb Code     0  entry11a.o(.ARM.Collect$$$$0000000F)
    Reset_Handler                            0x08000101   Thumb Code     8  startup_stm32f10x_md.o(.text)
    PendSV_Handler                           0x08000117   Thumb Code     2  startup_stm32f10x_md.o(.text)
    SysTick_Handler                          0x08000119   Thumb Code     2  startup_stm32f10x_md.o(.text)
    ADC1_2_IRQHandler                        0x0800011b   Thumb Code     0  startup_stm32f10x_md.o(.text)
    CAN1_RX1_IRQHandler                      0x0800011b   Thumb Code     0  startup_stm32f10x_md.o(.text)
    CAN1_SCE_IRQHandler                      0x0800011b   Thumb Code     0  startup_stm32f10x_md.o(.text)
    DMA1_Channel1_IRQHandler                 0x0800011b   Thumb Code     0  startup_stm32f10x_md.o(.text)
    DMA1_Channel2_IRQHandler                 0x0800011b   Thumb Code     0  startup_stm32f10x_md.o(.text)
    DMA1_Channel3_IRQHandler                 0x0800011b   Thumb Code     0  startup_stm32f10x_md.o(.text)
    DMA1_Channel4_IRQHandler                 0x0800011b   Thumb Code     0  startup_stm32f10x_md.o(.text)
    DMA1_Channel5_IRQHandler                 0x0800011b   Thumb Code     0  startup_stm32f10x_md.o(.text)
    DMA1_Channel6_IRQHandler                 0x0800011b   Thumb Code     0  startup_stm32f10x_md.o(.text)
    DMA1_Channel7_IRQHandler                 0x0800011b   Thumb Code     0  startup_stm32f10x_md.o(.text)
    EXTI0_IRQHandler                         0x0800011b   Thumb Code     0  startup_stm32f10x_md.o(.text)
    EXTI15_10_IRQHandler                     0x0800011b   Thumb Code     0  startup_stm32f10x_md.o(.text)
    EXTI1_IRQHandler                         0x0800011b   Thumb Code     0  startup_stm32f10x_md.o(.text)
    EXTI2_IRQHandler                         0x0800011b   Thumb Code     0  startup_stm32f10x_md.o(.text)
    EXTI3_IRQHandler                         0x0800011b   Thumb Code     0  startup_stm32f10x_md.o(.text)
    EXTI4_IRQHandler                         0x0800011b   Thumb Code     0  startup_stm32f10x_md.o(.text)
    EXTI9_5_IRQHandler                       0x0800011b   Thumb Code     0  startup_stm32f10x_md.o(.text)
    FLASH_IRQHandler                         0x0800011b   Thumb Code     0  startup_stm32f10x_md.o(.text)
    I2C1_ER_IRQHandler                       0x0800011b   Thumb Code     0  startup_stm32f10x_md.o(.text)
    I2C1_EV_IRQHandler                       0x0800011b   Thumb Code     0  startup_stm32f10x_md.o(.text)
    I2C2_ER_IRQHandler                       0x0800011b   Thumb Code     0  startup_stm32f10x_md.o(.text)
    I2C2_EV_IRQHandler                       0x0800011b   Thumb Code     0  startup_stm32f10x_md.o(.text)
    PVD_IRQHandler                           0x0800011b   Thumb Code     0  startup_stm32f10x_md.o(.text)
    RCC_IRQHandler                           0x0800011b   Thumb Code     0  startup_stm32f10x_md.o(.text)
    RTCAlarm_IRQHandler                      0x0800011b   Thumb Code     0  startup_stm32f10x_md.o(.text)
    RTC_IRQHandler                           0x0800011b   Thumb Code     0  startup_stm32f10x_md.o(.text)
    SPI1_IRQHandler                          0x0800011b   Thumb Code     0  startup_stm32f10x_md.o(.text)
    SPI2_IRQHandler                          0x0800011b   Thumb Code     0  startup_stm32f10x_md.o(.text)
    TAMPER_IRQHandler                        0x0800011b   Thumb Code     0  startup_stm32f10x_md.o(.text)
    TIM1_BRK_IRQHandler                      0x0800011b   Thumb Code     0  startup_stm32f10x_md.o(.text)
    TIM1_CC_IRQHandler                       0x0800011b   Thumb Code     0  startup_stm32f10x_md.o(.text)
    TIM1_TRG_COM_IRQHandler                  0x0800011b   Thumb Code     0  startup_stm32f10x_md.o(.text)
    TIM1_UP_IRQHandler                       0x0800011b   Thumb Code     0  startup_stm32f10x_md.o(.text)
    USBWakeUp_IRQHandler                     0x0800011b   Thumb Code     0  startup_stm32f10x_md.o(.text)
    USB_HP_CAN1_TX_IRQHandler                0x0800011b   Thumb Code     0  startup_stm32f10x_md.o(.text)
    USB_LP_CAN1_RX0_IRQHandler               0x0800011b   Thumb Code     0  startup_stm32f10x_md.o(.text)
    WWDG_IRQHandler                          0x0800011b   Thumb Code     0  startup_stm32f10x_md.o(.text)
    __aeabi_memset                           0x08000125   Thumb Code    14  memseta.o(.text)
    __aeabi_memset4                          0x08000125   Thumb Code     0  memseta.o(.text)
    __aeabi_memset8                          0x08000125   Thumb Code     0  memseta.o(.text)
    __aeabi_memclr                           0x08000133   Thumb Code     4  memseta.o(.text)
    __aeabi_memclr4                          0x08000133   Thumb Code     0  memseta.o(.text)
    __aeabi_memclr8                          0x08000133   Thumb Code     0  memseta.o(.text)
    _memset$wrapper                          0x08000137   Thumb Code    18  memseta.o(.text)
    strlen                                   0x08000149   Thumb Code    14  strlen.o(.text)
    __aeabi_fadd                             0x08000157   Thumb Code   164  fadd.o(.text)
    __aeabi_fsub                             0x080001fb   Thumb Code     6  fadd.o(.text)
    __aeabi_frsub                            0x08000201   Thumb Code     6  fadd.o(.text)
    __aeabi_fmul                             0x08000207   Thumb Code   100  fmul.o(.text)
    __aeabi_fdiv                             0x0800026b   Thumb Code   124  fdiv.o(.text)
    __aeabi_dadd                             0x080002e7   Thumb Code   322  dadd.o(.text)
    __aeabi_dsub                             0x08000429   Thumb Code     6  dadd.o(.text)
    __aeabi_drsub                            0x0800042f   Thumb Code     6  dadd.o(.text)
    __aeabi_dmul                             0x08000435   Thumb Code   228  dmul.o(.text)
    __aeabi_i2f                              0x08000519   Thumb Code    18  fflti.o(.text)
    __aeabi_ui2f                             0x0800052b   Thumb Code    10  ffltui.o(.text)
    __aeabi_i2d                              0x08000535   Thumb Code    34  dflti.o(.text)
    __aeabi_ui2d                             0x08000557   Thumb Code    26  dfltui.o(.text)
    __aeabi_f2iz                             0x08000571   Thumb Code    50  ffixi.o(.text)
    __aeabi_f2uiz                            0x080005a3   Thumb Code    40  ffixui.o(.text)
    __aeabi_d2uiz                            0x080005cb   Thumb Code    50  dfixui.o(.text)
    __aeabi_f2d                              0x080005fd   Thumb Code    38  f2d.o(.text)
    __aeabi_cdcmpeq                          0x08000625   Thumb Code     0  cdcmple.o(.text)
    __aeabi_cdcmple                          0x08000625   Thumb Code    48  cdcmple.o(.text)
    __aeabi_cdrcmple                         0x08000655   Thumb Code    48  cdrcmple.o(.text)
    __aeabi_d2f                              0x08000685   Thumb Code    56  d2f.o(.text)
    __aeabi_cfcmpeq                          0x080006bd   Thumb Code     0  cfcmple.o(.text)
    __aeabi_cfcmple                          0x080006bd   Thumb Code    20  cfcmple.o(.text)
    __aeabi_cfrcmple                         0x080006d1   Thumb Code    20  cfrcmple.o(.text)
    __aeabi_uidiv                            0x080006e5   Thumb Code     0  uidiv.o(.text)
    __aeabi_uidivmod                         0x080006e5   Thumb Code    44  uidiv.o(.text)
    __aeabi_uldivmod                         0x08000711   Thumb Code    98  uldiv.o(.text)
    __aeabi_llsl                             0x08000773   Thumb Code    30  llshl.o(.text)
    _ll_shift_l                              0x08000773   Thumb Code     0  llshl.o(.text)
    __aeabi_llsr                             0x08000791   Thumb Code    32  llushr.o(.text)
    _ll_ushift_r                             0x08000791   Thumb Code     0  llushr.o(.text)
    __aeabi_lasr                             0x080007b1   Thumb Code    36  llsshr.o(.text)
    _ll_sshift_r                             0x080007b1   Thumb Code     0  llsshr.o(.text)
    __I$use$fp                               0x080007d5   Thumb Code     0  iusefp.o(.text)
    _float_round                             0x080007d5   Thumb Code    18  fepilogue.o(.text)
    _float_epilogue                          0x080007e7   Thumb Code    92  fepilogue.o(.text)
    _double_round                            0x08000843   Thumb Code    30  depilogue.o(.text)
    _double_epilogue                         0x08000861   Thumb Code   156  depilogue.o(.text)
    __aeabi_ddiv                             0x080008fd   Thumb Code   222  ddiv.o(.text)
    __ARM_scalbn                             0x080009db   Thumb Code    46  dscalb.o(.text)
    scalbn                                   0x080009db   Thumb Code     0  dscalb.o(.text)
    __aeabi_d2ulz                            0x08000a09   Thumb Code    48  dfixul.o(.text)
    __scatterload                            0x08000a39   Thumb Code    28  init.o(.text)
    __scatterload_rt2                        0x08000a39   Thumb Code     0  init.o(.text)
    _dsqrt                                   0x08000a5d   Thumb Code   162  dsqrt.o(.text)
    ANO_DT_Data_Exchange                     0x08000b01   Thumb Code  1084  serial_oscilloscope.o(i.ANO_DT_Data_Exchange)
    ANO_DT_Data_Receive_Anl                  0x08000f41   Thumb Code  1336  serial_oscilloscope.o(i.ANO_DT_Data_Receive_Anl)
    ANO_DT_Data_Receive_Prepare              0x08001481   Thumb Code   216  serial_oscilloscope.o(i.ANO_DT_Data_Receive_Prepare)
    ANO_DT_Send_Data                         0x080015b5   Thumb Code    60  serial_oscilloscope.o(i.ANO_DT_Send_Data)
    ANO_DT_Send_MotoPWM                      0x080015f9   Thumb Code   294  serial_oscilloscope.o(i.ANO_DT_Send_MotoPWM)
    ANO_DT_Send_PID                          0x08001725   Thumb Code   514  serial_oscilloscope.o(i.ANO_DT_Send_PID)
    ANO_DT_Send_RCData                       0x08001931   Thumb Code   350  serial_oscilloscope.o(i.ANO_DT_Send_RCData)
    ANO_DT_Send_Senser                       0x08001a95   Thumb Code   374  serial_oscilloscope.o(i.ANO_DT_Send_Senser)
    ANO_DT_Send_Status                       0x08001c11   Thumb Code   318  serial_oscilloscope.o(i.ANO_DT_Send_Status)
    BMP280_CalibParam                        0x08001d59   Thumb Code   246  bmp280.o(i.BMP280_CalibParam)
    BMP280_Chack                             0x08001e55   Thumb Code    68  bmp280.o(i.BMP280_Chack)
    BMP280_CompensatePressureInt32           0x08001e9d   Thumb Code   198  bmp280.o(i.BMP280_CompensatePressureInt32)
    BMP280_CompensateTemperatureInt32        0x08001f69   Thumb Code    72  bmp280.o(i.BMP280_CompensateTemperatureInt32)
    BMP280_Init                              0x08001fb5   Thumb Code    66  bmp280.o(i.BMP280_Init)
    BMP280_ReadPressureTemperature           0x08001ff7   Thumb Code    52  bmp280.o(i.BMP280_ReadPressureTemperature)
    BMP280_ReadUncompPressureTemperature     0x0800202b   Thumb Code    80  bmp280.o(i.BMP280_ReadUncompPressureTemperature)
    BMP280_Read_Byte                         0x0800207b   Thumb Code    72  bmp280.o(i.BMP280_Read_Byte)
    BMP280_Read_Len                          0x080020c3   Thumb Code   116  bmp280.o(i.BMP280_Read_Len)
    BMP280_SetPowerMode                      0x08002139   Thumb Code    50  bmp280.o(i.BMP280_SetPowerMode)
    BMP280_SetStandbyDurn                    0x08002171   Thumb Code    36  bmp280.o(i.BMP280_SetStandbyDurn)
    BMP280_SetWorkMode                       0x08002195   Thumb Code   140  bmp280.o(i.BMP280_SetWorkMode)
    BMP280_Write_Byte                        0x08002225   Thumb Code    76  bmp280.o(i.BMP280_Write_Byte)
    BMPIIC_Ack                               0x08002271   Thumb Code    66  bmpiic.o(i.BMPIIC_Ack)
    BMPIIC_Init                              0x080022c1   Thumb Code    52  bmpiic.o(i.BMPIIC_Init)
    BMPIIC_NAck                              0x08002301   Thumb Code    66  bmpiic.o(i.BMPIIC_NAck)
    BMPIIC_Read_Byte                         0x08002351   Thumb Code    98  bmpiic.o(i.BMPIIC_Read_Byte)
    BMPIIC_Send_Byte                         0x080023c1   Thumb Code    90  bmpiic.o(i.BMPIIC_Send_Byte)
    BMPIIC_Start                             0x08002429   Thumb Code    64  bmpiic.o(i.BMPIIC_Start)
    BMPIIC_Stop                              0x08002475   Thumb Code    62  bmpiic.o(i.BMPIIC_Stop)
    BMPIIC_Wait_Ack                          0x080024c1   Thumb Code    86  bmpiic.o(i.BMPIIC_Wait_Ack)
    BusFault_Handler                         0x08002525   Thumb Code     4  stm32f10x_it.o(i.BusFault_Handler)
    Control                                  0x08002529   Thumb Code   572  control.o(i.Control)
    Deal_Remote_date                         0x08002775   Thumb Code   192  control.o(i.Deal_Remote_date)
    DebugMon_Handler                         0x0800283d   Thumb Code     2  stm32f10x_it.o(i.DebugMon_Handler)
    DefaultParams                            0x08002841   Thumb Code   112  paramsave.o(i.DefaultParams)
    DefaultParams_WriteFlash                 0x080028b5   Thumb Code    50  paramsave.o(i.DefaultParams_WriteFlash)
    FLASH_ErasePage                          0x080028f1   Thumb Code    72  stm32f10x_flash.o(i.FLASH_ErasePage)
    FLASH_GetBank1Status                     0x0800293d   Thumb Code    48  stm32f10x_flash.o(i.FLASH_GetBank1Status)
    FLASH_Lock                               0x08002971   Thumb Code    14  stm32f10x_flash.o(i.FLASH_Lock)
    FLASH_ProgramWord                        0x08002985   Thumb Code   102  stm32f10x_flash.o(i.FLASH_ProgramWord)
    FLASH_Unlock                             0x080029f1   Thumb Code    12  stm32f10x_flash.o(i.FLASH_Unlock)
    FLASH_WaitForLastOperation               0x08002a09   Thumb Code    38  stm32f10x_flash.o(i.FLASH_WaitForLastOperation)
    FLY_Start                                0x08002a31   Thumb Code    78  control.o(i.FLY_Start)
    FindPos                                  0x08002a8d   Thumb Code    90  filter.o(i.FindPos)
    GPIO_Init                                0x08002ae7   Thumb Code   278  stm32f10x_gpio.o(i.GPIO_Init)
    GPIO_ResetBits                           0x08002bfd   Thumb Code     4  stm32f10x_gpio.o(i.GPIO_ResetBits)
    GPIO_SetBits                             0x08002c01   Thumb Code     4  stm32f10x_gpio.o(i.GPIO_SetBits)
    Get_Press_temp                           0x08002c05   Thumb Code    16  control.o(i.Get_Press_temp)
    Get_Receive_PWM                          0x08002c15   Thumb Code   254  control.o(i.Get_Receive_PWM)
    HardFault_Handler                        0x08002d3d   Thumb Code     4  stm32f10x_it.o(i.HardFault_Handler)
    High_Control                             0x08002d41   Thumb Code    86  control.o(i.High_Control)
    IIC_Start                                0x08002d9d   Thumb Code    36  oled.o(i.IIC_Start)
    IIC_Stop                                 0x08002dc5   Thumb Code    28  oled.o(i.IIC_Stop)
    IIC_Wait_Ack                             0x08002de5   Thumb Code    20  oled.o(i.IIC_Wait_Ack)
    IMUupdate                                0x08002dfd   Thumb Code  1468  imu.o(i.IMUupdate)
    LED_Init                                 0x080033c9   Thumb Code    52  led.o(i.LED_Init)
    Led_Scan                                 0x08003405   Thumb Code   212  control.o(i.Led_Scan)
    MOTO1_SetPulse                           0x080034e9   Thumb Code    18  qudong.o(i.MOTO1_SetPulse)
    MOTO2_SetPulse                           0x08003501   Thumb Code    18  qudong.o(i.MOTO2_SetPulse)
    MOTO3_SetPulse                           0x08003519   Thumb Code    18  qudong.o(i.MOTO3_SetPulse)
    MOTO4_SetPulse                           0x08003531   Thumb Code    18  qudong.o(i.MOTO4_SetPulse)
    MPU9250_Check                            0x08003549   Thumb Code    38  mpu9250.o(i.MPU9250_Check)
    MPU9250_Init                             0x080035a1   Thumb Code    90  mpu9250.o(i.MPU9250_Init)
    MPU9250_OffSet                           0x080035fd   Thumb Code   176  mpu9250.o(i.MPU9250_OffSet)
    MPU9250_Offset                           0x080036bd   Thumb Code   266  mpu9250.o(i.MPU9250_Offset)
    MPU9250_Read                             0x080037e1   Thumb Code    14  mpu9250.o(i.MPU9250_Read)
    MPU9250_ReadByte                         0x080037f5   Thumb Code    26  mpu9250.o(i.MPU9250_ReadByte)
    MPU9250_ReadMultBytes                    0x0800380f   Thumb Code    30  mpu9250.o(i.MPU9250_ReadMultBytes)
    MPU9250_WriteByte                        0x0800382d   Thumb Code    26  mpu9250.o(i.MPU9250_WriteByte)
    MPU9250_getDeviceID                      0x08003847   Thumb Code    16  mpu9250.o(i.MPU9250_getDeviceID)
    MPU9250_testConnection                   0x08003857   Thumb Code    18  mpu9250.o(i.MPU9250_testConnection)
    MPU_IIC_Ack                              0x08003869   Thumb Code    66  mpuiic.o(i.MPU_IIC_Ack)
    MPU_IIC_Init                             0x080038b9   Thumb Code    50  mpuiic.o(i.MPU_IIC_Init)
    MPU_IIC_NAck                             0x080038f9   Thumb Code    62  mpuiic.o(i.MPU_IIC_NAck)
    MPU_IIC_ReadByte                         0x08003945   Thumb Code    98  mpuiic.o(i.MPU_IIC_ReadByte)
    MPU_IIC_ReadByteFromSlave                0x080039b5   Thumb Code    74  mpuiic.o(i.MPU_IIC_ReadByteFromSlave)
    MPU_IIC_ReadMultByteFromSlave            0x080039ff   Thumb Code   114  mpuiic.o(i.MPU_IIC_ReadMultByteFromSlave)
    MPU_IIC_SendByte                         0x08003a71   Thumb Code    88  mpuiic.o(i.MPU_IIC_SendByte)
    MPU_IIC_Start                            0x08003ad5   Thumb Code    64  mpuiic.o(i.MPU_IIC_Start)
    MPU_IIC_Stop                             0x08003b21   Thumb Code    62  mpuiic.o(i.MPU_IIC_Stop)
    MPU_IIC_WaitAck                          0x08003b6d   Thumb Code    86  mpuiic.o(i.MPU_IIC_WaitAck)
    MPU_IIC_WriteByteToSlave                 0x08003bd1   Thumb Code    70  mpuiic.o(i.MPU_IIC_WriteByteToSlave)
    MemManage_Handler                        0x08003c17   Thumb Code     4  stm32f10x_it.o(i.MemManage_Handler)
    NMI_Handler                              0x08003c1b   Thumb Code     2  stm32f10x_it.o(i.NMI_Handler)
    NVIC_Init                                0x08003c1d   Thumb Code   100  misc.o(i.NVIC_Init)
    NVIC_PriorityGroupConfig                 0x08003c8d   Thumb Code    10  misc.o(i.NVIC_PriorityGroupConfig)
    OLED_Clear                               0x08003ca1   Thumb Code    62  oled.o(i.OLED_Clear)
    OLED_Clear_data                          0x08003ce1   Thumb Code    96  oled.o(i.OLED_Clear_data)
    OLED_Init                                0x08003d49   Thumb Code   272  oled.o(i.OLED_Init)
    OLED_SHOW                                0x08003e5d   Thumb Code   550  oled.o(i.OLED_SHOW)
    OLED_Set_Pos                             0x08004089   Thumb Code    40  oled.o(i.OLED_Set_Pos)
    OLED_ShowChar                            0x080040b1   Thumb Code   154  oled.o(i.OLED_ShowChar)
    OLED_ShowNum                             0x08004155   Thumb Code   124  oled.o(i.OLED_ShowNum)
    OLED_ShowString                          0x080041d1   Thumb Code    58  oled.o(i.OLED_ShowString)
    OLED_Showsign                            0x0800420b   Thumb Code    86  oled.o(i.OLED_Showsign)
    OLED_WR_Byte                             0x08004261   Thumb Code    24  oled.o(i.OLED_WR_Byte)
    PID_Postion_Cal                          0x08004279   Thumb Code   248  control.o(i.PID_Postion_Cal)
    PID_ReadFlash                            0x08004379   Thumb Code   630  paramsave.o(i.PID_ReadFlash)
    PID_WriteFlash                           0x080049b9   Thumb Code    52  paramsave.o(i.PID_WriteFlash)
    ParamsToTable                            0x080049f9   Thumb Code   546  paramsave.o(i.ParamsToTable)
    PidParameter_init                        0x08004c2d   Thumb Code   296  control.o(i.PidParameter_init)
    Pose_Control                             0x08004d61   Thumb Code   182  control.o(i.Pose_Control)
    Prepare_Data                             0x08004e31   Thumb Code   298  imu.o(i.Prepare_Data)
    QuiteSort                                0x08004f85   Thumb Code    56  filter.o(i.QuiteSort)
    RCC_APB1PeriphClockCmd                   0x08004fbd   Thumb Code    26  stm32f10x_rcc.o(i.RCC_APB1PeriphClockCmd)
    RCC_APB1PeriphResetCmd                   0x08004fdd   Thumb Code    26  stm32f10x_rcc.o(i.RCC_APB1PeriphResetCmd)
    RCC_APB2PeriphClockCmd                   0x08004ffd   Thumb Code    26  stm32f10x_rcc.o(i.RCC_APB2PeriphClockCmd)
    RCC_APB2PeriphResetCmd                   0x0800501d   Thumb Code    26  stm32f10x_rcc.o(i.RCC_APB2PeriphResetCmd)
    RCC_GetClocksFreq                        0x0800503d   Thumb Code   192  stm32f10x_rcc.o(i.RCC_GetClocksFreq)
    STMFLASH_Read                            0x08005111   Thumb Code    32  flash.o(i.STMFLASH_Read)
    STMFLASH_ReadWord                        0x08005131   Thumb Code     6  flash.o(i.STMFLASH_ReadWord)
    STMFLASH_Write                           0x08005139   Thumb Code   126  flash.o(i.STMFLASH_Write)
    SVC_Handler                              0x080051c1   Thumb Code     2  stm32f10x_it.o(i.SVC_Handler)
    Safety_Check                             0x080051c5   Thumb Code    68  control.o(i.Safety_Check)
    Set_Pwm                                  0x080052f9   Thumb Code   114  control.o(i.Set_Pwm)
    SortAver_FilterXYZ                       0x08005371   Thumb Code   264  filter.o(i.SortAver_FilterXYZ)
    SysTick_CLKSourceConfig                  0x0800548d   Thumb Code    40  misc.o(i.SysTick_CLKSourceConfig)
    SystemInit                               0x080054b5   Thumb Code    78  system_stm32f10x.o(i.SystemInit)
    TIM1_Int_Init                            0x08005755   Thumb Code   220  timer.o(i.TIM1_Int_Init)
    TIM2_IRQHandler                          0x08005839   Thumb Code   700  timer.o(i.TIM2_IRQHandler)
    TIM2_Int_Init                            0x08005b15   Thumb Code   282  timer.o(i.TIM2_Int_Init)
    TIM3_IRQHandler                          0x08005c35   Thumb Code    12  timer.o(i.TIM3_IRQHandler)
    TIM3_Int_Init                            0x08005c45   Thumb Code   188  timer.o(i.TIM3_Int_Init)
    TIM4_IRQHandler                          0x08005d09   Thumb Code   176  timer.o(i.TIM4_IRQHandler)
    TIM4_Int_Init                            0x08005dd1   Thumb Code    86  timer.o(i.TIM4_Int_Init)
    TIMX_Int_Init                            0x08005e2d   Thumb Code    70  timer.o(i.TIMX_Int_Init)
    TIM_ARRPreloadConfig                     0x08005e73   Thumb Code    24  stm32f10x_tim.o(i.TIM_ARRPreloadConfig)
    TIM_ClearITPendingBit                    0x08005e8b   Thumb Code     6  stm32f10x_tim.o(i.TIM_ClearITPendingBit)
    TIM_Cmd                                  0x08005e91   Thumb Code    24  stm32f10x_tim.o(i.TIM_Cmd)
    TIM_CtrlPWMOutputs                       0x08005ea9   Thumb Code    30  stm32f10x_tim.o(i.TIM_CtrlPWMOutputs)
    TIM_GetCapture1                          0x08005ec7   Thumb Code     6  stm32f10x_tim.o(i.TIM_GetCapture1)
    TIM_GetCapture2                          0x08005ecd   Thumb Code     6  stm32f10x_tim.o(i.TIM_GetCapture2)
    TIM_GetCapture3                          0x08005ed3   Thumb Code     6  stm32f10x_tim.o(i.TIM_GetCapture3)
    TIM_GetCapture4                          0x08005ed9   Thumb Code     8  stm32f10x_tim.o(i.TIM_GetCapture4)
    TIM_GetITStatus                          0x08005ee1   Thumb Code    34  stm32f10x_tim.o(i.TIM_GetITStatus)
    TIM_ICInit                               0x08005f05   Thumb Code   150  stm32f10x_tim.o(i.TIM_ICInit)
    TIM_ITConfig                             0x08005fb1   Thumb Code    18  stm32f10x_tim.o(i.TIM_ITConfig)
    TIM_OC1Init                              0x08005fc5   Thumb Code   132  stm32f10x_tim.o(i.TIM_OC1Init)
    TIM_OC1PolarityConfig                    0x0800605d   Thumb Code    18  stm32f10x_tim.o(i.TIM_OC1PolarityConfig)
    TIM_OC1PreloadConfig                     0x0800606f   Thumb Code    18  stm32f10x_tim.o(i.TIM_OC1PreloadConfig)
    TIM_OC2Init                              0x08006081   Thumb Code   154  stm32f10x_tim.o(i.TIM_OC2Init)
    TIM_OC2PolarityConfig                    0x08006125   Thumb Code    26  stm32f10x_tim.o(i.TIM_OC2PolarityConfig)
    TIM_OC2PreloadConfig                     0x0800613f   Thumb Code    26  stm32f10x_tim.o(i.TIM_OC2PreloadConfig)
    TIM_OC3Init                              0x08006159   Thumb Code   150  stm32f10x_tim.o(i.TIM_OC3Init)
    TIM_OC3PolarityConfig                    0x080061f9   Thumb Code    26  stm32f10x_tim.o(i.TIM_OC3PolarityConfig)
    TIM_OC3PreloadConfig                     0x08006213   Thumb Code    18  stm32f10x_tim.o(i.TIM_OC3PreloadConfig)
    TIM_OC4Init                              0x08006225   Thumb Code   114  stm32f10x_tim.o(i.TIM_OC4Init)
    TIM_OC4PolarityConfig                    0x080062a1   Thumb Code    26  stm32f10x_tim.o(i.TIM_OC4PolarityConfig)
    TIM_OC4PreloadConfig                     0x080062bb   Thumb Code    26  stm32f10x_tim.o(i.TIM_OC4PreloadConfig)
    TIM_SetCompare1                          0x080062d5   Thumb Code     4  stm32f10x_tim.o(i.TIM_SetCompare1)
    TIM_SetCompare2                          0x080062d9   Thumb Code     4  stm32f10x_tim.o(i.TIM_SetCompare2)
    TIM_SetCompare3                          0x080062dd   Thumb Code     4  stm32f10x_tim.o(i.TIM_SetCompare3)
    TIM_SetCompare4                          0x080062e1   Thumb Code     6  stm32f10x_tim.o(i.TIM_SetCompare4)
    TIM_SetCounter                           0x080062e7   Thumb Code     4  stm32f10x_tim.o(i.TIM_SetCounter)
    TIM_SetIC1Prescaler                      0x080062eb   Thumb Code    18  stm32f10x_tim.o(i.TIM_SetIC1Prescaler)
    TIM_SetIC2Prescaler                      0x080062fd   Thumb Code    26  stm32f10x_tim.o(i.TIM_SetIC2Prescaler)
    TIM_SetIC3Prescaler                      0x08006317   Thumb Code    18  stm32f10x_tim.o(i.TIM_SetIC3Prescaler)
    TIM_SetIC4Prescaler                      0x08006329   Thumb Code    26  stm32f10x_tim.o(i.TIM_SetIC4Prescaler)
    TIM_TimeBaseInit                         0x08006345   Thumb Code   122  stm32f10x_tim.o(i.TIM_TimeBaseInit)
    TableToParams                            0x080063e9   Thumb Code   560  paramsave.o(i.TableToParams)
    USART1_IRQHandler                        0x08006629   Thumb Code   122  usart1.o(i.USART1_IRQHandler)
    USART1_Init                              0x080066b1   Thumb Code   152  usart1.o(i.USART1_Init)
    USART2_IRQHandler                        0x08006751   Thumb Code   124  usart2.o(i.USART2_IRQHandler)
    USART2_Init                              0x080067d9   Thumb Code   178  usart2.o(i.USART2_Init)
    USART3_IRQHandler                        0x08006895   Thumb Code    84  usart3.o(i.USART3_IRQHandler)
    USART3_Init                              0x080068f1   Thumb Code   174  usart3.o(i.USART3_Init)
    USARTX_Init                              0x080069a9   Thumb Code    50  usart1.o(i.USARTX_Init)
    USART_ClearFlag                          0x080069db   Thumb Code    18  stm32f10x_usart.o(i.USART_ClearFlag)
    USART_ClearITPendingBit                  0x080069ed   Thumb Code    30  stm32f10x_usart.o(i.USART_ClearITPendingBit)
    USART_Cmd                                0x08006a0b   Thumb Code    24  stm32f10x_usart.o(i.USART_Cmd)
    USART_DeInit                             0x08006a25   Thumb Code   134  stm32f10x_usart.o(i.USART_DeInit)
    USART_GetFlagStatus                      0x08006ac1   Thumb Code    26  stm32f10x_usart.o(i.USART_GetFlagStatus)
    USART_GetITStatus                        0x08006adb   Thumb Code    84  stm32f10x_usart.o(i.USART_GetITStatus)
    USART_ITConfig                           0x08006b2f   Thumb Code    74  stm32f10x_usart.o(i.USART_ITConfig)
    USART_Init                               0x08006b79   Thumb Code   210  stm32f10x_usart.o(i.USART_Init)
    USART_ReceiveData                        0x08006c51   Thumb Code    10  stm32f10x_usart.o(i.USART_ReceiveData)
    USART_SendData                           0x08006c5b   Thumb Code     8  stm32f10x_usart.o(i.USART_SendData)
    UsageFault_Handler                       0x08006c63   Thumb Code     4  stm32f10x_it.o(i.UsageFault_Handler)
    Write_IIC_Byte                           0x08006c69   Thumb Code    80  oled.o(i.Write_IIC_Byte)
    Write_IIC_Command                        0x08006cbd   Thumb Code    44  oled.o(i.Write_IIC_Command)
    Write_IIC_Data                           0x08006ce9   Thumb Code    44  oled.o(i.Write_IIC_Data)
    __0vsprintf                              0x08006d15   Thumb Code    30  printfa.o(i.__0vsprintf)
    __1vsprintf                              0x08006d15   Thumb Code     0  printfa.o(i.__0vsprintf)
    __2vsprintf                              0x08006d15   Thumb Code     0  printfa.o(i.__0vsprintf)
    __c89vsprintf                            0x08006d15   Thumb Code     0  printfa.o(i.__0vsprintf)
    vsprintf                                 0x08006d15   Thumb Code     0  printfa.o(i.__0vsprintf)
    __ARM_fpclassify                         0x08006d39   Thumb Code    40  fpclassify.o(i.__ARM_fpclassify)
    __kernel_poly                            0x08006d61   Thumb Code   170  poly.o(i.__kernel_poly)
    __mathlib_dbl_infnan                     0x08006e0b   Thumb Code     6  dunder.o(i.__mathlib_dbl_infnan)
    __mathlib_dbl_infnan2                    0x08006e11   Thumb Code     4  dunder.o(i.__mathlib_dbl_infnan2)
    __mathlib_dbl_invalid                    0x08006e15   Thumb Code    12  dunder.o(i.__mathlib_dbl_invalid)
    __mathlib_dbl_underflow                  0x08006e21   Thumb Code    10  dunder.o(i.__mathlib_dbl_underflow)
    __scatterload_copy                       0x08006e31   Thumb Code    14  handlers.o(i.__scatterload_copy)
    __scatterload_null                       0x08006e3f   Thumb Code     2  handlers.o(i.__scatterload_null)
    __scatterload_zeroinit                   0x08006e41   Thumb Code    14  handlers.o(i.__scatterload_zeroinit)
    __set_errno                              0x08006e51   Thumb Code     6  errno.o(i.__set_errno)
    abs_limit                                0x08007719   Thumb Code    40  control.o(i.abs_limit)
    asin                                     0x08007741   Thumb Code   572  asin.o(i.asin)
    atan                                     0x080079b1   Thumb Code   474  atan.o(i.atan)
    atan2                                    0x08007bd1   Thumb Code   346  atan2.o(i.atan2)
    data_fittle                              0x08007d51   Thumb Code    74  bmp280.o(i.data_fittle)
    delay_init                               0x08007db1   Thumb Code    50  delay.o(i.delay_init)
    delay_ms                                 0x08007df5   Thumb Code    72  delay.o(i.delay_ms)
    delay_us                                 0x08007e41   Thumb Code    72  delay.o(i.delay_us)
    main                                     0x08007ed9   Thumb Code   368  main.o(i.main)
    oled_pow                                 0x080080f9   Thumb Code    22  oled.o(i.oled_pow)
    sqrt                                     0x0800810f   Thumb Code    76  sqrt.o(i.sqrt)
    u3_printf                                0x0800815d   Thumb Code    72  usart3.o(i.u3_printf)
    F6x8                                     0x080081ac   Data         552  oled.o(.constdata)
    F8X16                                    0x080083d4   Data        1520  oled.o(.constdata)
    horse2                                   0x080089c4   Data        1024  oled.o(.constdata)
    horse3                                   0x08008dc4   Data        1024  oled.o(.constdata)
    horse4                                   0x080091c4   Data        1024  oled.o(.constdata)
    horse5                                   0x080095c4   Data        1024  oled.o(.constdata)
    horse6                                   0x080099c4   Data        1024  oled.o(.constdata)
    horse7                                   0x08009dc4   Data        1024  oled.o(.constdata)
    horse8                                   0x0800a1c4   Data        1024  oled.o(.constdata)
    horse9                                   0x0800a5c4   Data        1024  oled.o(.constdata)
    horse10                                  0x0800a9c4   Data        1024  oled.o(.constdata)
    horseempty                               0x0800adc4   Data        1024  oled.o(.constdata)
    WiFi                                     0x0800b1c4   Data         192  oled.o(.constdata)
    __mathlib_zero                           0x0800b370   Data           8  qnan.o(.constdata)
    Region$$Table$$Base                      0x0800b378   Number         0  anon$$obj.o(Region$$Table)
    Region$$Table$$Limit                     0x0800b398   Number         0  anon$$obj.o(Region$$Table)
    SystemCoreClock                          0x20000000   Data           4  system_stm32f10x.o(.data)
    AHBPrescTable                            0x20000004   Data          16  system_stm32f10x.o(.data)
    GYRO_OFFSET_RAW                          0x20000058   Data           6  mpu9250.o(.data)
    ACC_OFFSET_RAW                           0x2000005e   Data           6  mpu9250.o(.data)
    MPU9250_ACC_RAW                          0x20000064   Data           6  mpu9250.o(.data)
    MPU9250_GYRO_RAW                         0x2000006a   Data           6  mpu9250.o(.data)
    MPU9250_MAG_RAW                          0x20000070   Data           6  mpu9250.o(.data)
    SENSER_OFFSET_FLAG                       0x20000076   Data           1  mpu9250.o(.data)
    TIM2CH1_CAPTURE_STA                      0x20000086   Data           1  timer.o(.data)
    TIM2CH2_CAPTURE_STA                      0x20000087   Data           1  timer.o(.data)
    TIM2CH3_CAPTURE_STA                      0x20000088   Data           1  timer.o(.data)
    TIM2CH4_CAPTURE_STA                      0x20000089   Data           1  timer.o(.data)
    TIM2CH1_CAPTURE_UPVAL                    0x2000008a   Data           2  timer.o(.data)
    TIM2CH2_CAPTURE_UPVAL                    0x2000008c   Data           2  timer.o(.data)
    TIM2CH3_CAPTURE_UPVAL                    0x2000008e   Data           2  timer.o(.data)
    TIM2CH4_CAPTURE_UPVAL                    0x20000090   Data           2  timer.o(.data)
    __stdout                                 0x20000098   Data           4  usart1.o(.data)
    USART_RX_STA                             0x2000009c   Data           2  usart1.o(.data)
    USART2_RX_STA                            0x2000009e   Data           2  usart2.o(.data)
    uart3_data                               0x200000a0   Data           1  usart3.o(.data)
    uart3_flage                              0x200000a1   Data           1  usart3.o(.data)
    RS485_RX_CNT                             0x200000a2   Data           2  usart3.o(.data)
    RS485_FrameFlag                          0x200000a4   Data           1  usart3.o(.data)
    RS485_TX_CNT                             0x200000a6   Data           2  usart3.o(.data)
    AccbUpdate                               0x200000b4   Data           1  imu.o(.data)
    q0                                       0x200000b8   Data           4  imu.o(.data)
    q1                                       0x200000bc   Data           4  imu.o(.data)
    q2                                       0x200000c0   Data           4  imu.o(.data)
    q3                                       0x200000c4   Data           4  imu.o(.data)
    exInt                                    0x200000c8   Data           4  imu.o(.data)
    eyInt                                    0x200000cc   Data           4  imu.o(.data)
    ezInt                                    0x200000d0   Data           4  imu.o(.data)
    Fly                                      0x200005dc   Data         852  control.o(.bss)
    USART_RX_BUF                             0x2000096e   Data         200  usart1.o(.bss)
    USART2_RX_BUF                            0x20000a36   Data         200  usart2.o(.bss)
    USART2_TX_BUF                            0x20000afe   Data         200  usart2.o(.bss)
    RS485_RX_BUFF                            0x20000bc6   Data         128  usart3.o(.bss)
    RS485_TX_BUFF                            0x20000c46   Data         128  usart3.o(.bss)
    f                                        0x20000cc6   Data          13  serial_oscilloscope.o(.bss)
    data_to_send                             0x20000cd3   Data          50  serial_oscilloscope.o(.bss)
    PIDflash                                 0x20000d38   Data          60  paramsave.o(.bss)
    accb                                     0x20000d74   Data          12  imu.o(.bss)
    __initial_sp                             0x20001180   Data           0  startup_stm32f10x_md.o(STACK)



==============================================================================

Memory Map of the image

  Image Entry point : 0x080000ed

  Load Region LR_IROM1 (Base: 0x08000000, Size: 0x0000b474, Max: 0x00010000, ABSOLUTE)

    Execution Region ER_IROM1 (Exec base: 0x08000000, Load base: 0x08000000, Size: 0x0000b398, Max: 0x00010000, ABSOLUTE)

    Exec Addr    Load Addr    Size         Type   Attr      Idx    E Section Name        Object

    0x08000000   0x08000000   0x000000ec   Data   RO           99    RESET               startup_stm32f10x_md.o
    0x080000ec   0x080000ec   0x00000000   Code   RO         4734  * .ARM.Collect$$$$00000000  mc_w.l(entry.o)
    0x080000ec   0x080000ec   0x00000004   Code   RO         4842    .ARM.Collect$$$$00000001  mc_w.l(entry2.o)
    0x080000f0   0x080000f0   0x00000004   Code   RO         4845    .ARM.Collect$$$$00000004  mc_w.l(entry5.o)
    0x080000f4   0x080000f4   0x00000000   Code   RO         4847    .ARM.Collect$$$$00000008  mc_w.l(entry7b.o)
    0x080000f4   0x080000f4   0x00000000   Code   RO         4849    .ARM.Collect$$$$0000000A  mc_w.l(entry8b.o)
    0x080000f4   0x080000f4   0x00000008   Code   RO         4850    .ARM.Collect$$$$0000000B  mc_w.l(entry9a.o)
    0x080000fc   0x080000fc   0x00000000   Code   RO         4852    .ARM.Collect$$$$0000000D  mc_w.l(entry10a.o)
    0x080000fc   0x080000fc   0x00000000   Code   RO         4854    .ARM.Collect$$$$0000000F  mc_w.l(entry11a.o)
    0x080000fc   0x080000fc   0x00000004   Code   RO         4843    .ARM.Collect$$$$00002712  mc_w.l(entry2.o)
    0x08000100   0x08000100   0x00000024   Code   RO          100    .text               startup_stm32f10x_md.o
    0x08000124   0x08000124   0x00000024   Code   RO         4737    .text               mc_w.l(memseta.o)
    0x08000148   0x08000148   0x0000000e   Code   RO         4739    .text               mc_w.l(strlen.o)
    0x08000156   0x08000156   0x000000b0   Code   RO         4769    .text               mf_w.l(fadd.o)
    0x08000206   0x08000206   0x00000064   Code   RO         4771    .text               mf_w.l(fmul.o)
    0x0800026a   0x0800026a   0x0000007c   Code   RO         4773    .text               mf_w.l(fdiv.o)
    0x080002e6   0x080002e6   0x0000014e   Code   RO         4775    .text               mf_w.l(dadd.o)
    0x08000434   0x08000434   0x000000e4   Code   RO         4777    .text               mf_w.l(dmul.o)
    0x08000518   0x08000518   0x00000012   Code   RO         4779    .text               mf_w.l(fflti.o)
    0x0800052a   0x0800052a   0x0000000a   Code   RO         4781    .text               mf_w.l(ffltui.o)
    0x08000534   0x08000534   0x00000022   Code   RO         4783    .text               mf_w.l(dflti.o)
    0x08000556   0x08000556   0x0000001a   Code   RO         4785    .text               mf_w.l(dfltui.o)
    0x08000570   0x08000570   0x00000032   Code   RO         4787    .text               mf_w.l(ffixi.o)
    0x080005a2   0x080005a2   0x00000028   Code   RO         4789    .text               mf_w.l(ffixui.o)
    0x080005ca   0x080005ca   0x00000032   Code   RO         4791    .text               mf_w.l(dfixui.o)
    0x080005fc   0x080005fc   0x00000026   Code   RO         4793    .text               mf_w.l(f2d.o)
    0x08000622   0x08000622   0x00000002   PAD
    0x08000624   0x08000624   0x00000030   Code   RO         4795    .text               mf_w.l(cdcmple.o)
    0x08000654   0x08000654   0x00000030   Code   RO         4797    .text               mf_w.l(cdrcmple.o)
    0x08000684   0x08000684   0x00000038   Code   RO         4799    .text               mf_w.l(d2f.o)
    0x080006bc   0x080006bc   0x00000014   Code   RO         4801    .text               mf_w.l(cfcmple.o)
    0x080006d0   0x080006d0   0x00000014   Code   RO         4803    .text               mf_w.l(cfrcmple.o)
    0x080006e4   0x080006e4   0x0000002c   Code   RO         4856    .text               mc_w.l(uidiv.o)
    0x08000710   0x08000710   0x00000062   Code   RO         4858    .text               mc_w.l(uldiv.o)
    0x08000772   0x08000772   0x0000001e   Code   RO         4860    .text               mc_w.l(llshl.o)
    0x08000790   0x08000790   0x00000020   Code   RO         4862    .text               mc_w.l(llushr.o)
    0x080007b0   0x080007b0   0x00000024   Code   RO         4864    .text               mc_w.l(llsshr.o)
    0x080007d4   0x080007d4   0x00000000   Code   RO         4873    .text               mc_w.l(iusefp.o)
    0x080007d4   0x080007d4   0x0000006e   Code   RO         4874    .text               mf_w.l(fepilogue.o)
    0x08000842   0x08000842   0x000000ba   Code   RO         4876    .text               mf_w.l(depilogue.o)
    0x080008fc   0x080008fc   0x000000de   Code   RO         4878    .text               mf_w.l(ddiv.o)
    0x080009da   0x080009da   0x0000002e   Code   RO         4880    .text               mf_w.l(dscalb.o)
    0x08000a08   0x08000a08   0x00000030   Code   RO         4882    .text               mf_w.l(dfixul.o)
    0x08000a38   0x08000a38   0x00000024   Code   RO         4884    .text               mc_w.l(init.o)
    0x08000a5c   0x08000a5c   0x000000a2   Code   RO         4886    .text               mf_w.l(dsqrt.o)
    0x08000afe   0x08000afe   0x00000002   PAD
    0x08000b00   0x08000b00   0x00000440   Code   RO         4428    i.ANO_DT_Data_Exchange  serial_oscilloscope.o
    0x08000f40   0x08000f40   0x00000540   Code   RO         4429    i.ANO_DT_Data_Receive_Anl  serial_oscilloscope.o
    0x08001480   0x08001480   0x000000ec   Code   RO         4430    i.ANO_DT_Data_Receive_Prepare  serial_oscilloscope.o
    0x0800156c   0x0800156c   0x00000048   Code   RO         4431    i.ANO_DT_Send_Check  serial_oscilloscope.o
    0x080015b4   0x080015b4   0x00000044   Code   RO         4432    i.ANO_DT_Send_Data  serial_oscilloscope.o
    0x080015f8   0x080015f8   0x0000012c   Code   RO         4433    i.ANO_DT_Send_MotoPWM  serial_oscilloscope.o
    0x08001724   0x08001724   0x0000020c   Code   RO         4434    i.ANO_DT_Send_PID   serial_oscilloscope.o
    0x08001930   0x08001930   0x00000164   Code   RO         4435    i.ANO_DT_Send_RCData  serial_oscilloscope.o
    0x08001a94   0x08001a94   0x0000017c   Code   RO         4436    i.ANO_DT_Send_Senser  serial_oscilloscope.o
    0x08001c10   0x08001c10   0x00000148   Code   RO         4437    i.ANO_DT_Send_Status  serial_oscilloscope.o
    0x08001d58   0x08001d58   0x000000fc   Code   RO         3714    i.BMP280_CalibParam  bmp280.o
    0x08001e54   0x08001e54   0x00000048   Code   RO         3715    i.BMP280_Chack      bmp280.o
    0x08001e9c   0x08001e9c   0x000000cc   Code   RO         3716    i.BMP280_CompensatePressureInt32  bmp280.o
    0x08001f68   0x08001f68   0x0000004c   Code   RO         3717    i.BMP280_CompensateTemperatureInt32  bmp280.o
    0x08001fb4   0x08001fb4   0x00000042   Code   RO         3720    i.BMP280_Init       bmp280.o
    0x08001ff6   0x08001ff6   0x00000034   Code   RO         3721    i.BMP280_ReadPressureTemperature  bmp280.o
    0x0800202a   0x0800202a   0x00000050   Code   RO         3722    i.BMP280_ReadUncompPressureTemperature  bmp280.o
    0x0800207a   0x0800207a   0x00000048   Code   RO         3725    i.BMP280_Read_Byte  bmp280.o
    0x080020c2   0x080020c2   0x00000074   Code   RO         3726    i.BMP280_Read_Len   bmp280.o
    0x08002136   0x08002136   0x00000002   PAD
    0x08002138   0x08002138   0x00000038   Code   RO         3727    i.BMP280_SetPowerMode  bmp280.o
    0x08002170   0x08002170   0x00000024   Code   RO         3729    i.BMP280_SetStandbyDurn  bmp280.o
    0x08002194   0x08002194   0x00000090   Code   RO         3730    i.BMP280_SetWorkMode  bmp280.o
    0x08002224   0x08002224   0x0000004c   Code   RO         3731    i.BMP280_Write_Byte  bmp280.o
    0x08002270   0x08002270   0x00000050   Code   RO         3850    i.BMPIIC_Ack        bmpiic.o
    0x080022c0   0x080022c0   0x00000040   Code   RO         3851    i.BMPIIC_Init       bmpiic.o
    0x08002300   0x08002300   0x00000050   Code   RO         3852    i.BMPIIC_NAck       bmpiic.o
    0x08002350   0x08002350   0x00000070   Code   RO         3853    i.BMPIIC_Read_Byte  bmpiic.o
    0x080023c0   0x080023c0   0x00000068   Code   RO         3854    i.BMPIIC_Send_Byte  bmpiic.o
    0x08002428   0x08002428   0x0000004c   Code   RO         3855    i.BMPIIC_Start      bmpiic.o
    0x08002474   0x08002474   0x0000004c   Code   RO         3856    i.BMPIIC_Stop       bmpiic.o
    0x080024c0   0x080024c0   0x00000064   Code   RO         3857    i.BMPIIC_Wait_Ack   bmpiic.o
    0x08002524   0x08002524   0x00000004   Code   RO         4665    i.BusFault_Handler  stm32f10x_it.o
    0x08002528   0x08002528   0x0000024c   Code   RO         3338    i.Control           control.o
    0x08002774   0x08002774   0x000000c8   Code   RO         3339    i.Deal_Remote_date  control.o
    0x0800283c   0x0800283c   0x00000002   Code   RO         4666    i.DebugMon_Handler  stm32f10x_it.o
    0x0800283e   0x0800283e   0x00000002   PAD
    0x08002840   0x08002840   0x00000074   Code   RO         4504    i.DefaultParams     paramsave.o
    0x080028b4   0x080028b4   0x0000003c   Code   RO         4505    i.DefaultParams_WriteFlash  paramsave.o
    0x080028f0   0x080028f0   0x0000004c   Code   RO          943    i.FLASH_ErasePage   stm32f10x_flash.o
    0x0800293c   0x0800293c   0x00000034   Code   RO          944    i.FLASH_GetBank1Status  stm32f10x_flash.o
    0x08002970   0x08002970   0x00000014   Code   RO          953    i.FLASH_Lock        stm32f10x_flash.o
    0x08002984   0x08002984   0x0000006c   Code   RO          958    i.FLASH_ProgramWord  stm32f10x_flash.o
    0x080029f0   0x080029f0   0x00000018   Code   RO          961    i.FLASH_Unlock      stm32f10x_flash.o
    0x08002a08   0x08002a08   0x00000026   Code   RO          965    i.FLASH_WaitForLastOperation  stm32f10x_flash.o
    0x08002a2e   0x08002a2e   0x00000002   PAD
    0x08002a30   0x08002a30   0x0000005c   Code   RO         3340    i.FLY_Start         control.o
    0x08002a8c   0x08002a8c   0x0000005a   Code   RO         3112    i.FindPos           filter.o
    0x08002ae6   0x08002ae6   0x00000116   Code   RO         1241    i.GPIO_Init         stm32f10x_gpio.o
    0x08002bfc   0x08002bfc   0x00000004   Code   RO         1248    i.GPIO_ResetBits    stm32f10x_gpio.o
    0x08002c00   0x08002c00   0x00000004   Code   RO         1249    i.GPIO_SetBits      stm32f10x_gpio.o
    0x08002c04   0x08002c04   0x00000010   Code   RO         3341    i.Get_Press_temp    control.o
    0x08002c14   0x08002c14   0x00000128   Code   RO         3342    i.Get_Receive_PWM   control.o
    0x08002d3c   0x08002d3c   0x00000004   Code   RO         4667    i.HardFault_Handler  stm32f10x_it.o
    0x08002d40   0x08002d40   0x0000005c   Code   RO         3343    i.High_Control      control.o
    0x08002d9c   0x08002d9c   0x00000028   Code   RO         3451    i.IIC_Start         oled.o
    0x08002dc4   0x08002dc4   0x00000020   Code   RO         3452    i.IIC_Stop          oled.o
    0x08002de4   0x08002de4   0x00000018   Code   RO         3453    i.IIC_Wait_Ack      oled.o
    0x08002dfc   0x08002dfc   0x000005cc   Code   RO         4600    i.IMUupdate         imu.o
    0x080033c8   0x080033c8   0x0000003c   Code   RO         3323    i.LED_Init          led.o
    0x08003404   0x08003404   0x000000e4   Code   RO         3344    i.Led_Scan          control.o
    0x080034e8   0x080034e8   0x00000018   Code   RO         3660    i.MOTO1_SetPulse    qudong.o
    0x08003500   0x08003500   0x00000018   Code   RO         3661    i.MOTO2_SetPulse    qudong.o
    0x08003518   0x08003518   0x00000018   Code   RO         3662    i.MOTO3_SetPulse    qudong.o
    0x08003530   0x08003530   0x00000018   Code   RO         3663    i.MOTO4_SetPulse    qudong.o
    0x08003548   0x08003548   0x00000058   Code   RO         4005    i.MPU9250_Check     mpu9250.o
    0x080035a0   0x080035a0   0x0000005a   Code   RO         4007    i.MPU9250_Init      mpu9250.o
    0x080035fa   0x080035fa   0x00000002   PAD
    0x080035fc   0x080035fc   0x000000c0   Code   RO         4008    i.MPU9250_OffSet    mpu9250.o
    0x080036bc   0x080036bc   0x00000124   Code   RO         4009    i.MPU9250_Offset    mpu9250.o
    0x080037e0   0x080037e0   0x00000014   Code   RO         4010    i.MPU9250_Read      mpu9250.o
    0x080037f4   0x080037f4   0x0000001a   Code   RO         4011    i.MPU9250_ReadByte  mpu9250.o
    0x0800380e   0x0800380e   0x0000001e   Code   RO         4012    i.MPU9250_ReadMultBytes  mpu9250.o
    0x0800382c   0x0800382c   0x0000001a   Code   RO         4014    i.MPU9250_WriteByte  mpu9250.o
    0x08003846   0x08003846   0x00000010   Code   RO         4016    i.MPU9250_getDeviceID  mpu9250.o
    0x08003856   0x08003856   0x00000012   Code   RO         4017    i.MPU9250_testConnection  mpu9250.o
    0x08003868   0x08003868   0x00000050   Code   RO         3904    i.MPU_IIC_Ack       mpuiic.o
    0x080038b8   0x080038b8   0x00000040   Code   RO         3906    i.MPU_IIC_Init      mpuiic.o
    0x080038f8   0x080038f8   0x0000004c   Code   RO         3907    i.MPU_IIC_NAck      mpuiic.o
    0x08003944   0x08003944   0x00000070   Code   RO         3908    i.MPU_IIC_ReadByte  mpuiic.o
    0x080039b4   0x080039b4   0x0000004a   Code   RO         3909    i.MPU_IIC_ReadByteFromSlave  mpuiic.o
    0x080039fe   0x080039fe   0x00000072   Code   RO         3910    i.MPU_IIC_ReadMultByteFromSlave  mpuiic.o
    0x08003a70   0x08003a70   0x00000064   Code   RO         3911    i.MPU_IIC_SendByte  mpuiic.o
    0x08003ad4   0x08003ad4   0x0000004c   Code   RO         3912    i.MPU_IIC_Start     mpuiic.o
    0x08003b20   0x08003b20   0x0000004c   Code   RO         3913    i.MPU_IIC_Stop      mpuiic.o
    0x08003b6c   0x08003b6c   0x00000064   Code   RO         3914    i.MPU_IIC_WaitAck   mpuiic.o
    0x08003bd0   0x08003bd0   0x00000046   Code   RO         3915    i.MPU_IIC_WriteByteToSlave  mpuiic.o
    0x08003c16   0x08003c16   0x00000004   Code   RO         4668    i.MemManage_Handler  stm32f10x_it.o
    0x08003c1a   0x08003c1a   0x00000002   Code   RO         4669    i.NMI_Handler       stm32f10x_it.o
    0x08003c1c   0x08003c1c   0x00000070   Code   RO         3072    i.NVIC_Init         misc.o
    0x08003c8c   0x08003c8c   0x00000014   Code   RO         3073    i.NVIC_PriorityGroupConfig  misc.o
    0x08003ca0   0x08003ca0   0x0000003e   Code   RO         3454    i.OLED_Clear        oled.o
    0x08003cde   0x08003cde   0x00000002   PAD
    0x08003ce0   0x08003ce0   0x00000068   Code   RO         3455    i.OLED_Clear_data   oled.o
    0x08003d48   0x08003d48   0x00000114   Code   RO         3462    i.OLED_Init         oled.o
    0x08003e5c   0x08003e5c   0x0000022c   Code   RO         3464    i.OLED_SHOW         oled.o
    0x08004088   0x08004088   0x00000028   Code   RO         3465    i.OLED_Set_Pos      oled.o
    0x080040b0   0x080040b0   0x000000a4   Code   RO         3467    i.OLED_ShowChar     oled.o
    0x08004154   0x08004154   0x0000007c   Code   RO         3468    i.OLED_ShowNum      oled.o
    0x080041d0   0x080041d0   0x0000003a   Code   RO         3469    i.OLED_ShowString   oled.o
    0x0800420a   0x0800420a   0x00000056   Code   RO         3470    i.OLED_Showsign     oled.o
    0x08004260   0x08004260   0x00000018   Code   RO         3471    i.OLED_WR_Byte      oled.o
    0x08004278   0x08004278   0x00000100   Code   RO         3345    i.PID_Postion_Cal   control.o
    0x08004378   0x08004378   0x00000640   Code   RO         4507    i.PID_ReadFlash     paramsave.o
    0x080049b8   0x080049b8   0x00000040   Code   RO         4508    i.PID_WriteFlash    paramsave.o
    0x080049f8   0x080049f8   0x00000234   Code   RO         4510    i.ParamsToTable     paramsave.o
    0x08004c2c   0x08004c2c   0x00000134   Code   RO         3346    i.PidParameter_init  control.o
    0x08004d60   0x08004d60   0x000000d0   Code   RO         3347    i.Pose_Control      control.o
    0x08004e30   0x08004e30   0x00000154   Code   RO         4601    i.Prepare_Data      imu.o
    0x08004f84   0x08004f84   0x00000038   Code   RO         3114    i.QuiteSort         filter.o
    0x08004fbc   0x08004fbc   0x00000020   Code   RO         1663    i.RCC_APB1PeriphClockCmd  stm32f10x_rcc.o
    0x08004fdc   0x08004fdc   0x00000020   Code   RO         1664    i.RCC_APB1PeriphResetCmd  stm32f10x_rcc.o
    0x08004ffc   0x08004ffc   0x00000020   Code   RO         1665    i.RCC_APB2PeriphClockCmd  stm32f10x_rcc.o
    0x0800501c   0x0800501c   0x00000020   Code   RO         1666    i.RCC_APB2PeriphResetCmd  stm32f10x_rcc.o
    0x0800503c   0x0800503c   0x000000d4   Code   RO         1673    i.RCC_GetClocksFreq  stm32f10x_rcc.o
    0x08005110   0x08005110   0x00000020   Code   RO         4573    i.STMFLASH_Read     flash.o
    0x08005130   0x08005130   0x00000006   Code   RO         4574    i.STMFLASH_ReadWord  flash.o
    0x08005136   0x08005136   0x00000002   PAD
    0x08005138   0x08005138   0x00000088   Code   RO         4575    i.STMFLASH_Write    flash.o
    0x080051c0   0x080051c0   0x00000002   Code   RO         4670    i.SVC_Handler       stm32f10x_it.o
    0x080051c2   0x080051c2   0x00000002   PAD
    0x080051c4   0x080051c4   0x0000004c   Code   RO         3348    i.Safety_Check      control.o
    0x08005210   0x08005210   0x00000008   Code   RO           17    i.SetSysClock       system_stm32f10x.o
    0x08005218   0x08005218   0x000000e0   Code   RO           18    i.SetSysClockTo72   system_stm32f10x.o
    0x080052f8   0x080052f8   0x00000078   Code   RO         3349    i.Set_Pwm           control.o
    0x08005370   0x08005370   0x0000011c   Code   RO         3117    i.SortAver_FilterXYZ  filter.o
    0x0800548c   0x0800548c   0x00000028   Code   RO         3076    i.SysTick_CLKSourceConfig  misc.o
    0x080054b4   0x080054b4   0x00000060   Code   RO           20    i.SystemInit        system_stm32f10x.o
    0x08005514   0x08005514   0x00000080   Code   RO         2287    i.TI1_Config        stm32f10x_tim.o
    0x08005594   0x08005594   0x00000098   Code   RO         2288    i.TI2_Config        stm32f10x_tim.o
    0x0800562c   0x0800562c   0x00000090   Code   RO         2289    i.TI3_Config        stm32f10x_tim.o
    0x080056bc   0x080056bc   0x00000098   Code   RO         2290    i.TI4_Config        stm32f10x_tim.o
    0x08005754   0x08005754   0x000000e4   Code   RO         4239    i.TIM1_Int_Init     timer.o
    0x08005838   0x08005838   0x000002dc   Code   RO         4240    i.TIM2_IRQHandler   timer.o
    0x08005b14   0x08005b14   0x00000120   Code   RO         4241    i.TIM2_Int_Init     timer.o
    0x08005c34   0x08005c34   0x00000010   Code   RO         4242    i.TIM3_IRQHandler   timer.o
    0x08005c44   0x08005c44   0x000000c4   Code   RO         4243    i.TIM3_Int_Init     timer.o
    0x08005d08   0x08005d08   0x000000c8   Code   RO         4244    i.TIM4_IRQHandler   timer.o
    0x08005dd0   0x08005dd0   0x0000005c   Code   RO         4245    i.TIM4_Int_Init     timer.o
    0x08005e2c   0x08005e2c   0x00000046   Code   RO         4246    i.TIMX_Int_Init     timer.o
    0x08005e72   0x08005e72   0x00000018   Code   RO         2291    i.TIM_ARRPreloadConfig  stm32f10x_tim.o
    0x08005e8a   0x08005e8a   0x00000006   Code   RO         2298    i.TIM_ClearITPendingBit  stm32f10x_tim.o
    0x08005e90   0x08005e90   0x00000018   Code   RO         2303    i.TIM_Cmd           stm32f10x_tim.o
    0x08005ea8   0x08005ea8   0x0000001e   Code   RO         2305    i.TIM_CtrlPWMOutputs  stm32f10x_tim.o
    0x08005ec6   0x08005ec6   0x00000006   Code   RO         2318    i.TIM_GetCapture1   stm32f10x_tim.o
    0x08005ecc   0x08005ecc   0x00000006   Code   RO         2319    i.TIM_GetCapture2   stm32f10x_tim.o
    0x08005ed2   0x08005ed2   0x00000006   Code   RO         2320    i.TIM_GetCapture3   stm32f10x_tim.o
    0x08005ed8   0x08005ed8   0x00000008   Code   RO         2321    i.TIM_GetCapture4   stm32f10x_tim.o
    0x08005ee0   0x08005ee0   0x00000022   Code   RO         2324    i.TIM_GetITStatus   stm32f10x_tim.o
    0x08005f02   0x08005f02   0x00000002   PAD
    0x08005f04   0x08005f04   0x000000ac   Code   RO         2326    i.TIM_ICInit        stm32f10x_tim.o
    0x08005fb0   0x08005fb0   0x00000012   Code   RO         2328    i.TIM_ITConfig      stm32f10x_tim.o
    0x08005fc2   0x08005fc2   0x00000002   PAD
    0x08005fc4   0x08005fc4   0x00000098   Code   RO         2332    i.TIM_OC1Init       stm32f10x_tim.o
    0x0800605c   0x0800605c   0x00000012   Code   RO         2334    i.TIM_OC1PolarityConfig  stm32f10x_tim.o
    0x0800606e   0x0800606e   0x00000012   Code   RO         2335    i.TIM_OC1PreloadConfig  stm32f10x_tim.o
    0x08006080   0x08006080   0x000000a4   Code   RO         2337    i.TIM_OC2Init       stm32f10x_tim.o
    0x08006124   0x08006124   0x0000001a   Code   RO         2339    i.TIM_OC2PolarityConfig  stm32f10x_tim.o
    0x0800613e   0x0800613e   0x0000001a   Code   RO         2340    i.TIM_OC2PreloadConfig  stm32f10x_tim.o
    0x08006158   0x08006158   0x000000a0   Code   RO         2342    i.TIM_OC3Init       stm32f10x_tim.o
    0x080061f8   0x080061f8   0x0000001a   Code   RO         2344    i.TIM_OC3PolarityConfig  stm32f10x_tim.o
    0x08006212   0x08006212   0x00000012   Code   RO         2345    i.TIM_OC3PreloadConfig  stm32f10x_tim.o
    0x08006224   0x08006224   0x0000007c   Code   RO         2347    i.TIM_OC4Init       stm32f10x_tim.o
    0x080062a0   0x080062a0   0x0000001a   Code   RO         2348    i.TIM_OC4PolarityConfig  stm32f10x_tim.o
    0x080062ba   0x080062ba   0x0000001a   Code   RO         2349    i.TIM_OC4PreloadConfig  stm32f10x_tim.o
    0x080062d4   0x080062d4   0x00000004   Code   RO         2364    i.TIM_SetCompare1   stm32f10x_tim.o
    0x080062d8   0x080062d8   0x00000004   Code   RO         2365    i.TIM_SetCompare2   stm32f10x_tim.o
    0x080062dc   0x080062dc   0x00000004   Code   RO         2366    i.TIM_SetCompare3   stm32f10x_tim.o
    0x080062e0   0x080062e0   0x00000006   Code   RO         2367    i.TIM_SetCompare4   stm32f10x_tim.o
    0x080062e6   0x080062e6   0x00000004   Code   RO         2368    i.TIM_SetCounter    stm32f10x_tim.o
    0x080062ea   0x080062ea   0x00000012   Code   RO         2369    i.TIM_SetIC1Prescaler  stm32f10x_tim.o
    0x080062fc   0x080062fc   0x0000001a   Code   RO         2370    i.TIM_SetIC2Prescaler  stm32f10x_tim.o
    0x08006316   0x08006316   0x00000012   Code   RO         2371    i.TIM_SetIC3Prescaler  stm32f10x_tim.o
    0x08006328   0x08006328   0x0000001a   Code   RO         2372    i.TIM_SetIC4Prescaler  stm32f10x_tim.o
    0x08006342   0x08006342   0x00000002   PAD
    0x08006344   0x08006344   0x000000a4   Code   RO         2374    i.TIM_TimeBaseInit  stm32f10x_tim.o
    0x080063e8   0x080063e8   0x00000240   Code   RO         4511    i.TableToParams     paramsave.o
    0x08006628   0x08006628   0x00000088   Code   RO         4304    i.USART1_IRQHandler  usart1.o
    0x080066b0   0x080066b0   0x000000a0   Code   RO         4305    i.USART1_Init       usart1.o
    0x08006750   0x08006750   0x00000088   Code   RO         4358    i.USART2_IRQHandler  usart2.o
    0x080067d8   0x080067d8   0x000000bc   Code   RO         4359    i.USART2_Init       usart2.o
    0x08006894   0x08006894   0x0000005c   Code   RO         4400    i.USART3_IRQHandler  usart3.o
    0x080068f0   0x080068f0   0x000000b8   Code   RO         4401    i.USART3_Init       usart3.o
    0x080069a8   0x080069a8   0x00000032   Code   RO         4306    i.USARTX_Init       usart1.o
    0x080069da   0x080069da   0x00000012   Code   RO         2835    i.USART_ClearFlag   stm32f10x_usart.o
    0x080069ec   0x080069ec   0x0000001e   Code   RO         2836    i.USART_ClearITPendingBit  stm32f10x_usart.o
    0x08006a0a   0x08006a0a   0x00000018   Code   RO         2839    i.USART_Cmd         stm32f10x_usart.o
    0x08006a22   0x08006a22   0x00000002   PAD
    0x08006a24   0x08006a24   0x0000009c   Code   RO         2841    i.USART_DeInit      stm32f10x_usart.o
    0x08006ac0   0x08006ac0   0x0000001a   Code   RO         2842    i.USART_GetFlagStatus  stm32f10x_usart.o
    0x08006ada   0x08006ada   0x00000054   Code   RO         2843    i.USART_GetITStatus  stm32f10x_usart.o
    0x08006b2e   0x08006b2e   0x0000004a   Code   RO         2845    i.USART_ITConfig    stm32f10x_usart.o
    0x08006b78   0x08006b78   0x000000d8   Code   RO         2846    i.USART_Init        stm32f10x_usart.o
    0x08006c50   0x08006c50   0x0000000a   Code   RO         2853    i.USART_ReceiveData  stm32f10x_usart.o
    0x08006c5a   0x08006c5a   0x00000008   Code   RO         2856    i.USART_SendData    stm32f10x_usart.o
    0x08006c62   0x08006c62   0x00000004   Code   RO         4671    i.UsageFault_Handler  stm32f10x_it.o
    0x08006c66   0x08006c66   0x00000002   PAD
    0x08006c68   0x08006c68   0x00000054   Code   RO         3472    i.Write_IIC_Byte    oled.o
    0x08006cbc   0x08006cbc   0x0000002c   Code   RO         3473    i.Write_IIC_Command  oled.o
    0x08006ce8   0x08006ce8   0x0000002c   Code   RO         3474    i.Write_IIC_Data    oled.o
    0x08006d14   0x08006d14   0x00000024   Code   RO         4748    i.__0vsprintf       mc_w.l(printfa.o)
    0x08006d38   0x08006d38   0x00000028   Code   RO         4829    i.__ARM_fpclassify  m_ws.l(fpclassify.o)
    0x08006d60   0x08006d60   0x000000aa   Code   RO         4831    i.__kernel_poly     m_ws.l(poly.o)
    0x08006e0a   0x08006e0a   0x00000006   Code   RO         4816    i.__mathlib_dbl_infnan  m_ws.l(dunder.o)
    0x08006e10   0x08006e10   0x00000004   Code   RO         4817    i.__mathlib_dbl_infnan2  m_ws.l(dunder.o)
    0x08006e14   0x08006e14   0x0000000c   Code   RO         4818    i.__mathlib_dbl_invalid  m_ws.l(dunder.o)
    0x08006e20   0x08006e20   0x00000010   Code   RO         4821    i.__mathlib_dbl_underflow  m_ws.l(dunder.o)
    0x08006e30   0x08006e30   0x0000000e   Code   RO         4890    i.__scatterload_copy  mc_w.l(handlers.o)
    0x08006e3e   0x08006e3e   0x00000002   Code   RO         4891    i.__scatterload_null  mc_w.l(handlers.o)
    0x08006e40   0x08006e40   0x0000000e   Code   RO         4892    i.__scatterload_zeroinit  mc_w.l(handlers.o)
    0x08006e4e   0x08006e4e   0x00000002   PAD
    0x08006e50   0x08006e50   0x0000000c   Code   RO         4868    i.__set_errno       mc_w.l(errno.o)
    0x08006e5c   0x08006e5c   0x00000184   Code   RO         4749    i._fp_digits        mc_w.l(printfa.o)
    0x08006fe0   0x08006fe0   0x000006dc   Code   RO         4750    i._printf_core      mc_w.l(printfa.o)
    0x080076bc   0x080076bc   0x00000024   Code   RO         4751    i._printf_post_padding  mc_w.l(printfa.o)
    0x080076e0   0x080076e0   0x0000002e   Code   RO         4752    i._printf_pre_padding  mc_w.l(printfa.o)
    0x0800770e   0x0800770e   0x0000000a   Code   RO         4754    i._sputc            mc_w.l(printfa.o)
    0x08007718   0x08007718   0x00000028   Code   RO         3350    i.abs_limit         control.o
    0x08007740   0x08007740   0x00000270   Code   RO         4717    i.asin              m_ws.l(asin.o)
    0x080079b0   0x080079b0   0x00000220   Code   RO         4806    i.atan              m_ws.l(atan.o)
    0x08007bd0   0x08007bd0   0x00000180   Code   RO         4727    i.atan2             m_ws.l(atan2.o)
    0x08007d50   0x08007d50   0x00000060   Code   RO         3732    i.data_fittle       bmp280.o
    0x08007db0   0x08007db0   0x00000044   Code   RO         3197    i.delay_init        delay.o
    0x08007df4   0x08007df4   0x0000004c   Code   RO         3198    i.delay_ms          delay.o
    0x08007e40   0x08007e40   0x0000004c   Code   RO         3199    i.delay_us          delay.o
    0x08007e8c   0x08007e8c   0x0000004c   Code   RO         4602    i.invSqrt           imu.o
    0x08007ed8   0x08007ed8   0x00000220   Code   RO         4630    i.main              main.o
    0x080080f8   0x080080f8   0x00000016   Code   RO         3476    i.oled_pow          oled.o
    0x0800810e   0x0800810e   0x0000004c   Code   RO         4835    i.sqrt              m_ws.l(sqrt.o)
    0x0800815a   0x0800815a   0x00000002   PAD
    0x0800815c   0x0800815c   0x00000050   Code   RO         4402    i.u3_printf         usart3.o
    0x080081ac   0x080081ac   0x000030d8   Data   RO         3478    .constdata          oled.o
    0x0800b284   0x0800b284   0x00000004   PAD
    0x0800b288   0x0800b288   0x00000050   Data   RO         4718    .constdata          m_ws.l(asin.o)
    0x0800b2d8   0x0800b2d8   0x00000098   Data   RO         4807    .constdata          m_ws.l(atan.o)
    0x0800b370   0x0800b370   0x00000008   Data   RO         4833    .constdata          m_ws.l(qnan.o)
    0x0800b378   0x0800b378   0x00000020   Data   RO         4888    Region$$Table       anon$$obj.o


    Execution Region RW_IRAM1 (Exec base: 0x20000000, Load base: 0x0800b398, Size: 0x00001180, Max: 0x00005000, ABSOLUTE)

    Exec Addr    Load Addr    Size         Type   Attr      Idx    E Section Name        Object

    0x20000000   0x0800b398   0x00000014   Data   RW           21    .data               system_stm32f10x.o
    0x20000014   0x0800b3ac   0x00000014   Data   RW         1693    .data               stm32f10x_rcc.o
    0x20000028   0x0800b3c0   0x0000000e   Data   RW         3120    .data               filter.o
    0x20000036   0x0800b3ce   0x00000004   Data   RW         3200    .data               delay.o
    0x2000003a   0x0800b3d2   0x00000002   PAD
    0x2000003c   0x0800b3d4   0x00000018   Data   RW         3352    .data               control.o
    0x20000054   0x0800b3ec   0x00000004   Data   RW         3734    .data               bmp280.o
    0x20000058   0x0800b3f0   0x0000002e   Data   RW         4019    .data               mpu9250.o
    0x20000086   0x0800b41e   0x00000010   Data   RW         4247    .data               timer.o
    0x20000096   0x0800b42e   0x00000002   PAD
    0x20000098   0x0800b430   0x00000006   Data   RW         4310    .data               usart1.o
    0x2000009e   0x0800b436   0x00000002   Data   RW         4362    .data               usart2.o
    0x200000a0   0x0800b438   0x00000008   Data   RW         4404    .data               usart3.o
    0x200000a8   0x0800b440   0x00000009   Data   RW         4440    .data               serial_oscilloscope.o
    0x200000b1   0x0800b449   0x00000003   PAD
    0x200000b4   0x0800b44c   0x00000021   Data   RW         4604    .data               imu.o
    0x200000d5   0x0800b46d   0x00000003   PAD
    0x200000d8   0x0800b470   0x00000004   Data   RW         4869    .data               mc_w.l(errno.o)
    0x200000dc        -       0x00000500   Zero   RW         3119    .bss                filter.o
    0x200005dc        -       0x00000364   Zero   RW         3351    .bss                control.o
    0x20000940        -       0x00000020   Zero   RW         3733    .bss                bmp280.o
    0x20000960        -       0x0000000e   Zero   RW         4018    .bss                mpu9250.o
    0x2000096e        -       0x000000c8   Zero   RW         4309    .bss                usart1.o
    0x20000a36        -       0x00000190   Zero   RW         4361    .bss                usart2.o
    0x20000bc6        -       0x00000100   Zero   RW         4403    .bss                usart3.o
    0x20000cc6        -       0x00000071   Zero   RW         4439    .bss                serial_oscilloscope.o
    0x20000d37   0x0800b474   0x00000001   PAD
    0x20000d38        -       0x0000003c   Zero   RW         4512    .bss                paramsave.o
    0x20000d74        -       0x0000000c   Zero   RW         4603    .bss                imu.o
    0x20000d80        -       0x00000400   Zero   RW           97    STACK               startup_stm32f10x_md.o


==============================================================================

Image component sizes


      Code (inc. data)   RO Data    RW Data    ZI Data      Debug   Object Name

      1398         58          0          4         32      12272   bmp280.o
       692        108          0          0          0       4146   bmpiic.o
      2520        162          0         24        868       9558   control.o
         0          0          0          0          0       4540   core_cm3.o
       220         26          0          4          0       1647   delay.o
       430         20          0         14       1280      10090   filter.o
       174         10          0          0          0       2241   flash.o
      1900        102          0         33         12       3595   imu.o
         0          0          0          0          0     244244   key.o
        60          8          0          0          0        471   led.o
       544        176          0          0          0        635   main.o
       172         22          0          0          0       1949   misc.o
       798         98          0         46         14       8598   mpu9250.o
       942        108          0          0          0       6818   mpuiic.o
      1784         44      12504          0          0      11433   oled.o
      2980       1030          0          0         60       7801   paramsave.o
        96         24          0          0          0       1956   qudong.o
      4696        136          0          9        113      10060   serial_oscilloscope.o
        36          8        236          0       1024        784   startup_stm32f10x_md.o
       318         32          0          0          0       4694   stm32f10x_flash.o
       286          0          0          0          0       2928   stm32f10x_gpio.o
        22          0          0          0          0       2975   stm32f10x_it.o
       340         44          0         20          0       5420   stm32f10x_rcc.o
      1968        200          0          0          0      22152   stm32f10x_tim.o
       646         28          0          0          0       7696   stm32f10x_usart.o
       328         28          0         20          0     255265   system_stm32f10x.o
      1822         88          0         16          0       6180   timer.o
       346         22          0          6        200       4308   usart1.o
       324         22          0          2        400       2530   usart2.o
       356         26          0          8        256       2745   usart3.o

    ----------------------------------------------------------------------
     26222       2630      12776        216       4260     659731   Object Totals
         0          0         32          0          0          0   (incl. Generated)
        24          0          4         10          1          0   (incl. Padding)

    ----------------------------------------------------------------------

      Code (inc. data)   RO Data    RW Data    ZI Data      Debug   Library Member Name

       624         52         80          0          0        168   asin.o
       544         70        152          0          0        124   atan.o
       384         38          0          0          0        144   atan2.o
        38          6          0          0          0        272   dunder.o
        40          0          0          0          0         68   fpclassify.o
       170          0          0          0          0         96   poly.o
         0          0          8          0          0          0   qnan.o
        76          0          0          0          0         84   sqrt.o
         0          0          0          0          0          0   entry.o
         0          0          0          0          0          0   entry10a.o
         0          0          0          0          0          0   entry11a.o
         8          4          0          0          0          0   entry2.o
         4          0          0          0          0          0   entry5.o
         0          0          0          0          0          0   entry7b.o
         0          0          0          0          0          0   entry8b.o
         8          4          0          0          0          0   entry9a.o
        12          6          0          4          0         68   errno.o
        30          0          0          0          0          0   handlers.o
        36          8          0          0          0         68   init.o
         0          0          0          0          0          0   iusefp.o
        30          0          0          0          0         68   llshl.o
        36          0          0          0          0         68   llsshr.o
        32          0          0          0          0         68   llushr.o
        36          0          0          0          0        108   memseta.o
      2272         86          0          0          0        516   printfa.o
        14          0          0          0          0         68   strlen.o
        44          0          0          0          0         80   uidiv.o
        98          0          0          0          0         92   uldiv.o
        48          0          0          0          0         68   cdcmple.o
        48          0          0          0          0         68   cdrcmple.o
        20          0          0          0          0         68   cfcmple.o
        20          0          0          0          0         68   cfrcmple.o
        56          0          0          0          0         88   d2f.o
       334          0          0          0          0        148   dadd.o
       222          0          0          0          0        100   ddiv.o
       186          0          0          0          0        176   depilogue.o
        50          0          0          0          0         76   dfixui.o
        48          0          0          0          0         68   dfixul.o
        34          0          0          0          0         76   dflti.o
        26          0          0          0          0         76   dfltui.o
       228          0          0          0          0         96   dmul.o
        46          0          0          0          0         80   dscalb.o
       162          0          0          0          0        100   dsqrt.o
        38          0          0          0          0         68   f2d.o
       176          0          0          0          0        140   fadd.o
       124          0          0          0          0         88   fdiv.o
       110          0          0          0          0        168   fepilogue.o
        50          0          0          0          0         68   ffixi.o
        40          0          0          0          0         68   ffixui.o
        18          0          0          0          0         68   fflti.o
        10          0          0          0          0         68   ffltui.o
       100          0          0          0          0         76   fmul.o

    ----------------------------------------------------------------------
      6738        274        240          4          0       4328   Library Totals
         8          0          0          0          0          0   (incl. Padding)

    ----------------------------------------------------------------------

      Code (inc. data)   RO Data    RW Data    ZI Data      Debug   Library Name

      1876        166        240          0          0        956   m_ws.l
      2660        108          0          4          0       1204   mc_w.l
      2194          0          0          0          0       2168   mf_w.l

    ----------------------------------------------------------------------
      6738        274        240          4          0       4328   Library Totals

    ----------------------------------------------------------------------

==============================================================================


      Code (inc. data)   RO Data    RW Data    ZI Data      Debug   

     32960       2904      13016        220       4260     651731   Grand Totals
     32960       2904      13016        220       4260     651731   ELF Image Totals
     32960       2904      13016        220          0          0   ROM Totals

==============================================================================

    Total RO  Size (Code + RO Data)                45976 (  44.90kB)
    Total RW  Size (RW Data + ZI Data)              4480 (   4.38kB)
    Total ROM Size (Code + RO Data + RW Data)      46196 (  45.11kB)

==============================================================================

