:020000040800F2
:1000000080110020010100081B3C00083D2D000864
:10001000173C000825250008636C0008000000005C
:10002000000000000000000000000000C1510008B6
:100030003D28000800000000170100081901000811
:100040001B0100081B0100081B0100081B01000820
:100050001B0100081B0100081B0100081B01000810
:100060001B0100081B0100081B0100081B01000800
:100070001B0100081B0100081B0100081B010008F0
:100080001B0100081B0100081B0100081B010008E0
:100090001B0100081B0100081B0100081B010008D0
:1000A0001B0100081B0100081B0100081B010008C0
:1000B00039580008355C0008095D00081B0100087C
:1000C0001B0100081B0100081B0100081B010008A0
:1000D0001B010008296600085167000895680008A0
:1000E0001B0100081B0100081B010008DFF80CD0F1
:1000F00000F0A2FC00480047D97E000880110020D3
:100100000648804706480047FEE7FEE7FEE7FEE7B1
:10011000FEE7FEE7FEE7FEE7FEE7FEE7B554000870
:10012000ED000008D2B201E000F8012B491EFBD21D
:1001300070470022F6E710B513460A4604461946F2
:10014000FFF7F0FF204610BD421C10F8011B0029EC
:10015000FBD1801A7047F0B480EA0102D40F42004C
:10016000B2EB410F02D20246084611464A0042D085
:10017000C30DDDB2C1F3C752AD1A202D35DAC1F37C
:10018000160141F4000204B15242C5F1200602FA00
:1001900006F12A411044B3EBD05F23D0C4B1012D46
:1001A000A0EBC35009DCF0BC4FF0004202EAC3529E
:1001B000DBB200F5000000F016BB400000F18070DB
:1001C00000EBC350A0F1807040EAD170490009E013
:1001D000490841EAC071A0EBC35000F50000400897
:1001E00000EBC350F0BC00F0F5BA6142012202EB13
:1001F0004101001BF6E7F0BC704781F00041AAE71F
:1002000080F00040A7E780EA010210B502F0004349
:10021000400022D04A001FD0010E01EB1261C0F352
:100220005600C2F3560240F4000042F40002A0FB64
:10023000022000047F39140400D0401C50EA124010
:1002400001D44000491EC2B20C0604EBD010401C81
:100250004008802A02D003E0002010BD20F00100F9
:10026000002900DA0020184310BD30B480EA0102F2
:1002700002F0004530F0004221F0004013D090B170
:10028000C30DD40DC2F31601C0F31600E41A41F4F5
:10029000000140F400027D34914201D3641C00E06F
:1002A0004900002C02DA30BC002070474FF40000F7
:1002B0000023914201D3891A034340084FEA4101C8
:1002C000F7D151B1914202D14FF0004105E002D285
:1002D0004FF0010101E06FF0010103EBC45028442D
:1002E00030BC00F077BA2DE9FE4F804681EA03006A
:1002F000C00F0C46009021F0004123F00045B8EB00
:100300000200A94105D24046214690461C460B46B4
:10031000024623F00040104347D0270DC7F30A00E0
:10032000C3F30A510290401A019040286BDAC3F3DC
:10033000130040F4801B0098924620B10023D2EBBA
:10034000030A63EB0B0B01985946C0F1400250467B
:1003500000F00FFA06460D4650465946019A00F045
:1003600027FA10EB08006141002487EA115284EA61
:10037000E7731A4340D0009A62B3019A012A4FEA08
:10038000075215DC001B61EB02014FF0004202EA4C
:100390000752CDE90042001C41F5801132462B4640
:1003A00000F05EFA03B0BDE8F08F40462146F9E761
:1003B000001B61EB0201001C41F5801300185B413A
:1003C0002018A2F5001747EB030140EAD570B619D3
:1003D0006D4111E06D084FEA360645EAC0754FEAF7
:1003E0000752001B61EB0201001C41F58011490816
:1003F0004FEA30000019514132462B4603B0BDE8A8
:10040000F04F00F01EBA0098012240000023D0EB0C
:10041000020263EBE073009821464FEAE074B8EB08
:10042000000061EB0401E9E783F000435BE781F042
:10043000004158E72DE9FE4F81EA030404F000442F
:1004400021F0004100944FF0000B23F0004350EAEC
:1004500001045ED052EA03045BD0C3F30A54C1F333
:100460000A552C44A4F2F3340194A0FB0254C1F3C6
:10047000130141F48011C3F3130343F4801301FB10
:10048000024400FB034E840A970A44EA815447EA77
:100490008357A4FB076802958D0A05FB07854FEA81
:1004A000932C04FB0C542705029D4FEA065847EA9B
:1004B0001637B5EB08056EEB070C870E920E47EA70
:1004C000811742EA8312A7FB0201B6EB0B0164EB32
:1004D00000042B0D43EA0C335E1844EB1C50DA4643
:1004E0005146E7FB0201C5F313044FEA0B3343EA1D
:1004F00014534FEA0432019C43EA0603A4F10C04AE
:100500000294009CCDE900B400F0AAF903B0BDE864
:10051000F08F00200146F9E7C10F80EAE07008443F
:10052000CA079623002100F05EB9962300221146E7
:1005300000F059B90EB5C10F80EAE0700844CA074F
:10054000002140F233438DE80E000A460B4600F0CE
:1005500087F903B000BD0EB540F23341029100218E
:10056000CDE900110A460B4600F07AF903B000BD50
:1005700000F0004220F00040C10DC0F3160040F42E
:1005800000007F2901DA00207047962903DCC1F1C1
:100590009601C84001E096398840002AF4D04042D4
:1005A000704720F00040C10DC0F3160040F4000079
:1005B0007F2901DA00207047962903DCC1F19601FA
:1005C000C8407047963988407047C1F30A5210B549
:1005D000C1F3130140F2FF3341F480119A4201DA72
:1005E000002010BD40F233439A42A2F2334203DCB2
:1005F000524200F0CDF810BD904010BD00F0004216
:1006000030F000400AD0C10D01F56071C0F3160052
:1006100042EA0151C20840071143704700200146D9
:100620007047000030B5041E71F1000404DB4FF088
:100630000044404264EB0101141E73F1000405DB29
:100640001C464FF00043524263EB04038B4208BF49
:10065000824230BD30B5041E71F1000404DB4FF05E
:100660000044404264EB0101141E73F1000405DBF9
:100670001C464FF00043524263EB0403994208BF0B
:10068000904230BD01F0004330B421F0004150EA07
:10069000010206D00A0DA2F56072C1F31301002A0F
:1006A00002DC30BC00207047440F44EAC104C100A2
:1006B000E01830BC00EBC25000F08CB8002801DB21
:1006C000C0F10040002901DBC1F1004181427047C7
:1006D000002801DBC0F10040002901DBC1F100412D
:1006E0008842704730B50B46014600202022012485
:1006F00009E021FA02F59D4205D303FA02F5491BF0
:1007000004FA02F52844151EA2F10102F1DC30BD05
:100710002DE9F05F0546002092469B468846064636
:10072000814640241BE0284641464746224600F0C9
:100730002FF853465A46C01A914110D31146184615
:10074000224600F016F82D1A67EB01084F462246A4
:100750000120002100F00DF817EB00094E41201E8A
:10076000A4F10104DFDC484631462A464346BDE891
:10077000F09F202A04DB203A00FA02F100207047A3
:100780009140C2F1200320FA03F3194390407047CF
:10079000202A04DB203A21FA02F00021704721FAD6
:1007A00002F3D040C2F1200291400843194670473D
:1007B000202A06DBCB17203A41FA02F043EAE07325
:1007C00006E041FA02F3D040C2F120029140084312
:1007D000194670470029A8BF7047401C490008BF50
:1007E00020F00100704710B4B0FA80FC00FA0CF061
:1007F00050EA010404BF10BC704749B1CCF1200499
:1008000021FA04F411FA0CF118BF01212143084325
:10081000A3EB0C01CB1D4FEA00614FEA102042BF51
:10082000002010BC704700EBC35010440029A4BF47
:1008300010BC7047401C490008BF20F0010010BCEC
:10084000704710B5141E73F1000408DA401C41F122
:10085000000192185B411A4301D120F0010010BD44
:100860002DE9F04D92469B4611B1B1FA81F202E0BA
:10087000B0FA80F220329046FFF77BFF04460F4625
:1008800040EA0A0041EA0B0153465A46084313D096
:10089000114653EA010019D0C8F140025046FFF753
:1008A00077FF05460E46504659464246FFF761FF20
:1008B000084305D0012004E020463946BDE8F08D0C
:1008C0000020054346EAE0762C4337430A98630547
:1008D000E40AA0EB08000022FD0A44EA47540A306B
:1008E00002D500200146E9E7010510196941DDE95B
:1008F000084500196941BDE8F04DA2E72DE9F04D2A
:1009000081EA030404F0004B21F0004514464FF047
:10091000000A23F0004150EA050220D054EA010207
:100920001DD0C5F30A570246C5F31303C1F31300E4
:10093000C1F30A5640F4801543F48013A7EB060870
:10094000101BD64608F2FD3873EB050002D308F100
:10095000010801E092185B41B8F1000F03DA0020B2
:100960000146BDE8F08D00204FF480110646844614
:100970000EE0171B73EB050705D3121B63EB050392
:1009800006434CEA010C49084FEA300092185B41DB
:1009900050EA0107EDD152EA030012D082EA0400C6
:1009A00083EA0501084305D0101BAB4106D20122A2
:1009B000002306E000224FF0004302E06FF0010246
:1009C00053101AEB06004CEB085110EB0A0041EBF8
:1009D0000B01BDE8F04DFFF734BF70B521F00043C7
:1009E00003430CD0C1F30A550024D5EB040564EB96
:1009F0000403D617AD1AB34102DB0020014670BDD7
:100A0000201841EB025170BDC1F30A52C1F313012A
:100A100040F2FF3341F480119A4202DA002001468D
:100A2000704740F233439A42A2F2334202DC524210
:100A3000FFF7AEBEFFF79DBE064C074D06E0E0682F
:100A400040F0010394E8070098471034AC42F6D315
:100A5000FFF750FB78B3000898B300082DE9F04D7C
:100A600000231A461B1A8A4103DB00200146BDE819
:100A7000F08DC1F30A52C1F3130141F480154FF018
:100A8000000BD10702D100186D41521E0027044609
:100A900040F2FF11384601EB620A3E4680460246AC
:100AA00000204FF48011FFF773FEC2197141BB188B
:100AB00046EB0100B4EB030C75EB000C04D3E41A15
:100AC00065EB000517460E46241908F101006D413B
:100AD00080463428E3DDF91946EB0600091BA841DE
:100AE00003D24FF0FF32134601E0002213461BEB06
:100AF000070046EB0A51BDE8F04DFFF7A2BE00002B
:100B000001B590B0FB480078401CFA490870FA48DB
:100B10000078401CF8490870F8480078401CF749F4
:100B20000870F7480078401CF5490870F5480078CF
:100B3000401CF4490870EF4800780A2805DB0020C3
:100B4000EC4908700120F0494870EB48007805280E
:100B500005DB0020E84908700120EB498870E74870
:100B600000780F2805DB0020E44908700120E649E1
:100B7000C870E3480078142805DB0020E0490870BD
:100B80000120E1490871DF480078192805DB0020C1
:100B9000DC4908700120DC494871DB484078F8B135
:100BA0000020D94948701098C06980F000400F902B
:100BB0001098806980F000400E90109890F85203D1
:100BC000109991F85013CDE900101098406F0D90D6
:100BD000109840690C90DDE90D310F9A01F018F87A
:100BE000C948807800285DD00020C74988701098D7
:100BF00080680690FFF7BCFC00B20F901098406828
:100C00000690FFF7B5FC00B20E90109800680690B1
:100C1000FFF7AEFC00B20D901098006BBB49059039
:100C2000FFF7F1FA0690FFF7A3FC00B20C901098C2
:100C3000C06AB6490590FFF7E6FA0690FFF798FC00
:100C400000B20B901098806AB0490590FFF7DBFA6C
:100C50000690FFF78DFC00B20A901098806C069009
:100C6000FFF786FC00B209901098406C0690FFF7E1
:100C70007FFC00B208901098006C0690FFF778FC9B
:100C800000B200230790DDE90D120F98CDE90403AF
:100C9000CDE90212DDE90B01CDE9000107A80FC87B
:100CA00000F0F8FE9848C07848B300209649C87014
:100CB0001098C06E0B90FFF774FC80B20F901098E4
:100CC000006F0B90FFF76DFC80B20E901098806E55
:100CD0000B90FFF766FC80B20D901098406E0B9061
:100CE000FFF75FFC80B20C9000200290039004900C
:100CF0000590009001900CA80FC800F019FE8248E2
:100D00000079F0B1002080490871009001900290B4
:100D100003901098B0F8480380B20F901098B0F884
:100D2000440380B20E901098B0F8400380B20D904A
:100D30001098B0F83C0380B20C900DA90EC900F0D9
:100D40005BFC71488079002850D000206E49887182
:100D500002900390049005900090034602460146DD
:100D60000190012000F0DEFC00200290039004902E
:100D7000059000900346024601460190022000F0D3
:100D8000D1FC00200290039004900590009003464F
:100D9000024601460190032000F0C4FC00200290AE
:100DA000039004900590009003460246014601908E
:100DB000042000F0B7FC00200290039004900590FE
:100DC00000900346024601460190052000F0AAFC6F
:100DD0000020029003900490059000900346024684
:100DE00001460190062000F09DFCA5E04648C07930
:100DF00050B300204449C8711098D0F83432D0F86C
:100E00003822D0F83C12D0F8E401CDE90332059144
:100E100002901098D0F8E0011099D1F8DC11CDE9DA
:100E200000101098D0F88C010F901098D0F888011D
:100E30000E901098D0F884010D9001460120DDE954
:100E40000E2300F06FFC77E02F48007A40B30020BB
:100E50002D4908721098D0F82C3100F5987106C908
:100E6000D0F8DC00CDE90331059202901098D0F85B
:100E7000D8001099D1F8D410CDE900101098D0F80E
:100E800084000F901098D0F880000E901098C06FDA
:100E90000D9001460220DDE90E2300F043FC4BE0FB
:100EA0001948407A28B30020174948720021109849
:100EB000D0F8EC02CDE90201049105911098D0F828
:100EC000E8021099D1F8E412CDE900101098D0F89A
:100ED00094020F901098D0F890020E901098D0F8CD
:100EE0008C020D9001460320DDE90E2300F01AFC70
:100EF00022E00DE0A8000020A9000020AA000020A8
:100F0000AB000020AC000020C60C0020333365424B
:100F10000A48807A18B10020084988720CE0074816
:100F2000C07A18B100200549C87205E00348007B6B
:100F300010B100200149087311B000BDC60C00209B
:100F40002DE9FC4705460C4616464FF00009CA46F7
:100F500008E014F80A00484400F0FF090AF1010013
:100F600000F0FF0A701E5045F3DCA01910F8010CC8
:100F7000484501D0BDE8FC872078AA2802D16078D6
:100F8000AF2800D0F6E7A07801282FD120790128DA
:100F90000DD195F8520350B9FE48007840F0020098
:100FA000FC4908700020FC4908804880888020792E
:100FB00002280DD195F8520350B9F648007840F058
:100FC0000100F44908700020F449088048808880B6
:100FD0002079A02802D1002085F852032079A12889
:100FE00002D1012085F8520303F0E6FCA078022824
:100FF00015D12079012806D1E949C87108724872D3
:101000008872C87208732079A02802D10120E449AF
:1010100008702079A12802D10120E1498871A078C7
:1010200010287DD195F852030028FAD121790902C0
:1010300009B2627941EA0200FFF77CFAD94ADA4B39
:10104000CDE90001FFF7F6F90746FFF71BFBC5F8EE
:101050008401A179090209B2E27941EA0200FFF7AD
:1010600069FAD04AD04BCDE90001FFF7E3F9074612
:10107000FFF708FB4FF4C4714851217A090209B205
:10108000627A41EA0200FFF755FAC64AC64BCDE93B
:101090000001FFF7CFF90746FFF7F4FA4FF4C671E6
:1010A0004851A17A090209B2E27A41EA0200FFF747
:1010B00041FABC4ABC4BCDE90001FFF7BBF907463A
:1010C000FFF7E0FAC5F8DC01217B090209B2627B77
:1010D00041EA0200FFF72EFAB24AB34BCDE9000114
:1010E000FFF7A8F90746FFF7CDFA4FF4F071485122
:1010F000A17B090209B2E27B41EA0200FFF71AFA7A
:10110000A84AA94BCDE90001FFF794F90746FFF77C
:10111000B9FA4FF4F2714851217C090209B200E09A
:101120003DE0627C41EA0200FFF704FA9D4A9E4BD3
:10113000CDE90001FFF77EF90746FFF7A3FAC5F8EE
:101140003402A17C090209B2E27C41EA0200FFF705
:10115000F1F9944A944BCDE90001FFF76BF907468A
:10116000FFF790FA4FF40E714851217D090209B240
:10117000627D41EA0200FFF7DDF98A4A8A4BCDE938
:101180000001FFF757F90746FFF77CFA4FF40F719C
:101190004851A078494600F0E9F903F00DFCA07829
:1011A00011287DD195F852030028FAD1217909023E
:1011B00009B2627941EA0200FFF7BCF90746794AB1
:1011C000794BFFF737F9CDE90001FFF75BFAE867E4
:1011D000A179090209B2E27941EA0200FFF7AAF90E
:1011E0000746704A704BFFF725F9CDE90001FFF77C
:1011F00049FA80214851217A090209B2627A41EA0A
:101200000200FFF797F9674A674BCDE90001FFF746
:1012100011F90746FFF736FA84214851A17A0902ED
:1012200009B2E27A41EA0200FFF784F95D4A5E4BB7
:10123000CDE90001FFF7FEF80746FFF723FAC5F8EE
:10124000D400217B090209B2627B41EA0200FFF768
:1012500071F9544A544BCDE90001FFF7EBF807460A
:10126000FFF710FAD8214851A17B090209B2E27BAD
:1012700041EA0200FFF75EF907464A4A4A4BFFF788
:10128000D9F8CDE90001FFF7FDF9DC214851217CB7
:10129000090209B2627C41EA0200FFF74BF900E063
:1012A00038E007463F4A404BFFF7C4F8CDE900015C
:1012B000FFF7E8F9C5F82C01A17C090209B2E27C2C
:1012C00041EA0200FFF736F90746364A364BFFF788
:1012D000B1F8CDE90001FFF7D5F94FF49871485105
:1012E000217D090209B2627D41EA0200FFF722F97D
:1012F00007462C4A2C4BFFF79DF8CDE90001FFF77C
:10130000C1F94FF49A714851A078494600F02EF97E
:1013100003F052FBA07812287ED195F852030028E2
:10132000FAD12179090209B2627941EA0200FFF794
:1013300001F907461B4A1C4BFFF77CF8CDE9000179
:10134000FFF7A0F9C5F88C02A179090209B2E27988
:1013500041EA0200FFF7EEF80746124A124BFFF788
:1013600069F8CDE90001FFF78DF94FF42471485178
:10137000217A090209B2627A41EA0200FFF7DAF83B
:101380000746084A084BFFF755F8CDE90001FFF77B
:1013900079F90BE0760000205E0000205800002064
:1013A000C60C0020FCA9F1D24D62503F4FF42571CC
:1013B0004851A17A090209B2E27A41EA0200FFF734
:1013C000B9F807462C4A2D4BFFF734F8CDE9000158
:1013D000FFF758F9C5F8E402217B090209B2627BE4
:1013E00041EA0200FFF7A6F80746234A234BFFF71E
:1013F00021F8CDE90001FFF745F94FF43A71485162
:10140000A17B090209B2E27B41EA0200FFF792F8F0
:101410000746194A194B00E00EE0FFF70BF8CDE93B
:101420000001FFF72FF94FF43B714851A07849466E
:1014300000F09CF803F0C0FAA078132806D195F8C4
:10144000520318B9A078494600F090F8A078142803
:1014500006D195F8520318B9A078494600F086F8ED
:10146000A078152806D195F8520318B9A0784946F6
:1014700000F07CF800BF7DE5FCA9F1D24D62503F41
:1014800010B504463448007838B9AA2C05D101209B
:1014900031490870314804705DE02F480078012818
:1014A00007D1AF2C05D102202B4908702B4844707E
:1014B00051E029480078022807D1F12C05DA0320F1
:1014C000254908702548847045E0234800780328A2
:1014D0000CD1322C0ADA04201F4908701F48C4704E
:1014E0001F48047000201F49087034E01A48007833
:1014F000042819D11A480078002815DD184800780A
:10150000401E174908701748007816490978491C89
:10151000144A1170001D11490C5411480078D0B9BB
:1015200005200D49087016E00B48007805280FD1FA
:101530000020094908700B480078001D07490C5429
:1015400008480078401DC2B20748FFF7F9FC02E0E6
:1015500000200149087010BDB0000020050D0020DA
:10156000AE000020AF000020DC0500202DE9F04196
:1015700005460E460027AA200D4908704870EF2046
:1015800088700220C870084605714671002405E085
:101590000748005D3844C7B2601CC4B2062CF7DBB4
:1015A00003488771072100F005F8BDE8F0810000CD
:1015B000D30C002070B504460D4600200C4908707D
:1015C00011E00B480078215C0A4805F046FB00BF9B
:1015D0004021084805F074FA0028F9D00448007842
:1015E000401C0349087002480078A842E9DB70BD3E
:1015F000AD000020004800407FB500240026AA224C
:101600002146641C464842542146641C425406222A
:101610002146641C425400222146641C42549DF819
:1016200001202146641C42549DF800202146641C80
:1016300042549DF805202146641C42549DF8042024
:101640002046611CCCB236490A549DF80920204638
:10165000611CCCB232490A549DF808202046611C16
:10166000CCB22F490A549DF80D202046611CCCB203
:101670002B490A549DF80C202046611CCCB2284905
:101680000A549DF821202046611CCCB224490A54FA
:101690009DF820202046611CCCB221490A549DF8B7
:1016A00025202046611CCCB21D490A549DF82420F7
:1016B0002046611CCCB21A490A549DF829202046C4
:1016C000611CCCB216490A549DF828202046611CA2
:1016D000CCB213490A549DF82D202046611CCCB28F
:1016E0000F490A549DF82C202046611CCCB20C49AD
:1016F0000A54201FC870002505E00948405D3044A9
:10170000C6B2681CC5B2A542F7DB2046611CCCB24C
:1017100003490E5421460248FFF74CFF7FBD0000ED
:10172000D30C00202DE9FC5F06460F4690469946F3
:10173000DDF830B00024A246AA222146641C7A4873
:1017400042542146641C425406F10F00C2B22146A5
:10175000641C7548425400222146641C425473495B
:101760003846FEF750FD0090FEF702FF00B20190F0
:101770009DF805202146641C6B4842549DF80420C6
:101780002146641C425469494046FEF73CFD0090E6
:10179000FEF7EEFE00B201909DF805202146641C84
:1017A000614842549DF804202046611CCCB25E4939
:1017B0000A545E494846FEF726FD0090FEF7D8FE23
:1017C00000B201909DF805202046611CCCB256491C
:1017D0000A549DF804202046611CCCB252490A5498
:1017E00052495846FEF70FFD0090FEF7C1FE00B2C9
:1017F00001909DF805202046611CCCB24A490A544C
:101800009DF804202046611CCCB247490A54474940
:101810000D98FEF7F8FC0090FEF7AAFE00B20190CA
:101820009DF805202046611CCCB23F490A549DF822
:1018300004202046611CCCB23B490A543B490E9817
:10184000FEF7E1FC0090FEF793FE00B201909DF8D8
:1018500005202046611CCCB233490A549DF804206F
:101860002046611CCCB230490A5430490F98FEF72B
:10187000CAFC0090FEF77CFE00B201909DF80520A6
:101880002046611CCCB228490A549DF80420204609
:10189000611CCCB224490A5424491098FEF7B3FCC9
:1018A0000090FEF765FE00B201909DF805202046ED
:1018B000611CCCB21C490A549DF804202046611CCE
:1018C000CCB219490A5419491198FEF79CFC0090B2
:1018D000FEF74EFE00B201909DF805202046611CE7
:1018E000CCB211490A549DF804202046611CCCB2A8
:1018F0000D490A54201FC870002506E00A48405DC3
:10190000504400F0FF0A681CC5B2A542F6DB204631
:10191000611CCCB2044901F800A021460248FFF73F
:1019200049FEBDE8FC9F0000D30C002000007A4473
:101930007FB500240026AA222146641C5448425444
:101940002146641C425403222146641C4254002256
:101950002146641C42549DF801202146641C4254D7
:101960009DF800202146641C42549DF80520214624
:10197000641C42549DF804202046611CCCB24449AA
:101980000A549DF809202146601CC4B240484254C4
:101990009DF808202046611CCCB23D490A549DF8B0
:1019A0000D202046611CCCB239490A549DF80C2008
:1019B0002046611CCCB236490A549DF821202046AD
:1019C000611CCCB232490A549DF820202046611C8B
:1019D000CCB22F490A549DF825202146601CC4B280
:1019E0002B4842549DF824202046611CCCB2284943
:1019F0000A549DF829202046611CCCB224490A547F
:101A00009DF828202146601CC4B2214842549DF80C
:101A10002D202046611CCCB21D490A549DF82C2073
:101A20002046611CCCB21A490A549DF83120204648
:101A3000611CCCB216490A549DF830202046611C26
:101A4000CCB213490A549DF835202046611CCCB213
:101A50000F490A549DF834202046611CCCB20C4931
:101A60000A54201FC870002505E00948405D304435
:101A7000C6B2681CC5B2A542F7DB2046611CCCB2D9
:101A800003490E5421460248FFF794FD7FBD000034
:101A9000D30C00202DE9F84F06460F469046994694
:101AA000DDF828B00024A246AA222146641C57482B
:101AB00042542146641C425402222146641C425472
:101AC00000222146641C425400969DF801202146C4
:101AD000641C42549DF800202146641C4254009727
:101AE0009DF801202146641C42549DF800202046A8
:101AF000611CCCB245490A54CDF800809DF8012004
:101B00002046611CCCB241490A549DF80020204671
:101B1000611CCCB23D490A54CDF800909DF80120DB
:101B20002046611CCCB239490A549DF80020204659
:101B3000611CCCB235490A54CDF800B09DF80120A3
:101B40002046611CCCB231490A549DF80020204641
:101B5000611CCCB22D490A540B9800909DF80120CD
:101B60002046611CCCB229490A549DF80020204629
:101B7000611CCCB225490A540C9800909DF80120B4
:101B80002046611CCCB221490A549DF80020204611
:101B9000611CCCB21D490A540D9800909DF801209B
:101BA0002046611CCCB219490A549DF800202046F9
:101BB000611CCCB215490A540E9800909DF8012082
:101BC0002046611CCCB211490A549DF800202046E1
:101BD000611CCCB20D490A54201FC870002506E0D4
:101BE0000A48405D504400F0FF0A681CC5B2A54297
:101BF000F6DB2046611CCCB2044901F800A0214666
:101C00000248FFF7D7FCBDE8F88F0000D30C002096
:101C10002DE9FE4F82460E4617469846DDF830B055
:101C20000024CDF80480A146AA222146641C48481D
:101C300042542146641C425401222146641C4254F1
:101C400000222146641C425442495046FEF7DBFA0A
:101C50000090FEF78DFC00B202909DF8092021460D
:101C6000641C3B4842549DF808202146641C4254A1
:101C700038493046FEF7C7FA0090FEF779FC00B20B
:101C800002909DF809202146641C314842549DF879
:101C900008202146601CC4B22D4842542D493846C4
:101CA000FEF7B1FA0090FEF763FC00B202909DF8D7
:101CB00009202046611CCCB225490A549DF8082011
:101CC0002046611CCCB222490A549DF807202046C8
:101CD000611CCCB21E490A549DF806202046611CA6
:101CE000CCB21B490A549DF805202046611CCCB299
:101CF00017490A549DF804202146601CC4B21448B8
:101D000042542046611CCCB2114901F800B0214672
:101D1000621CD4B20E4A0D985054201F1146C87050
:101D2000002506E00A48405D484400F0FF09681CB1
:101D3000C5B2A542F6DB2046611CCCB2044901F8CD
:101D4000009021460248FFF735FCBDE8FE8F0000F9
:101D5000D30C00200000C84210B586B00024182122
:101D60006846FEF7E6F96B4618228821762000F0D7
:101D7000A8F904469DF800009DF8011040EA0120F2
:101D8000334908809DF802009DF8031049B240EAEB
:101D900001202F4948809DF804009DF8051049B2A4
:101DA00040EA01202A4988809DF806009DF8071026
:101DB00040EA01202649C8809DF808009DF80910D6
:101DC00049B240EA0120224908819DF80A009DF8A5
:101DD0000B1049B240EA01201D4948819DF80C00D2
:101DE0009DF80D1049B240EA0120194988819DF8FB
:101DF0000E009DF80F1049B240EA01201449C88135
:101E00009DF810009DF8111049B240EA01201049D8
:101E100008829DF812009DF8131049B240EA012093
:101E20000B4948829DF814009DF8151049B240EA0C
:101E30000120074988829DF816009DF8171049B2C5
:101E400040EA01200249C882204606B010BD0000C9
:101E50004009002070B50025002410E0D021762034
:101E600000F00BF90446572C03D0582C01D0592C04
:101E700000D107E0681C85B2012005F0BBFFB5F575
:101E80007A7FEBDB00BFB5F57A7F01D1012070BD11
:101E9000014804770020FAE74009002030B50446E5
:101EA00000BF00BF00BF2F4880694FF47A45C5EBE3
:101EB000600188104043C0122A4DB5F9105000FB54
:101EC00005F32848B0F90E00484303EB400398108F
:101ED000244DAD8900EB0543881040434013214D4C
:101EE000B5F90A506843C5101E48B0F908004843C8
:101EF00005EB6000811401F500401A4DED88684340
:101F0000C113C4F58010A0EB233040F6354500FB2B
:101F100005F2B2F1004F06D219B15000B0FBF1F258
:101F200008E0002030BD19B1B2FBF1F0420001E041
:101F30000020F7E7D0084043C0080A4DB5F9165015
:101F4000684301139008074DB5F9145068434313D3
:101F5000C818044DB5F91250284402EB201210465F
:101F6000E0E700004009002030B5014600220023D0
:101F70000020CC100E4D2D88A4EB45040C4DB5F976
:101F800002506C43E2120A4C2488C4EB21146443CF
:101F90002413074DB5F904506C43A313D418044D12
:101FA000AC612C46A46904EB84048034201230BD5B
:101FB0004009002010B500F083F9FFF74BFF08B18E
:101FC000012010BDFFF7C8FE08B10320F9E7032088
:101FD00000F0B2F808B10420F3E7002000F0DAF8CE
:101FE00008B10520EDE7002000F0C2F808B1062096
:101FF000E7E70020E5E77CB504460D4600200190A8
:1020000000900026694601A800F00FF8064656B970
:102010000098FFF7A9FF28600198FFF73FFF2060B5
:10202000204605F095FE30467CBD7CB504460D4645
:1020300000200090019000266B460622F7217620B2
:1020400000F03FF806469DF8000000039DF80110DF
:1020500040EA01109DF8021040EA111020609DF83E
:10206000030000039DF8041040EA01109DF80510DC
:1020700040EA1110286030467CBD70B504460D461C
:1020800000F0D2F9002141EA4401C8B200F098F909
:1020900000F016FA284600F093F900F011FA00F06B
:1020A000C3F9012101EB4401C8B200F089F900F045
:1020B00007FA002000F04CF9064600F0DBF9304644
:1020C00070BD2DE9F04106460F4614461D4600F04E
:1020D000ABF9002141EA4601C8B200F071F900F005
:1020E000EFF920B100F0C6F90120BDE8F0813846D3
:1020F00000F066F900F0E4F900F096F9012101EB37
:102100004601C8B200F05CF900F0DAF90DE0012CEC
:1021100004D1002000F01CF9287003E0012000F039
:1021200017F92870601EC4B26D1C002CEFD100F0AE
:10213000A1F90020D9E7000070B50446002500266B
:10214000032C0FDC0948807F40010849C97F00EB60
:1021500081002044C5B22A46F421762000F062F8BE
:10216000064600E00226304670BD0000400900200F
:1021700070B504460025F5217620FFF77EFF054661
:10218000284664F3471005462A46F521762000F0DC
:1021900049F870BD70B5044600260025042C3CDCCF
:1021A000F4217620FFF769FF0546052C21D2DFE8F0
:1021B00004F003080E141A00012019498877C87723
:1021C00017E00120164988770220C87711E0012026
:1021D000134988770320C8770BE0012010498877DE
:1021E0000420C87705E002200D4988770520C877CC
:1021F00000BF00BF0A48817F284661F347100546AB
:102200000748C17F284661F3840005462A46F42129
:10221000762000F007F8064600E00126304670BD43
:102220004009002070B504460D46164600F0FCF843
:10223000002141EA4401C8B200F0C2F800F040F9C0
:1022400018B100F017F9012070BD284600F0B8F869
:1022500000F036F9304600F0B3F800F031F918B16B
:1022600000F008F90120EFE700F004F90020EBE7A7
:1022700010B500200F4908600F48006820F0F000FA
:102280000D4908600846006840F0300008600020F2
:102290000A49C1F8A401022005F0D2FD0120054938
:1022A0000860022005F0CCFD00200449C1F8A0011F
:1022B00010BD0000A0812142040C01400080214299
:1022C00008B50121082002F099FE4FF44070ADF8E6
:1022D000000010208DF8030003208DF802006946ED
:1022E000044800F000FC0120034908600349C1F8DC
:1022F000A40108BD000C0140A081214200802142C0
:1023000010B500200F4908600F48006820F0F00069
:102310000D4908600846006840F030000860012060
:102320000A49C1F8A401022005F08AFD01200549EF
:102330000860022005F084FD00200449C1F8A001D6
:1023400010BD0000A0812142040C01400080214208
:1023500070B5054600241748006820F0F0001549C4
:1023600008600846006840F080000860002616E01B
:10237000002011490860022005F062FD01200F498C
:10238000C1F8A0016006040E0B487C38006808B153
:10239000601CC4B2012005F053FD701CC6B2082EAB
:1023A000E6DB15B9FFF7ACFF01E0FFF761FF204660
:1023B00070BD0000040C0140A08121420080214238
:1023C00070B504461548006820F0F0001349086015
:1023D0000846006840F0300008600020104908609E
:1023E000002517E0E0090E49091D08606006040E8B
:1023F000022005F025FD01200A49C1F8A0010220B4
:1024000005F01EFD002006490860022005F018FDB9
:10241000681CC5B2082DE5DB70BD0000040C01404E
:10242000A08121420080214210B50F48006820F0B1
:10243000F0000D4908600846006840F03000086070
:1024400001200A4908600A49C1F8A001042005F0EA
:10245000F7FC002005490860042005F0F1FC00208D
:102460000349C1F8A00110BD040C0140A481214220
:102470000080214210B50F48006820F0F0000D499F
:1024800008600846006840F03000086000200A49F3
:1024900008600A49C1F8A401042005F0D1FC01201C
:1024A000054908600549C1F8A401042005F0C8FCED
:1024B00010BD0000040C0140A08121420080214297
:1024C00010B500241448006820F0F000124908609C
:1024D0000846006840F08000086001200F4908604D
:1024E00005F0AEFC01200E49C1F8A00105F0A8FCE2
:1024F00007E0601CC4B2FA2C03DDFFF7BBFF01202C
:1025000010BD0648803800680028F2D10349091F31
:10251000086000BFF4E70000040C0140A4812142E0
:102520000080214200BFFEE72DE9F04704468D49B7
:10253000606EFDF762FE0546FEF71AF88A490860EC
:1025400008460068002801DC00200860204602F0F0
:1025500007FC204600F0F4FB04F17C00626921686E
:1025600001F08AFE04F1D400A269616801F084FEE2
:1025700004F59670E269A16801F07EFE7B49A06ACD
:10258000FDF741FE0546B82001592A4604F5C27000
:1025900001F072FE7549E06AFDF735FE05464FF41D
:1025A000887001592A4604F5EE7001F065FE6F4906
:1025B000206BFDF728FE05464FF4B47001592A46FA
:1025C00004F50D7001F058FE6421606FB0FBF1F668
:1025D0003046FDF7AAFF05462A4604F53970E16842
:1025E00001F04AFE6249A06CFDF707FE05464FF474
:1025F000487001592A4604F5237001F03DFE94F815
:10260000520301287ED1584800681E287ADD5648BA
:102610000068FDF781FF81464FF4E070015948469C
:10262000FDF7EBFD80464FF4067001594046FDF77B
:10263000E4FD07464FF41C7001593846FDF7DDFDF7
:1026400006464FF4327001593046FDF784FD0546C9
:10265000FDF78EFFC4F83C0343480068FDF75CFFBC
:1026600081464FF4E07001594846FDF774FD8046FD
:102670004FF4067001594046FDF7BFFD07464FF481
:102680001C7001593846FDF766FD06464FF432705E
:1026900001593046FDF75FFD0546FDF769FF4FF430
:1026A0005071085130480068FDF736FF81464FF4FD
:1026B000E07001594846FDF74EFD80464FF4067024
:1026C00001594046FDF747FD07464FF41C7001597C
:1026D0003846FDF792FD06464FF4327001593046F8
:1026E000FDF739FD0546FDF743FF4FF451710851E1
:1026F0001D480068FDF710FF81464FF4E070015956
:10270000484600E01DE0FDF778FD80464FF4067076
:1027100001594046FDF71FFD07464FF41C70015953
:102720003846FDF718FD06464FF432700159304621
:10273000FDF711FD0546FDF71BFF4FF452710851DF
:102740000AE00020C4F83C0300214FF4507001510E
:10275000001D0151001D015104F54F7002F0CCFD28
:10276000BDE8F0870000784448000020333365421C
:102770000000104170B505460C4600202D49087038
:102780003BE02C48007854F82000B0F5787F12DB4D
:102790002848007854F8200040F2C67188420ADCCC
:1027A0002448007834F8200000B22349214A1278E6
:1027B00021F812001CE01F48007854F82000B0F502
:1027C000787F07DC4FF478701B491A4A127821F899
:1027D00012000DE01748007854F8200040F2C6714E
:1027E000884205DB08461449124A127821F8120083
:1027F00010480078401C0F4908700E4800780428E3
:10280000BFDB0D49B1F90000FDF786FEE8660A4915
:10281000B1F90200FDF780FE28670749B1F904000D
:10282000FDF77AFE68660449B1F90600FDF774FE0B
:10283000A86670BD460000203E00002070470000E2
:1028400000201B49088048808880C8800881488112
:1028500040F6B83088810020C8814FF47A70088231
:1028600040F6B8304882002088824FF47A70C882DF
:10287000400008830020488388834FF4E160C883C8
:10288000322008844FF4FA6048844FF4E160888471
:102890003220C8844FF4FA60088500204885888576
:1028A000C885088648868886C8860887488770470E
:1028B000380D002070B5FFF7C3FF3C242046E11718
:1028C00004EB91718910A4EB8101091D09B101216B
:1028D00000E0002194FBF1F1CDB22A460249034801
:1028E00002F02AFC70BD0000380D00200000010835
:1028F00030B5044604254FF4302000F085F8054635
:10290000042D17D10C48006940F002000A49086103
:1029100008464461006940F0400008614FF43020EF
:1029200000F072F805460448006941F6FD71084060
:1029300001490861284630BD0020024004200B49AF
:10294000C96801F0010109B101200EE00749C96819
:1029500001F0040109B1022007E00449C96801F04F
:10296000100109B1032000E004207047002002405C
:102970000348006940F08000014908617047000089
:102980000020024078B506460C4604250020009041
:10299000E80200F039F80546042D24D113480069F7
:1029A00040F00100114908613480E80200F02CF881
:1029B0000546042D10D1B01C0090200C0099088011
:1029C000E80200F021F805460848006941F6FE716A
:1029D00008400649086106E00448006941F6FE71B6
:1029E000084002490861284678BD000000200240E6
:1029F000024803494860034848607047230167451F
:102A000000200240AB89EFCD00B502460423FFF75A
:102A100095FF034603E0FFF791FF0346521E012B8B
:102A200001D1002AF7D102B90523184600BD0000E4
:102A300010B504461249606EFDF740FE0BD21149F5
:102A4000A06EFDF73BFE06D294F85203012802D196
:102A5000002084F852030A49606EFDF72FFE0AD267
:102A60000949A06EFDF734FE05D294F8520310B95F
:102A7000012084F85203204602F0A4FB10BD0000A0
:102A800000007A44008089440080ED442DE9F04143
:102A900005460C46164655F824701BE000E0761EED
:102AA000B44205DA55F826003946FDF711FEF6D98D
:102AB00055F8260045F8240000E0641CB44205DA0D
:102AC00055F824003946FDF7F9FDF6D955F82400EC
:102AD00045F82600B442E1DB45F824702046FDF7B6
:102AE0001BFDBDE8F0812DE9F041024600250026DE
:102AF000002000230024002791F803C00CF00F05EC
:102B000091F803C00CF0100CBCF1000F03D091F849
:102B100002C04CEA050591F800C0BCF1000F31D0AD
:102B2000146800202BE04FF0010C0CFA00F3B1F810
:102B300000C00CEA03069E4220D183004FF00F0C28
:102B40000CFA03F7BC4305FA03FC4CEA040491F8C1
:102B500003C0BCF1280F06D14FF0010C0CFA00FCA9
:102B6000C2F814C00AE091F803C0BCF1480F05D1C7
:102B70004FF0010C0CFA00FCC2F810C0401C0828F1
:102B8000D1D31460B1F800C0BCF1FF0F34DD54683C
:102B900000202EE000F1080C4FF0010808FA0CF3B9
:102BA000B1F800C00CEA03069E4221D183004FF029
:102BB0000F0C0CFA03F7BC4305FA03FC4CEA0404BF
:102BC00091F803C0BCF1280F05D100F1080C08FAF8
:102BD0000CF8C2F8148091F803C0BCF1480F07D17B
:102BE00000F1080C4FF0010808FA0CF8C2F8108048
:102BF000401C0828CED35460BDE8F0814161704785
:102C00000161704710B5044604F17801081FFFF711
:102C1000F2F910BD10B504463E48007800F080007F
:102C2000A0B13C48007800F03F003B4908600846EE
:102C30000068C0EB00400860084600683749098812
:102C4000084435490860002032490870344800784B
:102C500000F08000A0B13248007800F03F002E491B
:102C6000486008464068C0EB00404860084640683D
:102C70002C490988084428494860002028490870E0
:102C80002948007800F08000B8B12748007800F0AB
:102C90003F002149886008468068C0EB004088609A
:102CA000084680682149098808441B49886000203B
:102CB0001D4908701E4908700CE01D480078C8289E
:102CC00003DD002084F8520304E019480078401C1A
:102CD000174908701748007800F08000A0B1154827
:102CE000007800F03F000C49C8600846C068C0EB9F
:102CF0000040C8600846C0680F4909880844064972
:102D0000C86000200B49087003492046FFF732FDD8
:102D100010BD000086000020300900208A0000203D
:102D2000870000208C000020880000208E000020FA
:102D30003C000020890000209000002000BFFEE73A
:102D400070B504461449606EFDF757FA0646FDF764
:102D50000FFC051E01DB284600E0684232280EDA2F
:102D600094F85003B0B9012084F850036421606FD7
:102D7000B0FBF1F52846FDF7D8FBE0600AE0002043
:102D800084F850036421606FB0FBF1F52846FDF72D
:102D9000CCFBE06070BD00000040BA4410B51021CB
:102DA0000748FFF72DFF20210548FFF729FF2021C5
:102DB0000348FFF723FF10210148FFF71FFF10BD55
:102DC0000008014010B510210548FFF719FF202128
:102DD0000348FFF713FF20210148FFF711FF10BD43
:102DE0000008014010B510210348FFF709FF10212A
:102DF0000148FFF703FF10BD0008014001B5A6B070
:102E00002698006C24902698406C23902698806C1D
:102E100022902698806A21902698C06A2090269851
:102E2000006B1F90FE4801680068FDF7ECF91790F1
:102E3000FC480168FA480068FDF7E5F91690FA4881
:102E40000168F7480068FDF7DEF91590F74801685A
:102E5000F3480068FDF7D7F91490F248016800685C
:102E6000FDF7D1F91390F0480168EE480068FDF7CE
:102E7000CAF91290ED480168EA480068FDF7C3F905
:102E80001190E94801680068FDF7BDF91090E74826
:102E90000168E5480068FDF7B6F90F90E34801685E
:102EA0000068FDF7B0F90E90DDE92310FDF7ABF9EE
:102EB0000C902299FDF7A7F900210D90FDF7FEFB7C
:102EC00001D127B000BD22990846FDF79CF90C906E
:102ED00023990846FDF797F90A9024990846FDF7CB
:102EE00092F909900A99FDF736F90B900C99FDF7C4
:102EF00032F90D9004F0CAFF189018992498FDF744
:102F000082F9249018992398FDF77DF92390189958
:102F10002298FDF778F9229015991198FDF76DF92F
:102F20004FF080410D90FDF76EF91E900F991698A5
:102F3000FDF711F94FF080410D90FDF764F91D90F8
:102F400013991798FDF759F90C901099FDF755F959
:102F50000D900E99FDF7FFF81C901D992298FDF732
:102F600052F90D901C992398FDF74DF90C900D998D
:102F7000FDF743F91B901C992498FDF744F90D9037
:102F80001E992298FDF73FF90C900D99FDF735F940
:102F90001A901E992398FDF736F90D901D992498E3
:102FA000FDF731F90C900D99FDF727F91990A0491B
:102FB0001B98FDF728F90D909E4801680D98FDF7C4
:102FC000CAF89C4908609A491A98FDF71CF90D90B7
:102FD000994801680D98FDF7BEF897490860944933
:102FE0001998FDF710F90D90944801680D98FDF7B8
:102FF000B2F8924908604FF080401B99FDF703F941
:103000000C908C4801680C98FDF7A5F80D9021995B
:10301000FDF7A1F821904FF080401A99FDF7F3F8E1
:103020000C90854801680C98FDF795F80D90209953
:10303000FDF791F820904FF080401999FDF7E3F8E3
:103040000C907E4801680C98FDF785F80D901F994B
:10305000FDF781F81F9075481F990068FDF7D3F8B8
:103060000B90714820990068FDF7CDF809906D48E4
:10307000006880F0004007902199FDF7C4F808909F
:103080000999FDF7BAF80A900B99FDF7B6F86C4963
:103090000C90FDF7B8F80D90614801680D98FDF7A8
:1030A0005AF85F490860614820990068FDF7ABF85D
:1030B0000B905D481F990068FDF7A5F809905848E6
:1030C00021990068FDF79FF808900999FDF743F8EA
:1030D0000A900B99FDF791F859490C90FDF793F878
:1030E0000D90504801680D98FDF735F84D4908607E
:1030F0004E4821990068FDF786F80B9049481F99C2
:103100000068FDF780F80990454820990068FDF7B0
:103110007AF808900999FDF770F80A900B99FDF775
:103120001AF847490C90FDF76EF80D903E4801687B
:103130000D98FDF710F83C4908603B48219900685C
:10314000FDF761F80B90374820990068FDF75BF8B0
:10315000099033481F990068FDF755F808900999C0
:10316000FCF7F9FF0A900B99FDF747F834490C90EA
:10317000FDF749F80D902D4801680D98FCF7EBFF1D
:103180002A490860084601680068FDF73CF80C9081
:10319000254801680068FDF736F80A902148016863
:1031A0000068FDF730F808901D4801680068FDF7D9
:1031B0002AF807900899FCF7CEFF09900A99FCF7C6
:1031C000CAFF0B900C99FCF7C6FF0D9004F05EFE51
:1031D0001890134818990068FDF715F81049086011
:1031E000104818990068FDF70EF80E4908600E485F
:1031F00018990068FDF707F80B4908600B48189903
:103200000068FDF700F8094908602698006B0D4931
:103210000B90FCF7F8FF0A490C90FCF7F4FF13E061
:10322000B8000020BC000020C0000020C400002026
:103230006F12833AC8000020CC000020D00000208C
:103240000AD7233B333365420D902698C069014667
:103250000C900D98FCF77FFF01462698C1615648F7
:1032600001684FF08040FCF7CEFF019052480168A2
:103270000198FCF7C8FF0390504801684FF04040A8
:10328000FCF7C1FF01904D4801680198FCF7BBFFB6
:1032900002900399FCF7B1FF4FF07E510490FCF7C8
:1032A0005AFF0590FDF7AAF9CDE908011499129883
:1032B000FCF751FF4FF080410490FCF7A4FF05900C
:1032C000FDF79CF9CDE90601DDE9082304F080FC57
:1032D0004FF0C0423A4BCDE90A01FDF7ABF8CDE91A
:1032E0000C01FDF7CFF901462698C1611199159897
:1032F000FCF783FF4FF080410690FCF784FF0790B6
:10330000FDF77CF9CDE9080104F01AFA4FF0C0424C
:103310002B4BCDE90A01FDF78DF8CDE90C01FDF746
:10332000B1F9014626988161244801684FF0804038
:10333000FCF769FF0190214801680198FCF763FFE1
:103340000390204801684FF04040FCF75CFF01907B
:103350001C4801680198FCF756FF02900399FCF79E
:103360004CFF4FF07E510490FCF7F5FE0590FDF701
:1033700045F9CDE9080116990F98FCF7ECFE4FF0DE
:1033800080410490FCF73FFF0590FDF737F9CDE948
:103390000601DDE9082304F01BFC4FF0C042084B96
:1033A000CDE90A01FDF746F8CDE90C01FDF76AF910
:1033B0002699486100BF84E5C4000020C0000020B9
:1033C00066A64C40BC00002008B50121082001F091
:1033D00015FE2320ADF8000010208DF80300032017
:1033E0008DF8020069460548FFF77DFB232103485D
:1033F000FFF706FC00200249086008BD000C0140F0
:103400008481214290F85213012945D1324A11603A
:103410000021324A11803249098811BB314909889B
:1034200021B900212C4A1432116014E02D49098879
:10343000012903D1284A143211600CE02949098876
:10344000032908D10021244A14321160254A118031
:103450000121234A118023490988491C214A1180EE
:1034600039E01F490988012935D11E4909881E29DB
:1034700008DD0021184A143211601A4A1180184AD6
:10348000118004E017490988491C164A118001215E
:10349000114A143211601EE090F85213D9B901217B
:1034A0000D4A1432116000210E4A11800C4A11801D
:1034B0000A49098801290BD10749096809B901217D
:1034C00000E00021044A11600021044A118002E05A
:1034D0000121024A11807047808121424E00002064
:1034E000520000205000002010B5044604F578700A
:1034F00081B2024802F0EEFE10BD0000002C014037
:1035000010B5044604F5787081B2024802F0E4FE7A
:1035100010BD0000002C014010B5044604F5787081
:1035200081B2024802F0DAFE10BD0000002C01401A
:1035300010B5044604F5787081B2024802F0D0FE5E
:1035400010BD0000002C014010B50BE00B2308A2B9
:103550000421002000F03CFE0AA004F0FFFD0A2038
:1035600004F048FC00F077F90028EFD010BD00000F
:103570004D5055393235305F496E69742E2E2E2EDE
:10358000000000000D4D505539323530206E6F204F
:10359000636F6E6E6563742E2E2E0D0A00000000A0
:1035A00010B500F089F9FFF7CFFF80216B2000F004
:1035B0003DF9642004F01EFC01216B2000F036F977
:1035C0000021382000F032F903211D2000F02EF9EF
:1035D0000021192000F02AF90221372000F026F9F5
:1035E00004211A2000F022F918211B2000F01EF9F6
:1035F00008211C2000F01AF910BD00000FB52B485F
:103600000088A0B90020ADF80000ADF80200ADF8C8
:1036100004002749086027490860274908600120FD
:103620002249088000230020108050809080BDF93E
:1036300000001F49096808441D490860BDF90200DF
:103640001C49096808441B490860BDF90400C01AF8
:103650001949096808441849086014480088C828AE
:103660001DD1134800681149098890FBF1F000B2A0
:103670001080104800680D49098890FBF1F000B2F5
:1036800050800D4800680949098890FBF1F000B2AC
:103690009080002005490880012004B000BD034847
:1036A0000088401C014908800020F6E784000020C3
:1036B000780000207C000020800000201CB54248DB
:1036C00040784149097840EA012040490988401A78
:1036D00000B23F4908803C48C0783B49897840EABD
:1036E00001203A494988401A00B239494880364891
:1036F00040793549097940EA012034498988401ADE
:1037000000B2334988803048407A2F49097A40EA2C
:10371000012030490988401A00B22F4908802A4800
:10372000C07A2949897A40EA01202A494988401A01
:1037300000B2294948802448407B2349097B40EA5C
:10374000012024498988401A00B2234988802348EF
:10375000007800F00100D0B108460168009180882F
:10376000ADF8040000231B4ADDE90001FFF746FF26
:1037700068B11A48007820F001001849087001F07B
:103780001BF91648007840F00200144908701348ED
:103790000078C0F34000A8B10D480168009180880E
:1037A000ADF8040042F20403084ADDE90001FFF726
:1037B00025FF38B10948007820F002000749087059
:1037C00001F0FAF81CBD0000600900205E00002036
:1037D00064000020580000206A00002076000020CD
:1037E00010B5034A0E213B2000F011F810BD000077
:1037F0006009002070B504460D462A462146D020B7
:1038000000F0D8F808B1012070BD0020FCE770B5C9
:1038100004460D46164633462A462146D02000F07F
:10382000EEF808B1012070BD0020FCE770B5044639
:103830000D462A462146D02000F0CAF908B10120E1
:1038400070BD0020FCE708B569467520FFF7D2FF80
:103850009DF8000008BD10B5FFF7F5FF712801D1F4
:10386000012010BD0020FCE710B500200F490860C2
:103870000F48006820F070400D4908600846006855
:1038800040F04050086000200A49C1F89C01012026
:1038900004F0D6FA012005490860022004F0D0FAAD
:1038A00000200449C1F8980110BD00009881214210
:1038B000000C01400080214208B50121082001F0E0
:1038C0009DFBC020ADF8000010208DF80300032000
:1038D0008DF8020069460548FFF705F90120044903
:1038E00008600449C1F89C0108BD0000000C0140BB
:1038F000988121420080214210B500200E490860C5
:103900000E48006820F070400C49086008460068C6
:1039100040F04050086001200949C1F89C0104F0C2
:103920008FFA01200449086004F08AFA0020044953
:10393000C1F8980110BD000098812142000C01409F
:103940000080214270B5054600241748006820F029
:103950007040154908600846006840F00040086063
:10396000002616E0002011490860012004F068FAE2
:1039700001200F49C1F898016006040E0B487C38FD
:10398000006808B1601CC4B2012004F059FA701C30
:10399000C6B2082EE6DB15B1FFF766FF01E0FFF7C0
:1039A000ABFF204670BD0000000C01409881214211
:1039B0000080214270B504460D46164600F08AF894
:1039C000204600F055F800F0D1F818B100F0A8F842
:1039D000012070BD284600F04BF800F0C7F800F059
:1039E00079F8611CC8B200F043F800F0BFF800207D
:1039F000FFF7A8FF307000F093F80020E9E72DE909
:103A0000F04706460F4615469846002400F062F837
:103A1000304600F02DF800F0A9F820B100F080F851
:103A20000120BDE8F087384600F022F800F09EF84B
:103A300000F050F8711CC8B200F01AF800F096F8C7
:103A400000240FE0681EA04204D00120FFF77AFF97
:103A5000814603E00020FFF775FF814608F80490D7
:103A6000601CC4B2AC42EDDB00F05AF80020D8E78D
:103A700070B504461448006820F070401249086090
:103A80000846006840F04050086000200F49086078
:103A9000002516E0E0090D49091D08606006040EC6
:103AA000012004F0CDF901200949C1F8980104F082
:103AB000C7F9002005490860012004F0C1F9681C1D
:103AC000C5B2082DE6DB70BD000C01409881214293
:103AD0000080214210B50F48006820F070400D4969
:103AE00008600846006840F04050086001200A491C
:103AF00008600A49C1F89801042004F0A1F90020E7
:103B000005490860042004F09BF900200349C1F82E
:103B1000980110BD000C01409C812142008021428F
:103B200010B50F48006820F070400D490860084645
:103B3000006840F04050086000200A4908600A49C7
:103B4000C1F89C01042004F07BF9012005490860BC
:103B50000549C1F89C01042004F072F910BD000071
:103B6000000C0140988121420080214210B50024C0
:103B70001448006820F07040124908600846006848
:103B800040F00040086001200F49086004F058F937
:103B900001200E49C1F8980104F052F907E0601CB9
:103BA000C4B2FA2C03DDFFF7BBFF012010BD0648AD
:103BB000803800680028F2D10349091F086000BF5F
:103BC000F4E70000000C01409C812142008021426A
:103BD00070B506460C461546FFF77CFF3046FFF7EA
:103BE00047FFFFF7C3FF18B1FFF79AFF012070BD31
:103BF0002046FFF73DFFFFF7B9FF2846FFF738FFE4
:103C0000FFF7B4FF18B1FFF78BFF0120EFE7FFF7D5
:103C100087FF0020EBE700BFFEE7704770B500218B
:103C200000230F22C47804B3154C246804F4E06424
:103C3000C4F5E064210AC1F10403CA40447804FADF
:103C400003F184781440214309010E4C0678A155F4
:103C5000047804F01F050124AC4005786D11AD0017
:103C600005F1E025C5F8004109E0047804F01F05DE
:103C70000124AC40044D0678761145F8264070BD0D
:103C80000CED00E000E400E080E100E002490143C7
:103C9000024A1160704700000000FA050CED00E0D8
:103CA00070B5002418E004F1B000002100F0D8FA4B
:103CB0000021084600F0D4FA0021102000F0D0FACC
:103CC000002505E00121002000F0CAFA681CC5B2F9
:103CD000802DF7DB601CC4B2082CE4DB70BD000053
:103CE00070B5022418E004F1B000002100F0B8FA29
:103CF0000021084600F0B4FA0021102000F0B0FACC
:103D0000002505E00121002000F0AAFA681CC5B2D8
:103D1000802DF7DB601CC4B2082CE4DB084890F867
:103D2000520330B90023074A1946012000F06DFA0A
:103D300005E00523034A0021012000F066FA70BD6A
:103D4000DC050020C4B1000808B50121042001F001
:103D500055F93020ADF8000010208DF80300032045
:103D60008DF8020069463C48FEF7BDFE30213A4816
:103D7000FEF746FF082004F03DF80021AE2000F0D9
:103D80006FFA0021084600F06BFA0021102000F0C5
:103D900067FA0021402000F063FA0021B02000F013
:103DA0005FFA0021812000F05BFA0021FF2000F083
:103DB00057FA0021A12000F053FA0021A62000F0BC
:103DC0004FFA0021A82000F04BFA00213F2000F01C
:103DD00047FA0021C82000F043FA0021D32000F068
:103DE0003FFA0021084600F03BFA0021D52000F000
:103DF00037FA0021802000F033FA0021D82000F0AB
:103E00002FFA0021052000F02BFA0021D92000F024
:103E100027FA0021F12000F023FA0021DA2000F037
:103E20001FFA0021122000F01BFA0021DB2000F015
:103E300017FA0021302000F013FA00218D2000F045
:103E40000FFA0021142000F00BFA0021AF2000F03F
:103E500007FAFFF725FF08BD00080140F8B5044642
:103E600094F8520394F8531388420FD094F85203F5
:103E700030B90023834A1946012000F0C6F905E055
:103E80000523804A0021012000F0BFF994F8520375
:103E900084F853030021E069FCF710FC15D20823D5
:103EA0002D220221322000F003F9E06980F0004663
:103EB0003046FCF776FB0546082003232A460221FC
:103EC00000903A2000F046F911E008232022022158
:103ED000322000F0EDF8E069FCF763FB05460820AE
:103EE00003232A46022100903A2000F033F90021F2
:103EF000A069FCF7E3FB15D208232D220321322011
:103F000000F0D6F8A06980F000463046FCF749FB87
:103F10000546082003232A46194600903A2000F05F
:103F200019F911E0082320220321322000F0C0F803
:103F3000A069FCF736FB0546082003232A461946EC
:103F400000903A2000F006F900216069FCF7B6FB0A
:103F500015D208232D220421322000F0A9F860692F
:103F600080F000463046FCF71CFB05460820032382
:103F70002A46042100903A2000F0ECF811E00823D2
:103F800020220421322000F093F86069FCF709FB3D
:103F90000546082003232A46042100903A2000F019
:103FA000D9F8082000904FF45170025903230221E0
:103FB000002000F0CFF80820009003230721002004
:103FC000D4F83C2300F0C6F8082000904FF450705D
:103FD0000259032302216A2000F0BCF80820009057
:103FE0004FF452700259032307216A2000F0B2F8FF
:103FF000A06EFCF7D6FA0546082004232A460321C2
:104000000090002000F0A6F8606EFCF7CAFA0546A2
:10401000082004232A4606210090002000F09AF888
:10402000E06EFCF7BEFA0546082004232A46032169
:104030000090642000F08EF8206FFCF7B2FA05467D
:10404000082004232A4606210090642000F082F80C
:104050006421606FB0FBF1F5082004232A46052196
:1040600000902D2000F076F86421A06F90FBF1F510
:10407000082002232A4605210090552000F06AF806
:10408000F8BD0000C4B1000870B504460D4605F146
:10409000B000002100F0E4F8102141EA14100021E2
:1040A00000F0DEF804F00F00002100F0D9F870BD38
:1040B0002DE9F04707460E46904699460025002414
:1040C000A8F12000C5B27F2F02DD0027B01CC6B2C8
:1040D000B9F1100F24D131463846FFF7D5FF00243F
:1040E00008E004EB0511194A505C012100F0B8F812
:1040F000601CC4B2082CF4DB701CC1B23846FFF758
:10410000C3FF002409E004EB051108310F4A505C9D
:10411000012100F0A5F8601CC4B2082CF3DB12E00A
:1041200031463846FFF7B0FF00240AE005EB4501B1
:10413000074A02EB4101085D012100F091F8601C83
:10414000C4B2062CF2DBBDE8F0870000D48300087F
:10415000AC8100082DE9F05F0646894690461D4671
:10416000DDF828A04FF0000B00242DE0281B401E96
:10417000C1B20A2003F0C0FFB8FBF0F00A21B0FB87
:10418000F1F201FB1207BBF1000F0FD1681EA04234
:104190000CDD4FB9072101FB0461C8B25346202250
:1041A0004946FFF785FF0DE04FF0010B07F13001A5
:1041B000CAB2072101FB0461C8B253464946FFF762
:1041C00077FF00BF601CC4B2AC42CFDBBDE8F09FFC
:1041D0002DE9F04104460F461546984600260FE0AB
:1041E000AA5D434639462046FFF762FF04F1080006
:1041F000C4B2782C02DD0024B81CC7B2701CC6B251
:10420000A85D0028ECD1BDE8F0812DE9F0418046A1
:104210000F4615461E4639464046FFF735FF002437
:1042200007E005EB4611085D012100F019F8601C5C
:10423000C4B2102CF5DB781CC1B24046FFF724FF56
:10424000002409E07100491C05EB0111085D012102
:1042500000F006F8601CC4B2102CF3DBBDE8F0815E
:1042600070B504460D461DB1E0B202F03DFD02E01E
:10427000E0B202F023FD70BD2DE9F0470446894607
:104280009246C4F820A0C4F8149051464846FBF763
:10429000B4FFE062012084F85400354890F85203DE
:1042A000012824D13249486E3249FCF711FA1ED256
:1042B000A06CFCF7A3F905460E46E06AFCF79EF9F0
:1042C00021F0004107462A463346FCF7ABF90ED2EF
:1042D000E16A606CFBF73FFF6064206DFCF725F935
:1042E0000546294604F1440003F016FA03E00020D5
:1042F00084F854006064E16A2068FBF784FF20635F
:1043000094F85400FCF711F906466168FBF77BFF4F
:104310000546616CFBF777FF6063D4E90A10FBF791
:104320006CFF0546A168FBF76EFFA063D4E90C01A2
:10433000FBF711FF0546A16BFBF70DFFE063E06C97
:10434000FCF7F3F80546294604F13C0003F0E4F9D4
:10435000E06B2064A06A6062E16AA162E069A0612A
:10436000216AE1612069E06061692161BDE8F0874F
:10437000DC050020008089442DE9F04104463C25FD
:104380002846E91705EB91718910A5EB8101091DFC
:1043900009B1012100E0002195FBF1F1CEB23246D6
:1043A0009349944800F0B4FE934802F01DF89048F9
:1043B000808C4FF6FF7188420DD18D48C08B8842AA
:1043C00009D18B48408D884205D1FEF773FA8BA046
:1043D00003F0C4FE09E18FA003F0C0FE92A003F039
:1043E000BDFEE06FFCF70AF907463A460B469DA072
:1043F00003F0B4FE80210859FCF700F907463A465D
:104400000B469FA003F0AAFE84210859FCF7F6F89A
:1044100007463A460B46A1A003F0A0FED4F8D4000C
:10442000FCF7ECF807463A460B46A3A003F096FECD
:10443000D8210859FCF7E2F807463A460B46A5A0F2
:1044400003F08CFEDC210859FCF7D8F807463A4601
:104450000B46A7A003F082FED4F82C01FCF7CEF89F
:1044600007463A460B46A9A003F078FE4FF4987130
:104470000859FCF7C3F807463A460B46AAA003F0D2
:104480006DFE4FF49A710859FCF7B8F807463A46A2
:104490000B46ACA003F062FEB1A003F05FFED4F8BF
:1044A0008401FCF7ABF807463A460B46BCA003F084
:1044B00055FE4FF4C4710859FCF7A0F807463A4678
:1044C0000B46BEA003F04AFE4FF4C6710859FCF734
:1044D00095F807463A460B46BFA003F03FFED4F8D6
:1044E000DC01FCF78BF807463A460B46C1A003F007
:1044F00035FE4FF4F0710859FCF780F807463A464C
:104500000B46C3A003F02AFE4FF4F2710859FCF7E2
:1045100075F807463A460B46C4A003F01FFED4F8D0
:104520003402FCF76BF807463A460B46C6A003F088
:1045300015FE4FF40E710859FCF760F807463A462D
:104540000B46C8A003F00AFE4FF40F710859FCF7A0
:1045500055F807463A460B46C9A003F0FFFDCFA029
:1045600003F0FCFDD4F88C02FCF748F807463A4605
:104570000B46DAA003F0F2FD4FF424710859FCF762
:104580003DF807463A460B46DBA003F0E7FD4FF443
:1045900025710859FCF732F807463A460B46DDA06C
:1045A00003F0DCFDE2A003F0D9FDD4F8E402FCF74F
:1045B00025F807463A460B46EDA003F0CFFD4FF431
:1045C0003A710859FCF71AF807463A460B46EEA02E
:1045D00003F0C4FD4FF43B710859FCF70FF8074690
:1045E0003A460B46EEA003F0B9FDBDE8F0810000AD
:1045F000380D002000000108DC050020466C6173C6
:10460000682052656164204572726F722121210D0C
:104610000A000000466C6173682052656164204F97
:104620004B2121210D0A00000D2A2A2A2A2A2A2A92
:104630002A2A2A2A2A2A2A2A50494420416E676CAB
:1046400065206C6F6F7020706172616D657465724A
:104650002A2A2A2A2A2A2A2A2A2A2A2A2A2A2A2ABA
:104660000D0A00000D5049445F524F4C5F416E6788
:104670006C652E50203D2025302E32660D0A00003C
:104680000D5049445F524F4C5F416E676C652E4937
:10469000203D2025302E32660D0A00000D50494481
:1046A0005F524F4C5F416E676C652E44203D202564
:1046B000302E32660D0A00000D5049445F504954B7
:1046C0005F416E676C652E50203D2025302E32668E
:1046D0000D0A00000D5049445F5049545F416E6718
:1046E0006C652E49203D2025302E32660D0A0000D3
:1046F0000D5049445F5049545F416E676C652E44CC
:10470000203D2025302E32660D0A00000D50494410
:104710005F5941575F416E676C652E50203D2025E3
:10472000302E32660D0A00000D5049445F59415742
:104730005F416E676C652E49203D2025302E326624
:104740000D0A00000D5049445F5941575F416E67A3
:104750006C652E44203D2025302E32660D0A000067
:104760000D2A2A2A2A2A2A2A2A2A2A2A2A2A2A2AC6
:1047700050494420416E676C6552617465206C6FCE
:104780006F7020706172616D657465722A2A2A2AC1
:104790002A2A2A2A2A2A2A2A2A2A0D0A000000005E
:1047A0000D5049445F524F4C5F526174652E50204A
:1047B0003D2025302E32660D0A0000000D50494480
:1047C0005F524F4C5F526174652E49203D20253069
:1047D0002E32660D0A0000000D5049445F524F4CC6
:1047E0005F526174652E44203D2025302E32660DC7
:1047F0000A0000000D5049445F5049545F526174F3
:10480000652E50203D2025302E32660D0A00000016
:104810000D5049445F5049545F526174652E4920E0
:104820003D2025302E32660D0A0000000D5049440F
:104830005F5049545F526174652E44203D202530FD
:104840002E32660D0A0000000D5049445F59415751
:104850005F526174652E50203D2025302E32660D4A
:104860000A0000000D5049445F5941575F5261747E
:10487000652E49203D2025302E32660D0A000000AD
:104880000D5049445F5941575F526174652E442071
:104890003D2025302E32660D0A0000000D2A2A2AFE
:1048A0002A2A2A2A2A2A2A2A2A2A2A2A2A2A504923
:1048B0004420414C5452617465206C6F6F702070BD
:1048C0006172616D657465722A2A2A2A2A2A2A2A47
:1048D0002A2A2A2A2A2A0D0A000000000D504944DB
:1048E0005F414C545F526174652E50203D2025304D
:1048F0002E32660D0A0000000D5049445F414C54B1
:104900005F526174652E49203D2025302E32660DA0
:104910000A0000000D5049445F414C545F526174DD
:10492000652E44203D2025302E32660D0A00000001
:104930000D2A2A2A2A2A2A2A2A2A2A2A2A2A2A2AF4
:104940002A2A2A2A2A50494420414C54206C6F6F4D
:104950007020706172616D657465722A2A2A2A2A34
:104960002A2A2A2A2A2A2A2A2A2A2A0D0A00000062
:104970000D5049445F414C542E50203D2025302E8F
:1049800032660D0A000000000D5049445F414C544E
:104990002E49203D2025302E32660D0A00000000F1
:1049A0000D5049445F414C542E44203D2025302E6B
:1049B00032660D0A0000000070B50C4800F01CF8CB
:1049C0003C242046E11704EB91718910A4EB81018E
:1049D000091D09B1012100E0002194FBF1F1CDB2E4
:1049E0002A460349034800F0A7FB70BDDC05002000
:1049F000380D00200000010870B504468748008883
:104A00008749088085484088488084488088888015
:104A100084480088C880834840880881814880880D
:104A200048818149E06FFBF7EEFB0546FBF7B9FDD6
:104A30007B498881802108597B49FBF7E4FB0546C7
:104A4000FBF7AFFD7649C881842108597649FBF709
:104A5000DAFB0546FBF7A5FD714908827249D4F8D7
:104A6000D400FBF7D0FB0546FBF79BFD6C49488261
:104A7000D82108596C49FBF7C6FB0546FBF791FDA9
:104A800067498882DC2108596749FBF7BCFB05466A
:104A9000FBF787FD6249C8826349D4F82C01FBF714
:104AA000B2FB0546FBF77DFD5D4908834FF4987125
:104AB00008595D49FBF7A7FB0546FBF772FD58490E
:104AC00048834FF49A7108595749FBF79CFB0546F8
:104AD000FBF767FD524988835349D4F88401FBF7FB
:104AE00092FB0546FBF75DFD4D49C8834FF4C47149
:104AF00008594D49FBF787FB0546FBF752FD48492E
:104B000008844FF4C67108594749FBF77CFB0546FA
:104B1000FBF747FD424948844349D4F8DC01FBF7E1
:104B200072FB0546FBF73DFD3D4988844FF4F0716B
:104B300008593D49FBF767FB0546FBF732FD38494D
:104B4000C8844FF4F27108593749FBF75CFB0546FE
:104B5000FBF727FD324908853349D4F83402FBF7C7
:104B600052FB0546FBF71DFD2D4948854FF40E719C
:104B700008592D49FBF747FB0546FBF712FD28496D
:104B800088854FF40F7108592749FBF73CFB054610
:104B9000FBF707FD2249C8852349D4F88C02FBF7AF
:104BA00032FB0546FBF7FDFC1D4908864FF42471D6
:104BB00008591D49FBF727FB0546FBF7F2FC18498E
:104BC00048864FF4257108591749FBF71CFB054629
:104BD000FBF7E7FC124988861349D4F8E402FBF797
:104BE00012FB0546FBF7DDFC0D49C8864FF43A7110
:104BF00008590D49FBF707FB0546FBF7D2FC0849AE
:104C000008874FF43B7108590749FBF7FCFA054642
:104C1000FBF7C7FC0249488770BD00005E0000201A
:104C2000380D00205800002000007A44494A4FF413
:104C3000E6710A500022091F0A5080F8D821C822C4
:104C40004FF4EA710A5040F2BA22091F0A50424A50
:104C5000C4210A500022C0210A5080F8D020C82266
:104C6000CC210A5040F2BA22C8210A50394A4FF4E6
:104C700009710A500022091F0A5080F83022C82208
:104C80004FF40B710A504FF42F72091F0A50324A29
:104C90004FF48E710A500022091F0A5080F8282113
:104CA000C8224FF492710A504FF42F72091F0A5014
:104CB0002A4A4FF41F710A500022091F0A5080F837
:104CC000882232224FF421710A504FF42F72091FAB
:104CD0000A50214A4FF4BA710A500022091F0A50A3
:104CE00080F8802164224FF4BE710A504FF42F7275
:104CF000091F0A50184A4FF435710A500022091F43
:104D00000A5080F8E0224FF437710A5040F2E63240
:104D1000091F0A50104A4FF44B710A500022091F14
:104D20000A5080F838234FF44D710A5040F2E632B1
:104D3000091F0A5000218160416001600161C1606A
:104D4000416700228267022180F85113002180F818
:104D50005213704700004842000040400000A0414C
:104D600070B5044694F8520301284ED12A49606E6A
:104D7000FBF7AEFC49D22949206FFBF73EFA064605
:104D8000FBF7F6FB051E01DB284600E068420F2812
:104D900009DD2249206FFBF730FA05462049FBF771
:104DA00064FA206001E0002020601C49E06EFBF7FF
:104DB00024FA0646FBF7DCFB051E01DB284600E073
:104DC00068420F2809DD1549E06EFBF716FA054623
:104DD0001349FBF74AFA606001E000206060114966
:104DE000A06EFBF775FC05D20F49A068FBF705FA2A
:104DF000A0600FE00D49A06EFBF760FC0AD20A49E3
:104E0000A068FBF7A8F9A06004E0E069A0600020BA
:104E10006060206070BD0000008089440040BA449A
:104E2000000070410040BF44EC51B83D0040B54423
:104E300070B50446FEF7D4FCFEF740FC0C2204F1EA
:104E40004001464800F094FA4549206CFBF7DBF935
:104E500005464449FBF7D7F920644149606CFBF7EC
:104E6000D2F905463F49FBF7CEF960643C49A06C96
:104E7000FBF7C9F905463B49FBF7C5F9A0643A4978
:104E8000B1F90000FBF748FB05463849FBF7BBF9D1
:104E9000A0623549B1F90200FBF73EFB05463349F4
:104EA000FBF7B1F9E0623049B1F90400FBF734FBDC
:104EB00005462E49FBF7A7F920632D480078002806
:104EC0002FD02C49A06DFBF79EF905462A49206C8E
:104ED000FBF799F906462946FBF73DF92064254979
:104EE000E06DFBF790F905462349606CFBF78BF901
:104EF00006462946FBF72FF960641E49206EFBF732
:104F000082F905461C49A06CFBF77DF90646294647
:104F1000FBF721F9A064206CA065616CE165A16CD0
:104F200021661649206C0860606C4860A06C88603F
:104F300008680021FBF7C2FB0ED010494868002129
:104F4000FBF7BCFB08D00D4988680021FBF7B6FBD6
:104F500002D001200A49087070BD000064000020E2
:104F600040DAFF380AE81C416A00002045798B3A94
:104F7000D4000020CDCCCC3D6666663F740D002089
:104F8000B40000202DE9F04107460D461646B54213
:104F900012DA324629463846FDF778FD8046FBF79F
:104FA000E7FA0446621E29463846FFF7EBFF324611
:104FB000611C3846FFF7E6FFBDE8F08129B1064ADB
:104FC000D2690243044BDA6104E0034AD2698243A6
:104FD000014BDA61704700000010024029B1064A17
:104FE00012690243044B1A6104E0034A12698243C6
:104FF000014B1A61704700000010024029B1064AB7
:1050000092690243044B9A6104E0034A9269824325
:10501000014B9A61704700000010024029B1064A16
:10502000D2680243044BDA6004E0034AD268824348
:10503000014BDA60704700000010024030B50021DB
:105040000022002400232D4D6D6805F00C0121B1D4
:10505000042905D0082923D105E0294D056022E067
:10506000274D05601FE0254D6D6805F47012234D36
:105070006D6805F48034022505EB92421CB9214D80
:10508000554305600BE01D4D6D6805F400351DB1FD
:105090001C4D5543056002E0194D5543056002E083
:1050A000174D056000BF00BF144D6D6805F0F0019D
:1050B0000909154D6B5C0568DD4045600F4D6D6855
:1050C00005F4E061090A104D6B5C4568DD408560C0
:1050D0000A4D6D6805F46051C90A0B4D6B5C45685B
:1050E000DD40C560054D6D6805F44041890B074DF5
:1050F0006B5CC568B5FBF3F5056130BD001002407F
:1051000000127A0000093D00140000202400002055
:1051100030B503460C461546002206E0184600F05E
:1051200007F844F822001B1D521CAA42F6D330BDDA
:1051300001460868704700002DE9F04704460E4616
:1051400017464FF004080025A946B4F1006F02D3BA
:105150001948844201D3BDE8F087FDF749FC254694
:1051600004EB87091448854211D20DE02846FFF769
:10517000DFFF401C38B11148FDF7BAFB8046B8F19B
:10518000040F01D002E02D1D4D45EFD300BFB8F153
:10519000040F0CD108E020463168FDF7F3FB04282A
:1051A00000D003E0241D361D4C45F4D300BFFDF7AD
:1051B000DFFB00BFCFE7000000000208000001088D
:1051C0007047000070B504460F498869FBF716FA6E
:1051D00021F00041054600220C4BFBF73BFA0BD3B4
:1051E00009494869FBF70AFA21F000410546002207
:1051F000064BFBF72FFA06D294F85203012802D18E
:10520000002084F8520370BDDC05002000004440FB
:1052100010B500F001F810BD0CB500200190009011
:105220003348006840F480303149086000BF30489E
:10523000006800F4003000900198401C0190009834
:1052400018B90198B0F5A06FF1D12948006800F4B1
:10525000003010B10120009001E000200090009883
:10526000012843D12348006840F01000214908601C
:105270000846006820F0030008600846006840F017
:10528000020008601A4840681949486008464068AA
:1052900048600846406840F48060486008464068BE
:1052A00020F47C1048600846406840F4E8104860EC
:1052B0000846006840F08070086000BF0C48006835
:1052C00000F000700028F9D00948406820F0030081
:1052D000074948600846406840F00200486000BF47
:1052E0000348406800F00C000828F9D10CBD00000C
:1052F000001002400020024010B5044600201B4967
:1053000008701DE01948007854F8200040F2E6319A
:10531000884205DD08461549097844F821000AE06D
:105320001248007854F82000002804DC00200F49BF
:10533000097844F821000D480078401C0B4908709A
:105340000A4800780428DDDB218888B2FEF7CCF813
:10535000A18888B2FEF7D4F8218988B2FEF7DCF87C
:10536000A18988B2FEF7E4F810BD00004C000020CF
:105370002DE9F05F06460F4614464FF00008C1467F
:10538000C246B6F90000FBF7C7F83B493B4A127822
:1053900041F82200B6F90200FBF7BEF83849374A57
:1053A000127841F82200B6F90400FBF7B5F8354948
:1053B000324A127841F8220030480078401C2F49C8
:1053C000087008460078A04204DA2F48007808B137
:1053D000BDE8F09F00202C490870621E002126487D
:1053E000FFF7D0FD621E00212548FFF7CBFD621EAE
:1053F00000212448FFF7C6FD012516E01E4850F89D
:1054000025104046FAF7A7FE80461D4850F82510A3
:105410004846FAF7A0FE81461A4850F82510504633
:10542000FAF799FE8246681CC5B2601EA842E5DC08
:1054300012480078A04202DB002010490870A01E2C
:10544000FBF76AF8834659464046FAF70EFF386084
:10545000A01EFBF761F8834659464846FAF705FF58
:105460007860A01EFBF758F8834659465046FAF775
:10547000FCFEB86000BFABE77C0100202C000020E0
:10548000CC0100201C0200202D000020042808D19F
:105490004FF0E021096941F004014FF0E022116171
:1054A00007E04FF0E021096921F004014FF0E0220C
:1054B0001161704710B51348006840F001001149B0
:1054C000086008464068104908400E494860084690
:1054D00000680E4908400B4908600846006820F43F
:1054E000802008600846406820F4FE0048604FF4C1
:1054F0001F008860FFF78CFE4FF0006004490860D1
:1055000010BD0000001002400000FFF8FFFFF6FE93
:1055100008ED00E0F0B50C46154600220021068C8F
:105520004FF6FE773E400684028B018C4FF60C76D8
:1055300032407E1C06EA03162E433243104EB04220
:105540000ED0104EB0420BD0B0F1804F08D00E4EAE
:10555000B04205D00D4EB04202D00D4EB04206D141
:105560004FF6FD76314044F00106314305E04FF639
:10557000F576314044F00106314302830184F0BDE9
:10558000002C0140003401400004004000080040AD
:10559000000C0040F0B50C46154600220021002604
:1055A000078C4FF6EF7C07EA0C070784028B018C0F
:1055B0004FF6FF7707EA041640F6FF473A404FF6EA
:1055C000FF7707EA03373A434FF6FF7707EA0527E5
:1055D0003A43114FB8420ED0104FB8420BD0B0F141
:1055E000804F08D00E4FB84205D00E4FB84202D0BF
:1055F0000D4FB84206D14FF6DF77394046F010071D
:10560000394305E04FF65F77394044F010073943DE
:1056100002830184F0BD0000002C014000340140F1
:105620000004004000080040000C0040F0B50C46AB
:105630001546002200210026078C4FF6FF6C07EA72
:105640000C070784828B018C4FF6FF7707EA04264C
:105650004FF60C773A404FF6FF7707EA03172F43D0
:105660003A43114FB8420ED0104FB8420BD0B0F1B0
:10567000804F08D00E4FB84205D00E4FB84202D02E
:105680000D4FB84206D14FF6FF57394046F48077A8
:10569000394305E04FF2FF57394044F480773943EE
:1056A00082830184F0BD0000002C014000340140E1
:1056B0000004004000080040000C0040F0B50C461B
:1056C0001546002200210026078C4EF6FF7C07EAD3
:1056D0000C070784828B018C4FF6FF7707EA0436AC
:1056E00040F6FF473A404FF6FF7707EA05273A436F
:1056F0004FF6FF7707EA03373A43114FB8420ED00F
:10570000104FB8420BD0B0F1804F08D00E4FB842C6
:1057100005D00E4FB84202D00D4FB84206D14DF61B
:10572000FF77394046F48057394305E047F6FF5785
:10573000394044F48057394382830184F0BD00002E
:10574000002C0140003401400004004000080040EB
:10575000000C004030B589B005460C46012140F6EA
:105760000400FFF74BFC4FF47060ADF820001820E8
:105770008DF8230003208DF8220008A92C48FDF79E
:10578000B2F9ADF81850ADF814400020ADF81A0089
:10579000ADF816008DF81C0005A9264800F0D2FDD2
:1057A0006020ADF804000020ADF81000ADF80C004A
:1057B000ADF81200ADF80E000120ADF80600002093
:1057C000ADF808004FF47870ADF80A0001A9194847
:1057D00000F0F8FB01A9174800F052FC01A9154898
:1057E00000F0BAFC01A9134800F01CFD002111488B
:1057F00000F03DFC00210F4800F0A1FC00210D4805
:1058000000F007FD00210B4800F057FD0121094879
:1058100000F02FFB0121074800F03AFB0121054869
:1058200000F042FB4FF47A7002F0E4FA09B030BDA8
:1058300000080140002C014010B5AE48007800F08F
:10584000800000284FD10121880700F049FBD0B12A
:10585000A848007800F04000A8B1A648007800F001
:105860003F003F280AD1A348007840F08000A149BA
:1058700008704FF6FF70A049088004E09D4800784A
:10588000401C9C4908700221480700F029FB50B3D6
:105890009848007800F0400088B19648007840F0C1
:1058A0008000944908704FF0804000F00CFB924952
:1058B000088000214FF0804000F0D0FB13E0002072
:1058C0008C4908708C49088000214FF0804000F01E
:1058D0000AFD8848007840F040008649087002219F
:1058E000480700F0BBFB8548007800F080000028E6
:1058F0004FD10121880700F0F3FAD0B17F4800783A
:1059000000F04000A8B17D48007800F03F003F283B
:105910000AD17A48007840F08000784908704FF644
:10592000FF707749088004E074480078401C734990
:1059300008700421080700F0D3FA50B36F480078CC
:1059400000F0400088B16D48007840F080006B495D
:1059500008704FF0804000F0B9FA694908800021D2
:105960004FF0804000F0DEFB13E000206349087038
:105970006349088000214FF0804000F0B4FC5F488C
:10598000007840F040005D4908700221480700F0AF
:10599000C9FB5C48007800F0800000284FD101214D
:1059A000880700F09DFAD0B15648007800F040001A
:1059B000A8B15448007800F03F003F280AD1514870
:1059C000007840F080004F4908704FF6FF704E4954
:1059D000088004E04B480078401C4A4908700821C0
:1059E000C80600F07DFA50B34648007800F0400049
:1059F00088B14448007840F08000424908704FF078
:105A0000804000F066FA4049088000214FF0804055
:105A100000F0F2FB13E000203A4908703A49088090
:105A200000214FF0804000F05EFC3648007840F0E6
:105A30004000344908700221480700F0DDFB33487C
:105A4000007800F08000D0BB0121880700F048FA00
:105A5000D0B12E48007800F04000A8B12B48007863
:105A600000F03F003F280AD12848007840F080002D
:105A7000264908704FF6FF702549088004E0234846
:105A80000078401C214908701021880600F028FA8F
:105A9000A8B11E48007800F0400088B11B4800788B
:105AA00040F08000194908704FF0804000F014FA6F
:105AB0001749088000214FF0804000F0F1FB13E00F
:105AC0000020124908701249088000214FF08040E0
:105AD00000F009FC0D48007840F040000B490870C8
:105AE0000221480700F0DCFB1F214FF0804000F04E
:105AF000CCF910BD860000208A000020870000201D
:105B00008C000020880000208E00002089000020EA
:105B10009000002030B589B005460C4601210846AA
:105B2000FFF74CFA01210420FFF768FA0F20ADF8C7
:105B3000200028208DF8230008A93D48FCF7D3FF5A
:105B40000F213B48FDF75AF8ADF81850ADF8144056
:105B50000020ADF81A00ADF8160005A94FF08040FE
:105B600000F0F0FB0020ADF80400ADF806000120C5
:105B7000ADF808000020ADF80A00ADF80C0001A94E
:105B80004FF0804000F0BEF90420ADF80400002082
:105B9000ADF806000120ADF808000020ADF80A00BD
:105BA000ADF80C0001A94FF0804000F0ABF90820DF
:105BB000ADF804000020ADF806000120ADF80800A3
:105BC0000020ADF80A00ADF80C0001A94FF08040AC
:105BD00000F098F90C20ADF804000020ADF80600A4
:105BE0000120ADF808000020ADF80A00ADF80C0067
:105BF00001A94FF0804000F085F91C208DF81000BD
:105C000001208DF8110000208DF8120001208DF880
:105C1000130004A8FEF702F801221F21900700F0EC
:105C2000C7F90121880700F033F909B030BD000041
:105C30000008014010B50121014800F026F910BD0F
:105C40000004004030B589B005460C460121022011
:105C5000FFF7B4F901210820FFF7D0F90320ADF8D0
:105C6000200018208DF8230003208DF8220008A9B9
:105C70002348FCF738FF03212148FCF7BFFFADF8AC
:105C80001850ADF814400020ADF81A00ADF8160019
:105C90008DF81C0005A91B4800F054FB6020ADF8EE
:105CA00004000020ADF81000ADF80C00ADF81200B3
:105CB000ADF80E000120ADF806000020ADF8080098
:105CC000ADF80A0001A90F4800F046FA01A90D48F5
:105CD00000F0A8FA00210B4800F09BFA00210948C7
:105CE00000F0EBFA0121074800F0C3F80121054854
:105CF00000F0CEF80121034800F0D6F809B030BD1D
:105D0000000C01400004004010B501212A4800F0B9
:105D1000E7F800284FD00021274800F0B9F801210A
:105D2000254800F0B2F825480078012807DB01215A
:105D3000234880F84F1300202049087004E01F48D2
:105D40000078401C1D4908701E480078042807DBB5
:105D500001201B4981F84C0300201A49087004E017
:105D600018480078401C174908701748007809281F
:105D700007DB0121124880F84D13002012490870FA
:105D800004E011480078401C0F4908700F48007863
:105D9000632807DB01210A4880F84E1300200B49D5
:105DA000087004E009480078401C08490870012187
:105DB000014800F06DF810BD00080040920000207E
:105DC000DC050020930000209400002095000020B6
:105DD0007FB505460C4601210420FFF7EFF8ADF82A
:105DE0000850ADF804400020ADF80A00ADF80600F8
:105DF00001A90D4800F0A6FA012211460A4800F058
:105E0000D7F81E208DF8000001208DF801008DF8D4
:105E100002008DF803006846FDF700FF01210248EB
:105E200000F036F87FBD00000008004070B506465F
:105E30000C461546012E06D0022E09D0032E0CD09A
:105E4000042E14D10EE029462046FFF783FC0EE015
:105E500029462046FFF75EFE09E029462046FFF767
:105E6000F1FE04E029462046FFF7B2FF00BF00BF65
:105E700070BD21B1028842F08002028004E00288F5
:105E80004FF67F731A4002807047CA430282704700
:105E900021B1028842F00102028004E002884FF63C
:105EA000FE731A400280704731B1B0F8442042F4CA
:105EB0000042A0F8442005E0B0F84420C2F30E02EE
:105EC000A0F8442070470146888E70470146088F2D
:105ED00070470146888F70470146B1F8400070470F
:105EE00030B50246002000230024158A05EA01038C
:105EF000958905EA010413B10CB1012000E00020EE
:105F000030BD000070B505460C46244885420ED0D1
:105F1000234885420BD0B5F1804F08D021488542F7
:105F200005D02148854202D02048854200D100E0BA
:105F300000BF208850B92389A28861882846FFF7CE
:105F4000E9FAE188284600F0D0F925E02088042805
:105F50000AD12389A28861882846FFF71BFBE188C4
:105F6000284600F0CBF917E0208808280AD12389B9
:105F7000A28861882846FFF759FBE188284600F08F
:105F8000CAF909E02389A28861882846FFF796FBB1
:105F9000E188284600F0C8F970BD0000002C0140DF
:105FA000003401400004004000080040000C0040A4
:105FB0001AB183890B43838102E083898B438381F8
:105FC0007047000070B5002400220023058C4FF6B6
:105FD000FE7635400584028C8388048B4FF68F75DE
:105FE0002C40B51E2C400D882C43751E2A400D896F
:105FF0002A434D882A43144DA8420BD0134DA84282
:1060000008D0134DA84205D0124DA84202D0124D1F
:10601000A84213D14FF6F7752A404D892A434FF60F
:10602000FB752A408D882A434FF6FF652B404FF6BB
:10603000FF552B408D892B43CD892B4383800483CF
:10604000CD888586028470BD002C0140003401405B
:106050000040014000440140004801400A46002140
:10606000018C4FF6FD7319401143018470470A46B5
:106070000021018B4FF6F7731940114301837047DC
:1060800070B5002400220023058C4FF6EF763540D2
:106090000584028C8388048B48F6FF752C404FF6EC
:1060A000FF452C400D884FF6FF7606EA05252C4368
:1060B0004FF6DF752A400D8906EA05152A434D88FB
:1060C00006EA05152A43154DA84202D0144DA842F0
:1060D0001DD14FF67F752A404D894FF6FF7606EAAF
:1060E00005152A434FF6BF752A408D8806EA051527
:1060F0002A434FF6FF352B404FF2FF752B408D8919
:1061000006EA85052B43CD8906EA85052B43838066
:106110000483CD880587028470BD0000002C0140F7
:10612000003401400A460021018C4FF6DF7319400C
:106130004FF6FF7303EA02131943018470470A46BE
:106140000021018B4FF2FF7319404FF6FF7303EAF2
:10615000022319430183704770B5002400220023F5
:10616000058C4FF6FF6635400584028C8388848B4E
:106170004FF68F752C404FF6FC752C400D882C4344
:106180004FF6FF552A400D894FF6FF7606EA0525A2
:106190002A434D8806EA05252A43154DA84202D018
:1061A000144DA8421DD14FF2FF752A404D894FF67C
:1061B000FF7606EA05252A434FF6FF352A408D88EB
:1061C00006EA05252A434EF6FF752B404DF6FF756E
:1061D0002B408D8906EA05152B43CD8906EA051566
:1061E0002B4383808483CD888587028470BD000023
:1061F000002C0140003401400A460021018C4FF67A
:10620000FF5319404FF6FF7303EA02231943018439
:1062100070470A460021818B4FF6F77319401143EE
:106220008183704770B5002200230024058C4EF650
:10623000FF7635400584038C8488828B48F6FF7591
:106240002A404FF6FF452A400D884FF6FF7606EAB2
:1062500005252A434DF6FF752B400D8906EA0535C5
:106260002B434D8806EA05352B430B4DA84202D03F
:106270000A4DA84208D14BF6FF752C408D894FF688
:10628000FF7606EA85152C4384808283CD88A0F8AA
:106290004050038470BD0000002C014000340140D8
:1062A0000A460021018C4DF6FF7319404FF6FF732B
:1062B00003EA02331943018470470A460021818BA7
:1062C0004FF2FF7319404FF6FF7303EA022319439D
:1062D0008183704781867047018770478187704747
:1062E000A0F84010704781847047028B4FF6F3731B
:1062F0001A400283028B0A4302837047028B4FF2DB
:10630000FF331A400283028B4FF6FF7303EA012327
:106310001A4302837047828B4FF6F3731A408283CD
:10632000828B0A4382837047828B4FF2FF331A407D
:106330008283828B4FF6FF7303EA01231A43828321
:1063400070470000002202881D4B98420ED01D4B62
:1063500098420BD0B0F1804F08D01B4B984205D02B
:106360001A4B984202D01A4B984204D14FF68F73C1
:106370001A404B881A43174B984207D0164B984245
:1063800004D04FF6FF431A40CB881A4302808B8813
:1063900083850B8803850A4B98420BD0094B9842A2
:1063A00008D00E4B984205D00D4B984202D00D4BB1
:1063B000984201D10B7A0386012383827047000043
:1063C000002C01400034014000040040000800405F
:1063D000000C00400010004000140040004001404C
:1063E000004401400048014070B504468A480088D6
:1063F00000B28A4908808848408800B248808648B0
:10640000808800B288808448C08800B284490880AF
:106410008148008900B248807F48408900B2888066
:106420007D498889FAF781F805467E49F9F71DFF0D
:10643000E0677949C889FAF778F805467949F9F7A4
:1064400014FF802108517449088AFAF76EF805464E
:106450007449F9F70AFF842108516F49488AFAF70D
:1064600064F805466F49F9F700FFC4F8D4006A499B
:10647000888AFAF75AF805466A49F9F7F6FED821EC
:1064800008516549C88AFAF750F805466549F9F791
:10649000ECFEDC2108516049088BFAF746F8054606
:1064A0006049F9F7E2FEC4F82C015B49488BFAF722
:1064B0003CF805465B49F9F7D8FE4FF4987108514E
:1064C0005549888BFAF731F805465649F9F7CDFE5C
:1064D0004FF49A7108515049C88BFAF726F80546CF
:1064E0005049F9F7C2FEC4F884014B49088CFAF709
:1064F0001CF805464B49F9F7B8FE4FF4C471085132
:106500004549488CFAF711F805464649F9F7ADFEBA
:106510004FF4C67108514049888CFAF706F80546D1
:106520004049F9F7A2FEC4F8DC013B49C88CF9F7F1
:10653000FCFF05463B49F9F798FE4FF4F07108510E
:106540003549088DF9F7F1FF05463649F9F78DFE13
:106550004FF4F27108513049488DF9F7E6FF0546CE
:106560003049F9F782FEC4F834022B49888DF9F7D7
:10657000DCFF05462B49F9F778FE4FF40E71085100
:106580002549C88DF9F7D1FF05462649F9F76DFE73
:106590004FF40F7108512049088EF9F7C6FF0546E0
:1065A0002049F9F762FEC4F88C021B49488EF9F7BE
:1065B000BCFF05461B49F9F758FE4FF424710851FA
:1065C0001549888EF9F7B1FF05461649F9F74DFED2
:1065D0004FF4257108511049C88EF9F7A6FF0546FA
:1065E0001049F9F742FEC4F8E4020B49088FF9F7A5
:1065F0009CFF05460B49F9F738FE4FF43A710851F4
:106600000549488FF9F791FF05460649F9F72DFE30
:106610004FF43B71085170BD380D00205E00002022
:106620005800002000007A4410B540F225511D4862
:1066300000F053FA10B31B4800F00AFBC4B21A482A
:10664000008800F40040C8B91748008800F4804072
:1066500060B10A2C03D000201349088020E01248C2
:10666000008840F400401049088019E00D2C06D144
:106670000D48008840F480400B49088010E00A482B
:106680000088C0F30D0009490C5407480088401CDD
:106690000549088008460088C72801DD00200880D9
:1066A00010BD0000003801409C0000206E09002051
:1066B00010B586B00446012144F20400FEF79EFCAA
:1066C0004FF40070ADF8140003208DF81600182068
:1066D0008DF8170005A91C48FCF705FA4FF48060F7
:1066E000ADF8140004208DF8170005A91648FCF732
:1066F000FAF925208DF8000003208DF801008DF8AF
:10670000020001208DF803006846FDF787FA019426
:106710000020ADF80800ADF80A00ADF80C00ADF8A7
:1067200010000C20ADF80E0001A9084800F024FA72
:10673000012240F22551054800F0F9F901210348F2
:1067400000F063F906B010BD0008014000380140B8
:1067500010B5002440F225511C4800F0BEF910B3DA
:106760001A4800F075FAC4B21948008800F40040D5
:10677000C8B91748008800F4804060B10A2C03D0E3
:1067800000201349088020E01148008840F40040B0
:106790000F49088019E00D2C06D10D48008840F4FF
:1067A00080400B49088010E009480088C0F30D00C4
:1067B00008490C5406480088401C054908800846D2
:1067C0000088C72801DD0020088010BD004400407B
:1067D0009E000020360A002010B586B00446012134
:1067E0000420FEF70BFC01214804FEF7E7FB042020
:1067F000ADF8140018208DF8170005A92348FCF700
:1068000072F90820ADF8140004208DF8170005A9CE
:106810001E48FCF768F901214804FEF7DFFB002160
:106820004FF40030FEF7DAFB01940020ADF81000C1
:10683000ADF80800ADF80A000C20ADF80E000020FD
:10684000ADF80C0001A9124800F096F926208DF849
:10685000000002208DF801008DF8020001208DF863
:1068600003006846FDF7DAF940F22551084800F0C8
:10687000BDF8012240F22551054800F058F90121E8
:10688000034800F0C2F806B010BD00000008014047
:106890000044004010B500BF40F22551124800F0FE
:1068A0001CF970B140F225510F4800F09FF80E48D6
:1068B000001D00880D49087008460078FAF7E0FDD1
:1068C00011E040F22441084800F007F958B140F2C5
:1068D0002441054800F081F803480088C4B202480A
:1068E000001D0088C4B210BD00480040A000002078
:1068F00010B586B0044601210820FEF77FFB012178
:106900008804FEF75BFB264800F08CF84FF48060AB
:10691000ADF8100003208DF8120018208DF8130038
:1069200004A92048FCF7DFF84FF40060ADF8100030
:1069300004208DF8130004A91A48FCF7D4F8009439
:106940000020ADF80400ADF80600ADF80800ADF881
:106950000C000C20ADF80A006946114800F00CF953
:1069600027208DF8140003208DF815008DF81600EF
:1069700001208DF8170005A8FDF750F940F22551C8
:10698000074800F033F8012240F22551044800F096
:10699000CEF80121024800F038F806B010BD000022
:1069A00000480040000C014070B505460C46012D22
:1069B00004D0022D06D0032D0CD107E02046FFF7AE
:1069C00077FE08E02046FFF707FF04E02046FFF7C8
:1069D0008FFF00E000BF00BF70BD01F40072B2F590
:1069E000007F00D100BFCA430280704710B500226B
:1069F000002340F66A14A14200D100BF0A1201240C
:106A00009440A3B2DC43048010BD21B1828942F4DA
:106A10000052828104E082894DF6FF731A40828120
:106A20007047000010B504462048844209D1012176
:106A30008803FEF7F3FA00214FF48040FEF7EEFAE8
:106A400032E01B48844209D101214804FEF7C6FA0E
:106A500000214FF40030FEF7C1FA25E015488442CA
:106A600009D101218804FEF7B9FA00214FF48020F2
:106A7000FEF7B4FA18E01048844209D10121C80495
:106A8000FEF7ACFA00214FF40020FEF7A7FA0BE066
:106A90000A48844208D101210805FEF79FFA002127
:106AA0004FF48010FEF79AFA10BD00000038014044
:106AB0000044004000480040004C004000500040AE
:106AC00002460020B1F5007F00D100BF13880B40C3
:106AD0000BB1012000E00020704770B50246002491
:106AE00000230025002040F66A16B14200D100BF05
:106AF000C1F3421501F01F03012606FA03F3012D2D
:106B000002D19689334006E0022D02D1168A334025
:106B100001E0968A33400C12012606FA04F4168826
:106B2000344013B10CB1012000E0002070BDF0B57D
:106B30000346002400260025002040F66A17B942CB
:106B400000D100BF1846C1F3421401F01F0601270F
:106B500007FA06F5012C01D10C3004E0022C01D11A
:106B6000103000E014301AB107682F43076002E0CC
:106B70000768AF430760F0BD2DE9F04786B00546D2
:106B80000E460024A24600BFA1460027B08900B1EE
:106B900000BF2F462C8A4CF6FF700440F088044357
:106BA0002C82AC894EF6F3100440B088318908433A
:106BB000718908430443AC81AC8A4FF6FF4004401E
:106BC000B0890443AC8201A8FEF738FA1F48874217
:106BD00002D1DDF810A001E0DDF80CA0A88900F4D6
:106BE000004040B10AEBCA0000EB0A1031684900CE
:106BF000B0FBF1F807E00AEBCA0000EB0A103168BD
:106C00008900B0FBF1F86420B8FBF0F00401200922
:106C1000642101FB1089A88900F4004040B13220B2
:106C200000EBC900B0FBF1F000F00700044308E0FE
:106C3000322000EB09106421B0FBF1F000F00F00EE
:106C400004432C8106B0BDE8F08700000038014005
:106C500001468888C0F308007047C1F308028280AB
:106C6000704700BFFEE700002DE9F04105462C46C5
:106C700010211148FBF7C2FF002619E0274607F054
:106C80008007802F04D120210B48FBF7B9FF03E0D8
:106C900020210948FBF7B2FF6006040E10210648C8
:106CA000FBF7AEFF10210448FBF7A8FF701CC6B22B
:106CB000082EE3DBBDE8F0810008014010B5044672
:106CC000FCF76CF87820FFF7CFFFFCF78BF800207B
:106CD000FFF7CAFFFCF786F82046FFF7C5FFFCF771
:106CE00081F8FCF76FF810BD10B50446FCF756F8B4
:106CF0007820FFF7B9FFFCF775F84020FFF7B4FFE5
:106D0000FCF770F82046FFF7AFFFFCF76BF8FCF7D5
:106D100059F810BD37B514460846064B6A46214659
:106D200000F05EF904466946002000F0F0FC2046C1
:106D30003EBD00000F770008490050EAC12018BF8F
:106D400004204A0D18BF40F0010040F2FF72B2EB80
:106D5000515F08BF40F00200012808BF05207047BE
:106D60002DE9F0414F1E00EBC7010446D1E90001B7
:106D700015461E4637F006020DD02A463346F9F76F
:106D800059FB7F1E04EBC703D3E90023F9F7ABFAE5
:106D900037F00602F1D1022F25D0042F13D0062F91
:106DA00018BFBDE8F0812A463346F9F743FBD4E922
:106DB0000A23F9F798FA2A463346F9F73BFBD4E958
:106DC0000823F9F790FA2A463346F9F733FBD4E95A
:106DD0000623F9F788FA2A463346F9F72BFBD4E95C
:106DE0000423F9F780FA2A463346F9F723FBD4E95E
:106DF0000223F9F778FA2A463346F9F71BFBD4E960
:106E00000023BDE8F041F9F76EBA0122F9F7E5BDBC
:106E1000F9F769BA0022134610461146F9F76EBD1C
:106E2000024A00201107F9F7D8BD000001FDFFFF5D
:106E300002E008C8121F08C1002AFAD17047704743
:106E4000002001E001C1121F002AFBD170470000A1
:106E50000149086070470000D80000202DE9FF5F5D
:106E600082B00021DDE90430020DDDF840B00343BB
:106E700018D044F61050A2F2FF3242431514119874
:106E800001281FD0A5EB0B00401C5FEA000A4FF061
:106E900000064E4FDFF83891B046504615D5CAF17E
:106EA000000413E0119801244AA3012801D16FEADC
:106EB0000B010298119AC0E90031C0E9024206B004
:106EC000BDE8F09FCBF10000DFE704460021404A17
:106ED000491842EB0450CDE9001012E0E00707D05A
:106EE00032463B4640464946F9F7A4FA8046894671
:106EF00032463B4610461946F9F79CFA06460F46BD
:106F00006410002CEAD1DDE90401DDE90023BAF1C7
:106F1000000F06DAF9F78EFA42464B46F9F78AFA7D
:106F200005E0F9F7EBFC42464B46F9F7E7FC04466F
:106F30000E460022284BF9F78DFB03D84FF0FF30A7
:106F4000014607E00022254B20463146F9F7CBF9F0
:106F5000F9F75AFD102409E0002C0ADB0A2200236D
:106F6000F9F7D6FB039B30321A55641E50EA010232
:106F7000F2D1641C039AC4F111031444119A012A3A
:106F800003D0012208430DD10AE0084304D00020B9
:106F90004FF0110B119072E7A3EB0B056D1E0DE086
:106FA0005B4504DD4FF0000205F1010504E003DA62
:106FB0004FF00002A5F10105002AECD002981199CA
:106FC000C0E90231C0E9004579E700000000144043
:106FD0000000F03F300000000000F0430000E03F00
:106FE0002DE9FF4F95B09B468946064600250FE2E6
:106FF000252877D100242746F84A0121059400E08E
:10700000044316F8013F203B01FA03F01042F7D188
:1070100030782A2811D06FF02F033078A0F1300299
:10702000092A16D8059A44F0020402EB820203EB07
:1070300042021044761C0590EFE759F8042B0592A4
:10704000002A03DA504244F40054059044F002044C
:10705000761C30782E2816D116F8010F44F004045F
:107060002A280DD06FF02F023078A0F13003092BC1
:1070700009D807EB870302EB4303C718761CF3E735
:1070800059F8047B761C30786C280FD006DC4C282D
:1070900017D068280DD06A2814D104E0742810D0C5
:1070A0007A280FD10DE044F400140AE044F480146F
:1070B00001E044F440147278824202D104F5801455
:1070C000761C761C307866280BD013DC582877D0D5
:1070D00009DC002875D04528F6D04628F4D047288A
:1070E0001AD19DE118E0632835D0642879D065284D
:1070F00012D195E1702873D008DC6728F1D0692897
:107100006FD06E280DD06F2806D1B5E073282CD033
:10711000752875D0782874D05A46179990476D1CF9
:1071200075E1C4F30250022809D003280DD0D9F824
:10713000001004280DD00D6009F1040967E1D9F8A9
:107140000010EA17C1E90052F6E7D9F800100D80E7
:10715000F2E70D70F0E719F8041B8DF8001000201D
:107160008DF80100EA46012003E059F804AB4FF026
:10717000FF3061074FF0000102D40DE008F101017A
:107180008846B9420FDA8045F8DB1AF80810002962
:10719000F4D108E008F1010188468142FADB1AF8CF
:1071A00008100029F6D105985B46A0EB0807214698
:1071B0003846179A00F094FA284400EB080507E0D7
:1071C0004DE029E10DE01AF8010B5A461799904756
:1071D000B8F10108F7D25B4621463846179A13E109
:1071E00042E00A220092C4F302524FF0000A022A3F
:1071F00008D059F804CB032A4FEAEC710AD00DE00D
:1072000029E02AE009F1070121F00702F2E802C1B2
:10721000914609E00FFA8CFC4FEAEC71042A03D185
:107220004FFA8CFC4FEAEC71002907DA0A4600217C
:10723000DCF1000C61EB02012D2202E0220504D5F5
:107240002B228DF80420012203E0E20701D0202246
:10725000F7E7904659E00A2102E010220DE01021E4
:107260004FF0000A00910BE010224FF0000A44F0AA
:1072700004040827009203E008224FF0000A00925D
:10728000C4F30252022A05D059F804CB0021032A84
:1072900008D009E009F1070121F00702F2E802C174
:1072A000914605E01FFA8CFC042A01D10CF0FF0C7A
:1072B0004FF00008220728D5702806D0009B83F0E5
:1072C000100353EA0A0305D00EE040228DF8042093
:1072D000012208E05CEA010206D030228DF8042089
:1072E0008DF8050002229046009B83F0080353EAC4
:1072F0000A030AD15CEA010201D1620705D53022F6
:107300008DF804204FF001087F1E582804D034A0C7
:1073100003900EA802900DE036A0F9E753466046B0
:10732000009AF9F7F5F984460398825C0298401EAA
:10733000029002705CEA0100F0D1029806A9081AD6
:1073400000F1200A600702D524F4803400E0012710
:10735000574502DDA7EB0A0000E0002000EB0A0120
:10736000009005984144401A0590E00306D45B461E
:107370002146179A059800F0B3F90544002706E066
:1073800001A85A46C05D179990476D1C7F1C474560
:10739000F6DBE0030CD55B462146179A059800F012
:1073A0009FF9054404E030205A46179990476D1C18
:1073B0000099481E00900029F5DC08E00298029927
:1073C0005A460078491C0291179990476D1CBAF1F2
:1073D0000001AAF1010AF1DC65E1000009280100C1
:1073E000303132333435363738396162636465663B
:1073F00000000000303132333435363738394142FD
:10740000434445460000000000F058F90544761C4E
:10741000307800287FF4ECAD19B02846BDE8F08F35
:10742000620700D4062709F1070222F0070CFCE8E6
:107430000223E14603F000485FEA080C02D00FF295
:10744000702C0DE05FEA045C02D50FF2682C07E0B7
:107450005FEAC47C02D00FF2602C01E0AFF2700C46
:107460004FF0FF3823F00043CDF850C065280CD012
:1074700006DC452809D046281DD047283DD13DE0EF
:10748000662818D067287ED138E00021112F01DB53
:10749000112000E0781CCDE9000106A90EA8FFF735
:1074A000DDFCDDE90F010E9A03910021009207F146
:1074B000010A04914DE04FF000400097CDE9011022
:1074C00006A90EA8FFF7CAFCDDE90F0203920E9B86
:1074D00011990022DDF80CA00093049211B9791CD7
:1074E00000EB010AB7EB0A0004D4C0F1FF3007F14A
:1074F000010A0490AAEB0700019044E0012F00DA92
:1075000001270021112F01DD112000E03846CDE9CF
:10751000000106A90EA8FFF7A1FCDDE90F010E9AF4
:107520000391002104910092BA4621070CD40399DB
:10753000514500DA8A46BAF1010F05DD009AAAF139
:107540000101515C302908D0B84202DA10F1040F71
:1075500006DA0121CDE9011015E0AAF10101E9E700
:10756000002805DC049901440491AAEB000102E023
:10757000411C514500DD8A460499401A401C019087
:107580004FF000400290200704D40198504501DBE1
:10759000CDF8048000208DF84F0002980DF14F07C0
:1075A000B0F1004F25D02B200E9002984FF002082A
:1075B00000280CDA404202902D200E9007E00A21AC
:1075C0000298F9F78FF83031029007F8011DB8F1F1
:1075D0000001A8F10108F2DC02980028EFD1791E21
:1075E0000E980870307800F0200040F0450007F851
:1075F000020D12A8C01B00F107081498007800B112
:10760000012000EB0A01019801EBE071059841446B
:10761000401A401E0590E00306D45B462146179AA7
:10762000059800F05DF805441498007818B15A46A2
:10763000179990476D1CE00324D55B462146179AA5
:10764000059800F04DF805441CE00498002807DB7D
:10765000DDE90301884203DD0098405C179901E0F1
:10766000179930205A469047049805F10105401CAF
:1076700004900198401E019004D12E205A4617997B
:1076800090476D1CBAF10001AAF1010ADDDC05E0AA
:1076900017F8010B5A46179990476D1CB8F1000175
:1076A000A8F10108F4DC5B462146179A0598ABE681
:1076B0002D0000002B000000200000002DE9F0410B
:1076C000044600251E461746880404D405E03946C2
:1076D0002020B0476D1C641EF9D52846BDE8F08116
:1076E0002DE9F041044600251E469046C80301D509
:1076F000302700E02027880404D505E041463846BD
:10770000B0476D1C641EF9D52846BDE8F0810A68B3
:10771000531C0B601070704770B504460D46294627
:107720002068F8F7D5FF00D2256085F00046304686
:107730002168F8F7CDFF02D285F00040206070BDCF
:107740002DE9F04D8D4F21F0004A86B005460C46DC
:10775000BA452ADBAAEB070028430AD088488245AD
:1077600001DC1AD1CDB106B02846BDE8F04DFFF7D7
:107770004CBB844A844B2846F8F75CFE07460E460D
:10778000824A834B28462146F8F754FE06B03A4613
:107790003346BDE8F04DF8F7A6BD0120FFF758FBD2
:1077A00006B0BDE8F04DFFF735BB7A48824542DAB6
:1077B000BAF1795F0BDA2846FFF7BEFA042808BF52
:1077C000FFF72EFB284606B02146BDE8F08D2A467D
:1077D0000B461046F8F72EFE834602466E480E46CC
:1077E0000B4606217844FFF7BBFA5A463346F8F7B2
:1077F00021FE804669488A465A4633460421784429
:10780000FFF7AEFA5A463346F8F714FE00223B461D
:10781000F8F769FD02460B4640465146F9F76EF807
:107820002A462346F8F706FE06B02A462346BDE858
:10783000F04DF8F758BD284624F0004100223D469F
:107840003B46F8F7F4FD4FF0FF32F9F7C6F806466D
:10785000024653480F460B4606217844FFF780FA4C
:1078600032463B46F8F7E6FDCDE900014D48324689
:107870003B4604217844FFF773FA32463B46F8F75B
:10788000D9FD00222B46F8F72EFD834602913046A3
:10789000394600F03CFC804643480D46504517DC15
:1078A000DDE900015A46029BF9F728F842462B46CB
:1078B000F8F7C0FD42462B46F8F715FD0122F9F70F
:1078C0008CF8304A304BF8F7AFFD304A304B4CE083
:1078D0004FF0000A52460B464046F8F704FDCDE94A
:1078E000031052462B4610461946F8F7A3FD3246C0
:1078F0003B46F8F79CFDDDE90332F8F7FFFF06464B
:107900000F46DDE900015A46029BF8F7F7FF834670
:107910000091012230463946F9F75FF8194A1A4BAF
:10792000F8F785FD06460F46012240462946F9F73D
:1079300054F85A46009BF8F77DFD32463B46F8F76F
:1079400073FD06460F46012250462946F9F745F8D1
:107950000E4DDFF858802A464346F8F768FD324658
:107960003B46F8F764FD2A464346F8F760FD002CD5
:10797000D8BF81F0004106B0BDE8F08D0000F03FB7
:107980000000F07F075C143326A6913C182D445468
:10799000FB21F93F0000E03FA03A0000B63A0000AA
:1079A0002A3A0000403A00003333EF3FFB21E93F21
:1079B0002DE9F84F04460D4621F00040009173492F
:1079C000814211DC7249884201DC06D12CB120468B
:1079D0002946BDE8F84FFFF718BA6E48002DCCBF16
:1079E0006D496E49BDE8F88F6D49814211DD6D49E1
:1079F0008142D8BF4FF0FF366DDD20462946FFF7A4
:107A00009BF9042808BFFFF70BFA20462946BDE87A
:107A1000F88F6549654F25F00045814233DD6449A3
:107A2000814219DD002632464FF080432046294628
:107A3000F8F759FC80468A46012220462946F8F785
:107A4000CCFF00223B46F8F7EFFC42465346F8F7DE
:107A500055FF04460D463EE001260022BA463B464D
:107A600020462946F8F73FFC80460F460022534641
:107A700020462946F8F7D8FC42463B46F8F73EFF39
:107A800004460D4627E04B4981421BDDDFF828A163
:107A900002260022534620462946F8F7CBFC002256
:107AA0003B46F8F720FC80460F460022534620460E
:107AB0002946F8F7B9FC42463B46F8F71FFF044653
:107AC0000D4608E0032622462B4600203B49F8F7E6
:107AD00015FF04460D4622462B4610461946F8F778
:107AE000A9FC8B46824602460B46F8F7A3FC0746E4
:107AF0000246334888460B4606217844FFF730F9A2
:107B000052465B46F8F796FC82462E488B463A462C
:107B1000434605217844FFF723F93A464346F8F7F0
:107B200089FC02460B46002E504659460CDAF8F7FF
:107B3000DAFB22462B46F8F77DFC01B022462B46A5
:107B4000BDE8F04FF8F773BCF8F7CDFB22462B46A3
:107B5000F8F770FC1C4A7A4402EBC603D3E9002311
:107B6000F8F762FC22462B46F8F75EFC174A7A4487
:107B700002EBC603D3E90023F8F759FC009A002A68
:107B8000B8BF81F00041BDE8F88F0000000010444C
:107B90000000F07F182D4454FB21F93FFB21F9BF71
:107BA0000000DC3F0000203E0000F33F0000F03FFB
:107BB0000000E63F008003400000F83F0000F0BFF7
:107BC00042380000003800009E3700006637000091
:107BD0002DE9F04D9446CCF1000423F000464CEA28
:107BE0000404524F46EAD4749A46884621F0004273
:107BF000BC4206D8454240EA050442EAD474BC427D
:107C000004D9BDE8F04D6246FFF702B9AAF140552C
:107C1000A5F17F6555EA0C040BD0022404EAAA748E
:107C2000434DDFF810E144EAD87452EA000B04D067
:107C30000CE0BDE8F04DFFF7BBBE002C14BF012CDB
:107C4000BDE8F08D022C30D0032C32D056EA0C0B5C
:107C50000AD0BE4220D1BA4209D126F0804622F095
:107C600080423346114617E000291ADB25E0DFF891
:107C7000C8B0FB44002C04BFDBE90001BDE8F08D77
:107C8000012C02BFDBE9000181F00041BDE8F08D6D
:107C9000022C0AD0032C0CD0BA4212D1B8F1000F3A
:107CA0000BDA23482549BDE8F08D28462449BDE874
:107CB000F08D28467146BDE8F08D1D482149BDE88C
:107CC000F08D921B12153C2AC4BF19481D490EDCC9
:107CD000BAF1000FBEBF12F13C0F0020014606DBD7
:107CE0006246F8F70BFE21F00041FFF761FE002C21
:107CF00008BFBDE8F08D012C04BF81F00041BDE854
:107D0000F08D114A114B022C07D0F8F78DFB2A4653
:107D1000BDE8F04D0A4BF8F787BBF8F785FB2A461C
:107D2000BDE8F04D064BF8F782BB00000000F07F85
:107D3000182D4454FB2109C0FA360000FB21F9BF7D
:107D4000FB210940FB21F93F075C143326A6A13C27
:107D50002DE9FC47044611480068F8F7EBFB07469D
:107D60000F4A104BF8F766FB05460E462068F8F7F9
:107D7000F2FB07460C4A0D4BF8F75CFB81462A469E
:107D80003346F8F7B0FACDE90001F8F71EFC2060A1
:107D9000024920680860BDE8FC870000540000200C
:107DA0009A9999999999B93FCDCCCCCCCCCCEC3F50
:107DB00010B56FF00400FDF769FB0A4800680A4936
:107DC000B0FBF1F0094908700846007800EB40016B
:107DD000C1EBC0104FF6FF7101EAC00004490880F2
:107DE00010BD00000000002000127A0036000020C4
:107DF000380000200146114A12884A434FF0E02320
:107E00005A6100229A611A46126942F001021A610F
:107E100000BF4FF0E022106900F001021AB100F437
:107E20008032002AF5D04FF0E022126922F00102E0
:107E30004FF0E0231A6100229A6170473800002059
:107E40000146114A12784A434FF0E0235A6100225A
:107E50009A611A46126942F001021A6100BF4FF09E
:107E6000E022106900F001021AB100F48032002A09
:107E7000F5D04FF0E022126922F001024FF0E0232A
:107E80001A6100229A617047360000202DE9F04700
:107E900004464FF07C512046F8F7B5F98146254657
:107EA0002E460C48A0EB6606354629464846F8F7AC
:107EB000AAF982462946F8F7A6F980464FF07F5185
:107EC000F8F79EF907462946F8F79DF90546284632
:107ED000BDE8F087DF59375F4FF4A060FBF7D6FEAF
:107EE000FFF766FFFBF770FAFBF72EFF102356A291
:107EF00000212820FCF76CF9082355A2022100205C
:107F0000FCF766F94FF4E1310320FEF74DFD5348CD
:107F100090F8521352A000F021F908E0082354A26F
:107F200003210020FCF754F90A20FFF763FFFAF75A
:107F300041F80028F2D151A000F010F9082354A212
:107F400003210020FCF744F94FF4FA70FFF752FFC9
:107F5000FBF726FB52A000F001F9082355A20421EB
:107F60000020FCF735F93D48FCF706FA3B48FCF7E2
:107F70005DFE472240F6C3110120FDF757FF47225F
:107F80004FF6FF710220FDF751FF472240F2E73123
:107F90000420FDF74BFF01204A4908604AA000F089
:107FA000DDF808234EA205210020FCF711F94FF45B
:107FB000FA70FFF71FFFFBF793FE01204D49C1F850
:107FC000840140E0254890F84F0350B10021234838
:107FD00080F84F1390F85203012802D11F48F8F798
:107FE0008FFD1E4890F84C0360B100201B4981F8BA
:107FF0004C030846FCF71CFF1848FAF7FFFE174829
:10800000FAF792FA154890F84D0358B10021134839
:1080100080F84D13FAF7FEFD1048FAF7F3FD0F480C
:10802000FAF706FD0D4890F84E0360B100210B48A9
:1080300080F84E13FBF7E6F9084890F8520310B9A0
:108040000648FBF70BFFBDE75E20466C795E00003B
:108050004253505F496E69742E2E2E00DC050020BD
:10806000666C795F6C6F636B3D3D25640D0A0000A3
:10807000424D505F496E69742E2E2E00424D505F66
:10808000496E6974206973204F4B210D0A0000006E
:10809000424D505F496E6974206973204F4B210037
:1080A0006D70755F696E6974206973204F4B210D87
:1080B0000A0000004D50555F496E697420697320B5
:1080C0004F4B2100B0812142464C595F496E697483
:1080D0002069732046696E6973686564210D0A0022
:1080E0004253505F496E69742046696E6973682116
:1080F000000000000080214210B50246012000E08F
:1081000050430B1EA1F10104E1B2F9D110BD2DE9DC
:10811000F04106460F46F8F7A1FC041E0D4618BFB5
:108120000120284320F00040C0F17F6000F1E040D2
:10813000C00F0ED0301C18BF0120384320F0004083
:10814000C0F17F6000F1E040C00F04BF0120FEF7E6
:108150007FFE20462946BDE8F08100000FB438B507
:1081600005A800900F48009A0499FEF7D3FD00205F
:1081700000900C48F7F7E8FF85B200240DE00948AD
:10818000015D0948FEF769FD00BF40210648FEF782
:1081900097FC0028F9D0601C84B2AC42EFDB38BCFD
:1081A0005DF814FB460C0020004800400000000071
:1081B00000000000002F000000000700070000146E
:1081C0007F147F1400242A7F2A120062640813237C
:1081D00000364955225000000503000000001C2213
:1081E0004100000041221C000014083E0814000851
:1081F000083E0808000000A0600000080808080801
:10820000000060600000002010080402003E514998
:10821000453E0000427F4000004261514946002136
:1082200041454B31001814127F1000274545453950
:10823000003C4A49493000017109050300364949AB
:10824000493600064949291E000036360000000064
:1082500056360000000814224100001414141414AF
:108260000000412214080002015109060032495958
:10827000513E007C1211127C007F49494936003E74
:1082800041414122007F4141221C007F494949412F
:10829000007F09090901003E4149497A007F080829
:1082A000087F0000417F4100002040413F01007FE6
:1082B00008142241007F40404040007F020C027FB2
:1082C000007F0408107F003E4141413E007F0909C4
:1082D0000906003E4151215E007F091929460046EA
:1082E000494949310001017F0101003F4040403FC1
:1082F000001F2040201F003F4038403F006314080B
:1083000014630007087008070061514945430000E5
:108310007F41410000552A552A55000041417F0008
:1083200000040201020400404040404000000102FD
:108330000400002054545478007F484444380038E6
:108340004444442000384444487F0038545454186E
:1083500000087E0901020018A4A4A47C007F080480
:1083600004780000447D4000004080847D00007F50
:10837000102844000000417F4000007C041804786D
:10838000007C0804047800384444443800FC242469
:1083900024180018242418FC007C08040408004851
:1083A0005454542000043F444020003C4040207C72
:1083B000001C2040201C003C4030403C0044281061
:1083C0002844001CA0A0A07C004464544C44141415
:1083D000141414140000000000000000000000004D
:1083E00000000000000000F8000000000000003362
:1083F0003000000000100C06100C06000000000009
:108400000000000040C07840C0784000043F0404F1
:108410003F040400007088FC08300000001820FFB2
:10842000211E0000F008F000E018000000211C03ED
:108430001E211E0000F00888700000001E21232469
:108440001927211010160E00000000000000000087
:1084500000000000000000E0180402000000000717
:108460001820400000020418E0000000004020181E
:1084700007000000404080F0804040000202010FF1
:1084800001020200000000F0000000000101011FD5
:1084900001010100000000000000000080B0700039
:1084A00000000000000000000000000000010101C9
:1084B0000101010100000000000000000030300058
:1084C0000000000000000000806018040060180632
:1084D0000100000000E010080810E000000F10206C
:1084E00020100F00001010F8000000000020203FB6
:1084F0002020000000700808088870000030282440
:1085000022213000003008888848300000182020E0
:1085100020110E000000C02010F800000007042405
:10852000243F240000F8088888080800001921204A
:1085300020110E0000E0108888180000000F1120A4
:1085400020110E0000380808C83808000000003F5D
:10855000000000000070880808887000001C2221BC
:1085600021221C0000E010080810E0000000312269
:1085700022110F00000000C0C00000000000003009
:10858000300000000000008000000000000080605B
:1085900000000000000080402010080000010204DC
:1085A00008102000404040404040400004040404C3
:1085B000040404000008102040800000002010087F
:1085C00004020100007048080808F00000000030B4
:1085D00036010000C030C828E810E0000718272442
:1085E00023140B000000C038E0000000203C2302F0
:1085F0000227382008F8888888700000203F202053
:1086000020110E00C0300808080838000718202084
:108610002010080008F808080810E000203F20207B
:1086200020100F0008F88888E8081000203F20205C
:108630002320180008F88888E8081000203F200050
:1086400003000000C0300808083800000718202088
:10865000221E020008F808000008F808203F210147
:1086600001213F20000808F8080800000020203FF2
:108670002020000000000808F8080800C080808062
:108680007F00000008F888C028180800203F20015B
:108690002638200008F8080000000000203F2020B5
:1086A0002020300008F8F800F8F80800203F003FCC
:1086B000003F200008F830C00008F808203F2000E4
:1086C00007183F00E01008080810E0000F102020F5
:1086D00020100F0008F808080808F000203F2101CA
:1086E00001010000E01008080810E0000F18242421
:1086F00038504F0008F8888888887000203F200094
:10870000030C302000708808080838000038202149
:1087100021221C00180808F8080818000000203F53
:108720002000000008F808000008F808001F2020BA
:1087300020201F000878880000C83808000007388B
:108740000E010000F80800F80008F800033C0700DC
:10875000073C0300081868808068180820302C0344
:10876000032C30200838C800C83808000000203F1B
:108770002000000010080808C8380800203826210A
:1087800020201800000000FE020202000000007F0E
:1087900040404000000C30C000000000000000011C
:1087A0000638C00000020202FE0000000040404007
:1087B0007F0000000000040202020400000000002C
:1087C00000000000000000000000000080808080A9
:1087D0008080808000020204000000000000000091
:1087E000000000000000808080800000001924222A
:1087F00022223F2008F8008080000000003F112066
:1088000020110E000000008080800000000E11206A
:1088100020201100000000808088F800000E112048
:1088200020103F200000808080800000001F222256
:1088300022221300008080F0888888180020203FC2
:10884000202000000000808080808000006B9494D5
:108850009493600008F8008080800000203F210091
:1088600000203F2000809898000000000020203F5A
:1088700020200000000000809898000000C0808048
:10888000807F000008F8000080808000203F2402E4
:108890002D302000000808F8000000000020203FD4
:1088A000202000008080808080808000203F200089
:1088B0003F20003F8080008080800000203F21001A
:1088C00000203F200000808080800000001F2020CA
:1088D00020201F00808000808000000080FFA120F9
:1088E00020110E000000008080808000000E11200A
:1088F00020A0FF80808080008080800020203F2199
:10890000200001000000808080808000003324244B
:1089100024241900008080E0808000000000001FF7
:10892000202000008080000000808000001F2020A8
:1089300020103F20808080000080808000010E3069
:108940000806010080800080008080800F300C03CA
:108950000C300F0000808000808080000020312ECD
:108960000E312000808080000080808080818E70A9
:108970001806010000808080808080000021302C5B
:108980002221300000000000807C02020000000074
:10899000003F404000000000FF0000000000000019
:1089A000FF0000000002027C800000000040403F09
:1089B00000000000000601010202040400000000A3
:1089C00000000000000000000000000000000000A7
:1089D0000000000000000000000000000000000097
:1089E0000000000000000000000000000000000087
:1089F0000000000000000000000000000000000077
:108A00000000000000000000000000000000000066
:108A10000000000000000000000000000000000056
:108A20000000000000000000000000000000000046
:108A30000000000000000000000000000000000036
:108A40000000000000000000000000000000000026
:108A50000000000000000000000000000000000016
:108A60000000000000000000000000000000000006
:108A700000000000000000000000000000000000F6
:108A800000000000000000000000000000000000E6
:108A900000000000000000003FF86000000000003F
:108AA000000000000000001FFFFFF00000000000B9
:108AB000000000000000007FFFFFC0000000000079
:108AC00000000000000005FFFFFFE40000000000C0
:108AD0000000000000000FFFFFFF8000000000000A
:108AE0000000000000000F000FFF00000000000069
:108AF000000000000000060000FF800000000000F1
:108B00000000000000001860001FF80000000000D6
:108B10000000000000003C7800078000000000001A
:108B2000000000000000306E0000000000000000A7
:108B300000000000000050738000000000000000F2
:108B40000000000000008000C00005FF0037F000BA
:108B5000001F800000010000FC0000000007FF80F3
:108B600003F0300000000800380000000000BFFFE4
:108B7000FFE004000001900060000000000087FF9B
:108B8000FFFE00000001E00060000000000001FFA7
:108B9000FFFFC00000004000600600000000001F52
:108BA000FC00080000000000E0060000100080004B
:108BB000000000000000000060060000300180009E
:108BC00000000000000000007006000030070000F8
:108BD00000000000000000007FC60000E00F000061
:108BE000000000000000000F81CC0010E038000001
:108BF000000000000000000FC008860000600000B8
:108C0000000000000000001FF620000021C000004E
:108C1000000000000000001FC00000000000000075
:108C2000000000000000003E000000000401000001
:108C300000000000000000F80000000048000000F4
:108C400000000000000001F00000000070000000C3
:108C5000000000000000072000000000F000780085
:108C60000000000000003C3800000000F000780028
:108C7000000000000000783000000001C000780013
:108C8000000000000001E000000000038000700010
:108C9000000000000003C00000000006000070009B
:108CA00000000000000000000000001C0000300078
:108CB00000000000000000000000003C0000300048
:108CC00000000000000000000000007800007000BC
:108CD0000000000000000000000001E00000F000C3
:108CE0000000000000000000000003C00003F000CE
:108CF00000000000000000000000060000078000E7
:108D00000000000000000000000000000000000063
:108D10000000000000000000000000000000000053
:108D20000000000000000000000000000000000043
:108D30000000000000000000000000000000000033
:108D40000000000000000000000000000000000023
:108D50000000000000000000000000000000000013
:108D60000000000000000000000000000000000003
:108D700000000000000000000000000000000000F3
:108D800000000000000000000000000000000000E3
:108D900000000000000000000000000000000000D3
:108DA00000000000000000000000000000000000C3
:108DB00000000000000000000000000000000000B3
:108DC00000000000000000000000000000000000A3
:108DD0000000000000000000000000000000000093
:108DE0000000000000000000000000000000000083
:108DF0000000000000000000000000000000000073
:108E00000000000000000000000000000000000062
:108E10000000000000000000000000000000000052
:108E20000000000000000000000000000000000042
:108E30000000000000000000000000000000000032
:108E40000000000000000000000000000000000022
:108E50000000000000000000000000000000000012
:108E60000000000000000000000000000000000002
:108E700000000000000000000000000000000000F2
:108E800000000000000000000000000000000000E2
:108E900000000000000000000006000000000000CC
:108EA00000000000000000000FFFB0000000000004
:108EB000000000000000007FFFFC00000000000038
:108EC00000000000000001FFFFF81FC000000000CC
:108ED0000000000000000FFFFFFFF800000000008E
:108EE0000000000000001FE01FFFC00000000000A5
:108EF0000000000000001E83887F8000000000004A
:108F00000000000000003C00000FF0000000000026
:108F1000000000000000F8FA0003870000000000D5
:108F2000000000000000F8FE0000C000000000008B
:108F3000000000000001E0E7060030000000000033
:108F40000000FF0000010003CE0007800FF7FFF0D4
:108F5000000FFC0000020200DC00007FC007FFFFE2
:108F6000F1FF800000041800780000000000DFFF1F
:108F7000FFFC00000007400030000000000043FF3D
:108F8000FFF000000003C000200004001800603F54
:108F9000FF800000000180005FFFFF00187FA0033A
:108FA000E0000000000000007FEFFF801CFFA00039
:108FB0000000000000000000601C00000C006000C9
:108FC00000000000000000003F1800000E00E0005C
:108FD000000000000000003FC03800000601E00073
:108FE0000000000000000078003C0005FE21A00009
:108FF00000000000000000E3FCA3E7F01FFFD0002A
:1090000000000000000001803F801800018308007C
:1090100000000000000003004200000000C3060042
:109020000000000000000F00C40000000023FCF05E
:109030000000000000001E0090000000001103F07E
:109040000000000000001C0120000000000D00F8DE
:109050000000000000007C01800000000007803854
:109060000000000000007003800000000007C0182E
:109070000000000000000007000000000007C00C16
:10908000000000000000000E000000000007C00CFF
:10909000000000000000001C000000000007800E1F
:1090A0000000000000000038000000000007000E73
:1090B000000000000000007000000000000E000E24
:1090C00000000000000001E000000000001E000E93
:1090D000000000000000078000000000003C001EAF
:1090E00000000000000000000000000001FC003E45
:1090F0000000000000000000000000000F800038A9
:109100000000000000000000000000001F00000040
:10911000000000000000000000000000000000004F
:10912000000000000000000000000000000000003F
:10913000000000000000000000000000000000002F
:10914000000000000000000000000000000000001F
:10915000000000000000000000000000000000000F
:1091600000000000000000000000000000000000FF
:1091700000000000000000000000000000000000EF
:1091800000000000000000000000000000000000DF
:1091900000000000000000000000000000000000CF
:1091A00000000000000000000000000000000000BF
:1091B00000000000000000000000000000000000AF
:1091C000000000000000000000000000000000009F
:1091D000000000000000000000000000000000008F
:1091E000000000000000000000000000000000007F
:1091F000000000000000000000000000000000006F
:10920000000000000000000000000000000000005E
:10921000000000000000000000000000000000004E
:10922000000000000000000000000000000000003E
:10923000000000000000000000000000000000002E
:10924000000000000000000000000000000000001E
:10925000000000000000000000000000000000000E
:1092600000000000000000000000000000000000FE
:1092700000000000000000000000000000000000EE
:1092800000000000000000000000000000000000DE
:1092900000000000000000000000000000000000CE
:1092A00000000000000000000000000000000000BE
:1092B000000000000000007FF01DC0000000000062
:1092C0000000000000001FFFFFFF00000000000082
:1092D0000000000000001FFFFFFFF0000000000082
:1092E0000000000000001F803FFFFFC000000000E2
:1092F0000000000000001E8388FFE0000000000066
:1093000000000000000078C0001FF800000000000E
:10931000000000000000F1E20003E6000000000091
:10932000000000000001F1F80000600000000000F3
:10933000000000000003418F0C0018000000000036
:1093400000000000000600038C0007800001FFFF02
:1093500080000800000C0200F800000FC03FFFFF73
:10936000F0183000000E4000300000000000FFFF49
:10937000FFE1C000000F80003000000000003FFF50
:10938000FFFF004000078000200004000000103FA5
:10939000FFFE1E00000000005FFDFF00007FF000E8
:1093A000FFFFE000000000007FEFFF8000FFF00003
:1093B0000000000000000000401C00000000100041
:1093C000000000000000000070180000018018007C
:1093D0000000000000000000603000000180180064
:1093E0000000000000000001807E0000F1C01C00B1
:1093F0000000000000000007FFFDF5FE0FFFEE007B
:109400000000000000000028FBE80E0000100F80A4
:10941000000000000000007E01080000000C070EA4
:1094200000000000000001E001100000000303FF45
:10943000000000000000070001100000000041CF04
:109440000000000000003C0001900000000011E35B
:10945000800000000001F80000A00000000007E10B
:10946000C00000000007E00000E00000000003E092
:10947000E0000000001F000000E00000000001E02C
:10948000700000000000000000E00000000000E0AC
:109490003C0000000000000000C00000000000E0F0
:1094A0000FC000000000000000C00000000000E04D
:1094B00007E00000000000000080000000000070D5
:1094C00000E00000000000000180000000000070CB
:1094D0000000000000000000018000000000007893
:1094E000000000000000000003800000000003C036
:1094F00000000000000000001F00000000000F003E
:1095000000000000000000003E00000000001F00FE
:10951000000000000000000000000000000000004B
:10952000000000000000000000000000000000003B
:10953000000000000000000000000000000000002B
:10954000000000000000000000000000000000001B
:10955000000000000000000000000000000000000B
:1095600000000000000000000000000000000000FB
:1095700000000000000000000000000000000000EB
:1095800000000000000000000000000000000000DB
:1095900000000000000000000000000000000000CB
:1095A00000000000000000000000000000000000BB
:1095B00000000000000000000000000000000000AB
:1095C000000000000000000000000000000000009B
:1095D000000000000000000000000000000000008B
:1095E000000000000000000000000000000000007B
:1095F000000000000000000000000000000000006B
:10960000000000000000000000000000000000005A
:10961000000000000000000000000000000000004A
:10962000000000000000000000000000000000003A
:10963000000000000000000000000000000000002A
:10964000000000000000000000000000000000001A
:10965000000000000000000000000000000000000A
:1096600000000000000000000000000000000000FA
:1096700000000000000000000000000000000000EA
:1096800000000000000000000000000000000000DA
:1096900000000000000000000000000000000000CA
:1096A00000000000000000000000000000000000BA
:1096B00000000000000003FFF000000000000000B8
:1096C0000000000000000FFFFF800000000000000D
:1096D0000000000000001FFFFFFFF000000000007E
:1096E0000000000000001FFFFFFFF000000000006E
:1096F0000000000000001E383FFFFE0000000000D8
:10970000000000000000700000FF888000000000E2
:10971000000000000000F1E00C5FC000000000004D
:10972000000000000001F1F01C4B80000000000070
:1097300000000000000381BC0C004000000000009D
:10974000000000000000023F000218001F80000718
:10975000F800000000181807D80001001001FFFFF2
:10976000FF800000001C0000F8000008100027FF28
:10977000FFE00000001F0000744A10281488007FDA
:10978000FFFC000000060000200000000000101890
:10979000FFFFF000000000002800000000001000A3
:1097A0000007F000000000004858000816001000F4
:1097B00000000000000000004C5B081C3690100008
:1097C00000000000000000004C7209181790000013
:1097D00000000000000000007C30000803000000D2
:1097E0000000000000000000783000031F8003002C
:1097F00000000000000000004C3E00C000400018C7
:10980000000000000000000080FFC000000F801C6E
:1098100000000000000000010B108000000003BCED
:109820000000000000000001040840000000003EAD
:109830000000000000000002100040000000001EB8
:109840000000000000000004400220000000000FA3
:109850000000000000000009000120000000000FCF
:10986000800000000000001E0000900000000007C3
:10987000C00000000000003C00007800000000076D
:10988000F000000000000070000038000000000739
:10989000FC000000000000C00000380000000007CD
:1098A000FE00000000000780000018000000000714
:1098B0008000000000000F0000000C00000000010C
:1098C000C00000000000780000000E000000000052
:1098D000F00000000000F800000007000000000099
:1098E000F00000000000000000000F000000000079
:1098F000300000000000000000003E0000000000FA
:10990000000000000000000000007C0000000000DB
:109910000000000000000000000000000000000047
:109920000000000000000000000000000000000037
:109930000000000000000000000000000000000027
:109940000000000000000000000000000000000017
:109950000000000000000000000000000000000007
:1099600000000000000000000000000000000000F7
:1099700000000000000000000000000000000000E7
:1099800000000000000000000000000000000000D7
:1099900000000000000000000000000000000000C7
:1099A00000000000000000000000000000000000B7
:1099B00000000000000000000000000000000000A7
:1099C0000000000000000000000000000000000097
:1099D0000000000000000000000000000000000087
:1099E0000000000000000000000000000000000077
:1099F0000000000000000000000000000000000067
:109A00000000000000000000000000000000000056
:109A10000000000000000000000000000000000046
:109A20000000000000000000000000000000000036
:109A30000000000000000000000000000000000026
:109A40000000000000000000000000000000000016
:109A50000000000000000000000000000000000006
:109A600000000000000000000000000000000000F6
:109A700000000000000000000000000000000000E6
:109A800000000000000000000000000000000000D6
:109A900000000000000000000000000000000000C6
:109AA000000000000000007C00000000000000003A
:109AB00000000000000001FF800000000000000026
:109AC00000000000000003FFF8000000000000009C
:109AD00000000000000007FFFFFE00000000000083
:109AE0000000000000000F80FFFFC7C00000000062
:109AF0000000000000003E8387FFFC000000000023
:109B00000000000000007CE000FFF8000000000002
:109B1000000000000000FCF2001FC2000000000076
:109B200000000000000180F80003E00000000000D9
:109B3000000000000002009E0000E00000000000A5
:109B400000000000000C030F80001C01800FFFFFCD
:109B5000FFF800000006B003C00000700000FFFF27
:109B6000FFFF000000078000EC000000000047FF3E
:109B7000FFFFC000000300007C000000000041FF68
:109B8000FFF0600000000000380004000000403FCB
:109B9000FFFE1800000000001FFBFF001C7F4000BC
:109BA000F800C400000000003FFDFF800CFFC00073
:109BB0000000000000000000200C00000600400033
:109BC0000000000000000000100C00000300200056
:109BD0000000000000000000180C00000F00300022
:109BE00000000000000000000E0C0001FCC007F0A7
:109BF000000000000000000007FDFF9C003FFFF098
:109C00000000000000000000040FA7C0000007F8DB
:109C10000000000000000000041BF80000000638EF
:109C20000000000000000000023408000000061CD4
:109C30000000000000000000022304000000070EE6
:109C400000000000000000000220C2000000070722
:109C50000000000000000000024032000000070386
:109C6000C00000000000000002400D8000000383DF
:109C7000E00000000000000003C003C0000000F886
:109C80007F0000000000000003C001E00000003C75
:109C90000F000000000000000380003800000000FA
:109CA00000000000000000000300000F00000000A2
:109CB000000000000000000003000007800000001A
:109CC000000000000000000007000001C0000000CC
:109CD000000000000000000006000000E00000009E
:109CE00000000000000000003E000000E000000056
:109CF0000000000000000000F8000000200000004C
:109D00000000000000000000000000000000000053
:109D10000000000000000000000000000000000043
:109D20000000000000000000000000000000000033
:109D30000000000000000000000000000000000023
:109D40000000000000000000000000000000000013
:109D50000000000000000000000000000000000003
:109D600000000000000000000000000000000000F3
:109D700000000000000000000000000000000000E3
:109D800000000000000000000000000000000000D3
:109D900000000000000000000000000000000000C3
:109DA00000000000000000000000000000000000B3
:109DB00000000000000000000000000000000000A3
:109DC0000000000000000000000000000000000093
:109DD0000000000000000000000000000000000083
:109DE0000000000000000000000000000000000073
:109DF0000000000000000000000000000000000063
:109E00000000000000000000000000000000000052
:109E10000000000000000000000000000000000042
:109E20000000000000000000000000000000000032
:109E30000000000000000000000000000000000022
:109E40000000000000000000000000000000000012
:109E50000000000000000000000000000000000002
:109E600000000000000000000000000000000000F2
:109E700000000000000000000000000000000000E2
:109E800000000000000000000000000000000000D2
:109E900000000000000000000000000000000000C2
:109EA00000000000000000FFC000000000000000F3
:109EB00000000000000001FFF800000000000000AA
:109EC00000000000000003FFFE0000000000000092
:109ED00000000000000007FFFF80000000000000FD
:109EE0000000000000000783FFE007000000000002
:109EF0000000000000001E839FFC0E000000000018
:109F00000000000000003E3003FFFC0000000000E5
:109F10000000000000007CBE003FF00000000000D8
:109F2000000000000000803E0007FC000000000070
:109F3000000000000001000F0000E000F1F01FE051
:109F4000000000000002030300002006000FFFFCD9
:109F50000000000000038001800007E00001CFFF47
:109F6000FFFFC0000003C000C0000000000081FF30
:109F7000FFFFF80000008000600000003000807FDC
:109F8000FFFF3E0000000000600004003000801F62
:109F9000FFFF8100000000003FFFFF00387F8007C7
:109FA000FE002000000000001FFFBF8018FE8000A0
:109FB00000000000000000000C01C00018010000BB
:109FC00000000000000000000400C000180E0000A7
:109FD00000000000000000000400E0005E03FF003D
:109FE00000000000000000000400600300E0FF002B
:109FF000000000000000000003FF7F98000FE780D2
:10A00000000000000000000000C07FC00001C3800D
:10A010000000000000000000002070000001C1C02E
:10A02000000000000000000000107000000380E04D
:10A03000000000000000000000086800000300703D
:10A04000000000000000000000046800000700702D
:10A050000000000000000000000238000006007C44
:10A0600000000000000000000001F8000007003EB2
:10A0700000000000000000000000FE0400070006D1
:10A0800000000000000000000000FFFFF0070000DB
:10A0900000000000000000000000701FE00300004E
:10A0A0000000000000000000000030000000000080
:10A0B0000000000000000000000018000000000088
:10A0C000000000000000000000000C000000000084
:10A0D000000000000000000000000E000000000072
:10A0E000000000000000000000001C000000000054
:10A0F00000000000000000000000F0000000000070
:10A1000000000000000000000001F000000000005E
:10A11000000000000000000000000000000000003F
:10A12000000000000000000000000000000000002F
:10A13000000000000000000000000000000000001F
:10A14000000000000000000000000000000000000F
:10A1500000000000000000000000000000000000FF
:10A1600000000000000000000000000000000000EF
:10A1700000000000000000000000000000000000DF
:10A1800000000000000000000000000000000000CF
:10A1900000000000000000000000000000000000BF
:10A1A00000000000000000000000000000000000AF
:10A1B000000000000000000000000000000000009F
:10A1C000000000000000000000000000000000008F
:10A1D000000000000000000000000000000000007F
:10A1E000000000000000000000000000000000006F
:10A1F000000000000000000000000000000000005F
:10A20000000000000000000000000000000000004E
:10A21000000000000000000000000000000000003E
:10A22000000000000000000000000000000000002E
:10A23000000000000000000000000000000000001E
:10A24000000000000000000000000000000000000E
:10A2500000000000000000000000000000000000FE
:10A2600000000000000000000000000000000000EE
:10A2700000000000000000000000000000000000DE
:10A2800000000000000000000000000000000000CE
:10A2900000000000000000007E0000000000000040
:10A2A00000000000000000FFFF8000000000000030
:10A2B00000000000000003FFFFE0000000000000BD
:10A2C00000000000000003FFFFF00000000000009D
:10A2D00000000000000003B9FFF8000000000000CB
:10A2E00000000000000007003FFC0000000000002C
:10A2F0000000000000001F3817FE000000000000F2
:10A300000000000000001E3801FF0000000007F8F8
:10A310000000000000003C1C0C7FC08000001FFEFD
:10A32000000000000000203E1C4FFE0000003FFF28
:10A33000000000000000804F0C01F8007F00FFFFCC
:10A34000800000000001840700023804001FFFFFA6
:10A35000C00000000000F0038C0003C8100303FFDE
:10A36000E00030000000F000C8000008100000FF0E
:10A37000F81FF000000000006C4A10281488007FCD
:10A38000FFFF000000000000300000004000001F40
:10A39000FFFF8000000000001800000060000007C0
:10A3A000FFE000000000000008400008D01200009C
:10A3B000FE000000000000000C4B081CD0980000BC
:10A3C00000000000000000000C423118D09800008E
:10A3D00000000000000000000C0030088C020000AB
:10A3E00000000000000000000C00300807F8F80032
:10A3F000000000000000000007003820007FF0008F
:10A40000000000000000000001E01F00003FE0002D
:10A41000000000000000000000781000003FC000B5
:10A420000000000000000000005C10000079C00087
:10A4300000000000000000000007080001E18000AB
:10A440000000000000000000004408000783000036
:10A450000000000000000000002448F00E0700008B
:10A460000000000000000000002409E01C070000BC
:10A470000000000000000000003C2F8038070000B2
:10A480000000000000000000003FDE003803C000B4
:10A490000000000000000000000E07003003C000B4
:10A4A0000000000000000000000000F0000180003B
:10A4B00000000000000000000000003E000000005E
:10A4C00000000000000000000000000E000000007E
:10A4D00000000000000000000000000780000000F5
:10A4E00000000000000000000000000380000000E9
:10A4F00000000000000000000000000380000000D9
:10A500000000000000000000000000020000000049
:10A51000000000000000000000000000000000003B
:10A52000000000000000000000000000000000002B
:10A53000000000000000000000000000000000001B
:10A54000000000000000000000000000000000000B
:10A5500000000000000000000000000000000000FB
:10A5600000000000000000000000000000000000EB
:10A5700000000000000000000000000000000000DB
:10A5800000000000000000000000000000000000CB
:10A5900000000000000000000000000000000000BB
:10A5A00000000000000000000000000000000000AB
:10A5B000000000000000000000000000000000009B
:10A5C000000000000000000000000000000000008B
:10A5D000000000000000000000000000000000007B
:10A5E000000000000000000000000000000000006B
:10A5F000000000000000000000000000000000005B
:10A60000000000000000000000000000000000004A
:10A61000000000000000000000000000000000003A
:10A62000000000000000000000000000000000002A
:10A63000000000000000000000000000000000001A
:10A64000000000000000000000000000000000000A
:10A6500000000000000000000000000000000000FA
:10A6600000000000000000000000000000000000EA
:10A6700000000000000000000000000000000000DA
:10A68000000000000000000001F8000000000000D1
:10A690000000000000000001BFFF000000000000FB
:10A6A00000000000000000DFFFFFC000000000000D
:10A6B00000000000000001FFFFFFE00000000000BC
:10A6C00000000000000001FFFFFFE00000000000AC
:10A6D00000000000000001C1FFFFF00000000000CA
:10A6E00000000000000003201FFEF000000000003A
:10A6F0000000000000000FB81FFE10000000000066
:10A700000000000000000F1C00FFC8000000000057
:10A71000000000000000162E0C7FF00000000FFC6F
:10A72000000000000000303F1C4F000000003FFE12
:10A7300000000000000060270C0040006101FFFFE6
:10A74000000000000000C70380021804003FFFFF64
:10A750008000000000007C01CC0003E8100F81FFA6
:10A76000C000000000007C00C80000081002007F4C
:10A77000F0000000000000006C4A1028D488001F80
:10A78000FF0000000000000020000000C000000FDB
:10A79000FFF00000000000003C0000018002000308
:10A7A000FFFFFE00000000001C4000091000000038
:10A7B00007FFE000000000001C4B081FB0F0000085
:10A7C00000000000000000001C42311990F0000061
:10A7D00000000000000000002C003008FC00000019
:10A7E00000000000000000001E003808FC33C0001C
:10A7F00000000000000000000F0C1800740FE000C3
:10A8000000000000000000000DFC1800040F800094
:10A81000000000000000000018781000121F000067
:10A820000000000000000000418420000F7C0000B8
:10A830000000000000000003C00420000FF0000032
:10A840000000000000000001800020003F800000A8
:10A850000000000000000000C0034001FF000000F5
:10A8600000000000000000007002400F0E00000019
:10A8700000000000000000003C81C01E0E0000002F
:10A8800000000000000000000FF1C01C0E000000DE
:10A8900000000000000000000001FFF800000000C0
:10A8A0000000000000000000000003800000000025
:10A8B0000000000000000000000000000000000098
:10A8C0000000000000000000000000000000000088
:10A8D0000000000000000000000000000000000078
:10A8E0000000000000000000000000000000000068
:10A8F0000000000000000000000000000000000058
:10A900000000000000000000000000000000000047
:10A910000000000000000000000000000000000037
:10A920000000000000000000000000000000000027
:10A930000000000000000000000000000000000017
:10A940000000000000000000000000000000000007
:10A9500000000000000000000000000000000000F7
:10A9600000000000000000000000000000000000E7
:10A9700000000000000000000000000000000000D7
:10A9800000000000000000000000000000000000C7
:10A9900000000000000000000000000000000000B7
:10A9A00000000000000000000000000000000000A7
:10A9B0000000000000000000000000000000000097
:10A9C0000000000000000000000000000000000087
:10A9D0000000000000000000000000000000000077
:10A9E0000000000000000000000000000000000067
:10A9F0000000000000000000000000000000000057
:10AA00000000000000000000000000000000000046
:10AA10000000000000000000000000000000000036
:10AA20000000000000000000000000000000000026
:10AA30000000000000000000000000000000000016
:10AA40000000000000000000000000000000000006
:10AA500000000000000000000000000000000000F6
:10AA600000000000000000000000000000000000E6
:10AA700000000000000000000000000000000000D6
:10AA800000000000000000000000000000000000C6
:10AA90000000000000000000207FE0000000000037
:10AAA000000000000000003FE7FFEC000000000095
:10AAB00000000000000001FFFFF80000000000009F
:10AAC00000000000000001FFFFF9C00000000000CE
:10AAD00000000000000001FBFFFFF8000000000084
:10AAE00000000000000001C21FFFFE000000000087
:10AAF00000000000000003DF8BFFE1000000000009
:10AB00000000000000000F8E00FFF80000000000B1
:10AB10000000000000000F8F001FC00000000000B8
:10AB20000000000000001E0F000300000000031FD3
:10AB3000F0000000000010838000C00380E01FFFD1
:10AB4000FF80000000002021C0003C78001FFFFFB4
:10AB5000FFE0000000004180E00000000007FFFF70
:10AB6000FFF800000000740060000000C002000157
:10AB7000FFFE000000003C0030000000C0020000AA
:10AB80000FFF00000000180010000400C0020000C9
:10AB900001FFF000000000001FFFFF01807E0000A9
:10ABA000003FE000000000003FFEFF8180FE00004B
:10ABB0000003F800000000004600C001800C000007
:10ABC00000000000000000004600C001C03000008E
:10ABD00000000000000000006600C003C18000000B
:10ABE0000000000000000001F618600DF1000000F8
:10ABF000000000000000003EFFFF6770B900000089
:10AC0000000000000000001FCFE06F8059800000AE
:10AC100000000000000000181FC080005F800000DE
:10AC2000000000000000001800C300007FC000000A
:10AC3000000000000000000C008C0000FFC00000BD
:10AC4000000000000000000E03E0001FFC000000F8
:10AC5000000000000000000FE380003EFC00000048
:10AC60000000000000000003E3C13070700000002D
:10AC70000000000000000000203FFCE0E0000000B9
:10AC80000000000000000000000380E180000000E0
:10AC9000000000000000000000000087000000002D
:10ACA00000000000000000000000001E0000000086
:10ACB00000000000000000000000007C0000000018
:10ACC0000000000000000000000000E000000000A4
:10ACD0000000000000000000000003C000000000B1
:10ACE0000000000000000000000000000000000064
:10ACF0000000000000000000000000000000000054
:10AD00000000000000000000000000000000000043
:10AD10000000000000000000000000000000000033
:10B1C00000000000040C14FC140C4480000000007B
:10B1D000008040000000007F00004020110A040AA7
:10B1E00011204000040C14FC140C040000000000AA
:10B1F000000000000000007F006000000000000070
:10B2000000000000040C14FC140C040000000000FA
:10B21000000000000000007F0060007800000000D7
:10B2200000000000040C14FC140C040000000000DA
:10B23000000000000000007F00600078007E000039
:10B2400000000000040C14FC140C0400000000803A
:10B25000000000000000007F00600078007E007F9A
:10B2600000000000040C14FC140C0400000000801A
:10B2700000E000000000007F00600078007E007F9A
:10B28000007F000000000000555555555555C53F3D
:10B290007D6FEB0312D6D4BF5544880E55C1C93F0C
:10B2A0003B8F68B52882A4BF88B20175E0EF493FA3
:10B2B00009F7FD0DE13D023F4B2D8A1C273A03C0E3
:10B2C000C88A599CE52A004059018D1B6C06E6BFCF
:10B2D00082922EB1C5B8B33F4FBB610567ACDD3F6D
:10B2E000182D4454FB21E93F9BF681D20B73EF3FAD
:10B2F000182D4454FB21F93FE2652F227F2B7A3C25
:10B30000075C143326A6813CBDCBF07A8807703CDD
:10B31000075C143326A6913CC4EB98999999C9BF50
:10B32000711623FEC671BCBF6D9A74AFF2B0B3BF85
:10B330009AFDDE522DDEADBF2F6C6A2C44B4A2BF45
:10B340000D5555555555D53FFF8300922449C23FB1
:10B350006E204CC5CD45B73F513DD0A0660DB13FE5
:10B36000EB0D76244B7BA93F11DA22E33AAD903FF7
:10B37000000000000000000098B30008000000205A
:10B38000DC000000306E000874B40008DC0000200F
:10B39000A4100000406E000800A24A040000000053
:10B3A0000000000001020304060708090000000075
:10B3B0000102030401020304060708090204060847
:10B3C0000001000100010001000100010001000076
:10B3D000000000000000000000000000000000006D
:10B3E000000000000000000000000000000000005D
:10B3F000000000000000000000000000000000004D
:10B40000000000000000000000000000000000003C
:10B41000000000000000000000000000000000002C
:10B42000000000000000000000000000000000001C
:10B43000000000000000000000000000000000000C
:10B4400000000000000000000000000000000000FC
:10B450000000803F0000000000000000000000002D
:10B4600000000000000000000000000001000000DB
:04B4700000000000D8
:04000005080000ED02
:00000001FF
